:100000001AC1000049C1000047C1000045C10000FD
:1000100043C1000041C100003FC100003DC10000DC
:100020003BC1000039C1000037C1000035C10000EC
:1000300033C100000C94C20F2FC100002DC100007D
:100040002BC100000C94561127C1000025C10000EF
:1000500023C1000021C100001FC100000C948210C8
:100060001BC100000C944C100C94221015C1000010
:1000700013C1000011C100000FC100000DC100003C
:100080000C94281109C1000007C1000005C100003F
:1000900003C1000001C10000FFC000000C948411E6
:1000A000FBC00000F9C000000C94FA10F5C000007D
:1000B000F3C00000F1C00000EFC000000C94CC10B1
:1000C000EBC00000E9C00000E7C00000E5C0000090
:1000D000E3C00000E1C00000DFC00000DDC00000A0
:1000E000DBC00000084AD73B3BCE016E84BCBFFD9D
:1000F000C12F3D6C74319ABD56833DDA3D00C77FF8
:1001000011BED9E4BB4C3E916BAAAABE0000008090
:100110003F0000000A0B02090C0D0E080703040142
:1001200000000000000000000000000000000000CF
:10013000000000000000000000000000000012119C
:10014000100000000000000000000000000000009F
:100150000000000000000000020000210024002731
:10016000002A002D003000330001010000040107C7
:10017000010A01000020002300260029002C002F86
:100180000032000001000003010601090100002205
:1001900000250028002B002E003100340002010051
:1001A00000050108010B01050505050705080808FC
:1001B00008020202020A0A080804040404010101F8
:1001C0000101010101030303030303030304070700
:1001D000070C0C0C0C0C0C0C0C020202020606069E
:1001E00006060606060B0B0B0B0B0B0B0B01021086
:1001F0002020080810204010204080020102010841
:1002000004020101020408102040808040201008F0
:100210000402018004020180402010080402010849
:1002200004020101020408102040800102040810A9
:1002300020408000C31211241FBECFEFD1E2DEBFE9
:10024000CDBF00E00CBF12E0A0E0B2E0ECEBFBE3BE
:1002500000E00BBF02C007900D92A63CB107D9F792
:1002600025E0A6ECB2E001C01D92A337B207E1F78A
:1002700011E0CBE1D1E000E006C021970109802F19
:10028000FE010E94B71DCA31D10780E00807A9F717
:100290000E9467130C94DC1DB3CE90913D04911124
:1002A000FCCF91E090933D0490933C042FEF20937A
:1002B0003B0410923A04260F20933904909338049B
:1002C00090913804880F892B8093380480913704EB
:1002D0008130F9F410923704809138048093BB0088
:1002E0008091BC0083FDF8CF85EC8093BC008091A9
:1002F0003D048130E1F380913A04861710F4609157
:100300003A04A7E1B4E0E7EFF3E080E0861303C02E
:10031000089585EEEACF9D9191938F5FF7CF982F47
:100320002091F60381E0213208F043C080913D0422
:100330008111FCCF8091F50332E030933D0490931E
:100340003C049FEF90933B0410923A0420933904AD
:10035000A5EDB3E0E7E1F4E090E0291331C010929D
:10036000380490913804880F892B80933804809149
:100370003704813049F51092370480913804809316
:10038000BB008091BC0083FDF8CF85EC8093BC005E
:1003900080913D048230E1F380913B048F3FB1F0C6
:1003A00080913B048032A1F080913B04803391F036
:1003B00084E01092D4031092F6031092D3030895B0
:1003C0003D9131939F5FC9CF85EEE0CF80E0F1CFC3
:1003D00082E0EFCF83E0EDCF1F93CF93DF93162F13
:1003E000C7E0D5E0A881B98191E09093D30398E666
:1003F0009093F5031092D4031092F603ED91FC91C3
:1004000011970190F081E02D682FCD011995888119
:100410009981DC01ED91FC910190F081E02D612F3B
:10042000199581E0DF91CF911F9179CF90E0FC0188
:10043000E351FE4F249189559E4FFC0184918823FE
:1004400099F090E0880F991FFC01E75AFE4FA591A3
:10045000B491FC01E357FE4F859194918FB7F894C6
:10046000EC91E22BEC938FBF0895AF92BF92CF92A5
:10047000DF92EF92FF920F931F93CF93DF936C0164
:100480007B018B01040F151FEB015E01AE18BF0845
:10049000C017D10759F06991D601ED91FC910190F7
:1004A000F081E02DC6011995892B79F7C501DF91FF
:1004B000CF911F910F91FF90EF90DF90CF90BF9061
:1004C000AF90089508950895FC01538D448D252F14
:1004D00030E0842F90E0821B930B541710F0CF96DE
:1004E000089501970895FC01918D828D981761F010
:1004F000A28DAE0FBF2FB11D5D968C91928D9F5F27
:100500009F73928F90E008958FEF9FEF0895FC0105
:10051000918D828D981731F0828DE80FF11D858DB8
:1005200090E008958FEF9FEF0895FC01918D228D4B
:10053000892F90E0805C9F4F821B91098F739927D0
:1005400008958EE394E0F1DF21E0892B09F420E0A7
:10055000822F0895FC01A48DA80FB92FB11DA35AB5
:10056000BF4F2C91848D90E001968F739927848FD3
:10057000A689B7892C93A089B1898C9183708064F6
:100580008C93938D848D981306C00288F389E02D97
:1005900080818F7D80830895EF92FF920F931F9348
:1005A000CF93DF93EC0181E0888F9B8D8C8D981326
:1005B0001AC0E889F989808185FF15C09FB7F89432
:1005C000EE89FF896083E889F9898081837080647E
:1005D00080839FBF81E090E0DF91CF911F910F91C9
:1005E000FF90EF900895F62E0B8D10E00F5F1F4FD8
:1005F0000F731127E02E8C8D8E110BC00FB607FCE8
:10060000FACFE889F989808185FFF5CFCE01A2DF95
:10061000F2CFEB8DEC0FFD2FF11DE35AFF4FF0826F
:100620009FB7F8940B8FEA89FB8980818062D0CFD5
:10063000CF93DF93EC01888D8823B1F0AA89BB8921
:10064000E889F9898C9185FD03C0808186FD0CC005
:100650000FB607FCF7CF8C9185FFF2CF808185FF25
:10066000EDCFCE0177DFEACFDF91CF91089580E023
:1006700090E0892B21F065DF81110E94000080E06D
:1006800090E0892B49F080E090E0892B29F00E94CE
:10069000000081110E94000080E090E0892B49F069
:1006A00080E090E0892B29F00E94000081110E94D7
:1006B000000080E090E0892B49F080E090E0892BF9
:1006C00029F00E94000081110C94000008958150CF
:1006D000823108F05AC0E82FF0E08827ED58FC4F2F
:1006E0008F4F0C94B71D9303970385038B038F03E0
:1006F000C5039A03A003A403AA03AE03B203B8037D
:10070000BC03C503C003C603CA03809180008F7772
:10071000809380000895809180008F7DF9CF809133
:100720008000877FF5CF84B58F7784BD089584B529
:100730008F7DFBCF8091B0008F778093B0000895BC
:100740008091B0008F7DF9CF809190008F7780935A
:1007500090000895809190008F7DF9CF8091900056
:10076000877FF5CF8091A0008F778093A0000895B8
:100770008091A0008F7DF9CF8091A000877FF5CF79
:10078000809120018F77809320010895809120012E
:100790008F7DF9CF80912001877FF5CF1F93CF9375
:1007A000DF93282F30E0F901EE5EFE4F8491F901CE
:1007B000E351FE4FD491F901E955FE4FC491CC238A
:1007C000A1F0162F811183DFEC2FF0E0EE0FFF1F59
:1007D000E357FE4FA591B4918FB7F894EC911111A6
:1007E00008C0D095DE23DC938FBFDF91CF911F919E
:1007F0000895DE2BF8CF9091050289130DC0E8E52E
:10080000F1E0E4919FEF90930502E230D9F030F4EB
:10081000EE2379F0E13081F060E0C0CFE43049F1BF
:1008200010F1E530C9F7909173009D7F90937300AC
:10083000F3CF10926E00F0CF90916F009D7F909358
:100840006F00EACF909170009D7F9093700091E0CF
:100850009093B0009091B100987F94609093B10014
:100860001092B300D9CF909171009D7F9093710049
:10087000D3CF909172009D7F90937200CDCF1F9344
:10088000CF93DF93182FEB01D1DD209731F460E097
:10089000812FDF91CF911F9181CFCF3FD10511F4EF
:1008A00061E0F6CFE12FF0E0EE5EFE4FE491E15023
:1008B000E23108F0B3C0F0E08827EE59FB4F8F4FCC
:1008C0000C94B71D74047C0481048B0495040E05FC
:1008D0009F04A704AF04B904C304CD04DC04E604F8
:1008E0000E05F004FA04040584B5806884BDC7BD14
:1008F000DF91CF911F91089584B5806284BDC8BDFA
:10090000F7CF80918000806880938000D093890029
:10091000C0938800EDCF809180008062809380003A
:10092000D0938B00C0938A00E3CF809180008860D1
:1009300080938000D0938D00C0938C00D9CF80919C
:10094000B00080688093B000C093B300D1CF809195
:10095000B00080628093B000C093B400C9CF809192
:100960009000806880939000D0939900C093980085
:10097000BFCF80919000806280939000D0939B00C5
:10098000C0939A00B5CF80919000886080939000CA
:10099000D0939D00C0939C00ABCF8091A000806855
:1009A0008093A0008091A0008F7B8093A000D093C3
:1009B000A900C093A8009CCF8091A0008062809382
:1009C000A000D093AB00C093AA0092CF8091A0006A
:1009D00088608093A000D093AD00C093AC0088CF16
:1009E00080912001806880932001D0932901C093D9
:1009F00028017ECF80912001806280932001D093D6
:100A00002B01C0932A0174CF8091200188608093CC
:100A10002001D0932D01C0932C016ACFC038D1059D
:100A20000CF03ECF34CF3FB7F8948091A303909160
:100A3000A403A091A503B091A60326B5A89B05C069
:100A40002F3F19F00196A11DB11D3FBFBA2FA92F4D
:100A5000982F8827BC01CD01620F711D811D911D4A
:100A600042E0660F771F881F991F4A95D1F70895B6
:100A70008F929F92AF92BF92CF92DF92EF92FF92AE
:100A80006B017C01D0DF4B015C01C114D104E10496
:100A9000F104B1F0C8DF681979098A099B09683E39
:100AA00073408105910588F321E0C21AD108E1085D
:100AB000F10888EE880E83E0981EA11CB11CE5CFDA
:100AC000FF90EF90DF90CF90BF90AF909F908F906E
:100AD00008952FB7F89460919F037091A0038091BF
:100AE000A1039091A2032FBF0895DC01EC91E033A4
:100AF00090F511968C91119728E830E0281B310968
:100B000087FD3395220F331F220F331F62177307A0
:100B100084F012968C9128E532E0281B310987FD7C
:100B20003395220F331F220F331F621773070CF404
:100B30009B0122503109220F331F4FB7F8948E2F9B
:100B400090E0FC01EE0FFF1FE80FF91FE25FFC4F82
:100B5000328321834FBF0895CF92DF92EF92FF92AD
:100B6000CF93DF93EC01603282E07807CCF5653BF0
:100B7000710514F064EB70E0898128E830E0281BEF
:100B8000310987FD3395220F331F220F331F69016F
:100B9000330FEE08FF088A8128E532E0281B31096F
:100BA00087FD3395220F331F220F331F032E000CB6
:100BB000440B550B2C193D094E095F09DB0177FFEA
:100BC00002C0B0E0A0E00E94D31B24EB30E040E084
:100BD00050E00E94AD1BC20ED31EE41EF51EB601EE
:100BE000CE01DF91CF91FF90EF90DF90CF907DCF3E
:100BF000DF92EF92FF920F931F93CF93DF93EC015D
:100C0000D62E7A0189018881803308F061C0862F51
:100C10000DDC8881282F30E0F901EE0FFF1FE20F75
:100C2000F31FE25FFC4F9D2D9F736081607C692BF9
:100C3000608320E232E02E193F0937FF02C02D5FAA
:100C40003F4F3595279535952795298320E639E03F
:100C5000201B310B35952795359527952A832CE058
:100C6000622F0E94981D829FB001112430E020E085
:100C7000AB01420F531FFA01EE0FFF1FE40FF51FE8
:100C8000E25FFC4F908196FD16C02F5F3F4F2C30E6
:100C9000310571F7813029F51092800082E0809350
:100CA00081001092850010928400B19A80916F00AB
:100CB000826080936F00E8818E2F90E0FC01EE0F40
:100CC000FF1FE80FF91FE25FFC4F80818064808383
:100CD0008881DF91CF911F910F91FF90EF90DF906E
:100CE0000895823061F410929000809391001092E8
:100CF00095001092940088BB80937100DCCF833004
:100D000069F41092A00082E08093A1001092A500E7
:100D10001092A40089BB80937200CDCF8111CBCFFC
:100D20001092200182E080932101109225011092FF
:100D300024018ABB80937300BECF20E639E040E2F5
:100D400052E056CFAF92BF92CF92DF92EF92FF92D6
:100D50000F931F93CF93DF936B017A01EC01C75F71
:100D6000DC4F28813CE0389F8001399F100D112411
:100D7000A0900D03B12C27FF1FC0FB011182108230
:100D800088818F5F888388819801280F311D87FDB6
:100D90003A95F6012A153B051CF488818C30BCF18C
:100DA00080819181049680349C4908F471C0F601D9
:100DB0008081918104966EC088819801280F311D31
:100DC00087FD3A952A153B05DCF68881A801480F76
:100DD000511D87FD5A95FA01EE0FFF1FE40FF51F15
:100DE000E25FFC4F808186FFCBCF8881F801E80F5E
:100DF000F11D87FDFA95CF01EE0FFF1FE80FF91FD8
:100E0000E25FFC4F808160E08F73C8DCB9CF8081E6
:100E100091812881A801420F511D27FD5A959A0101
:100E2000FA01EE0FFF1FE20FF31FE25FFC4F21817B
:100E30003281820F931FF70191838083888198010B
:100E4000280F311D87FD3A95F901EE0FFF1FE20FC4
:100E5000F31FE25FFC4F808186FF21C08881080F6D
:100E6000111D87FD1A95F801EE0FFF1FE00FF11F0E
:100E7000E25FFC4F808161E08F73DF91CF911F9122
:100E80000F91FF90EF90DF90CF90BF90AF9086CC06
:100E900080E49CE9F701918380838FEF8883DF9161
:100EA000CF911F910F91FF90EF90DF90CF90BF9067
:100EB000AF90089585ED8093BC008091BC0084FDC7
:100EC000FCCF10923D0408952091E602260F3327AF
:100ED000331F21323105ECF420913D04FC0190E0F8
:100EE00080E0243069F082E00895A091E60221912B
:100EF000AC014A535D4FA40FB52FB11D2C93019641
:100F0000861798F38091E602680F6093E60280E00E
:100F1000089581E008950895E091D2038091D1036E
:100F2000E81730F4F0E0E950FC4F808190E008953C
:100F30008FEF9FEF08959091D2038091D1032FEF0F
:100F40003FEF981748F4E92FF0E0E950FC4F20817B
:100F500030E09F5F9093D203C90108958091D1033F
:100F60009091D203891B990B0895CF92DF92EF9253
:100F7000FF920F931F93CF93DF937C01CB018A01E4
:100F80002091D303222389F0EB016B01C40ED51EFF
:100F9000CC15DD0561F06991D701ED91FC910190CF
:100FA000F081E02DC7011995F3CF642F8DDFC801C3
:100FB000DF91CF911F910F91FF90EF90DF90CF9035
:100FC0000895CF93DF931F92CDB7DEB76983209149
:100FD000D3032223F9F02091F603203258F021E0C8
:100FE00030E0FC013383228390E080E00F90DF91BA
:100FF000CF9108958091D403E82FF0E0EB52FC4F9D
:10100000998190838F5F8093D4038093F60381E06E
:1010100090E0ECCF61E0CE01019656DFF8CF90E092
:1010200080E00895CF93DF93EC0188819981461B7E
:10103000570BDC01ED91FC910280F381E02D1995B5
:101040002A813B81820F931F9B838A83DF91CF91FB
:101050000895EF92FF921F93CF93DF93CDB7DEB742
:1010600066970FB6F894DEBF0FBECDBF9C01CB01D3
:10107000FE0177964E2F1F2F5AE0E52EF12CB70177
:101080000E94A41D805D8293CB010097C1F7512F70
:10109000BF01C901C7DF66960FB6F894DEBF0FBE69
:1010A000CDBFDF91CF911F91FF90EF900895CF9327
:1010B000DF93EC0188819981DC01ED91FC91019035
:1010C000F081E02D19952A813B81820F931F9B832C
:1010D0008A83DF91CF9108958F929F92AF92BF92B2
:1010E000CF92DF92EF92FF920F931F93CF93DF93F4
:1010F000CDB7DEB766970FB6F894DEBF0FBECDBF93
:101100007C018E01095E1F4F68018AE0882E912CB8
:10111000A12CB12CCB01BA01A50194010E94D91BCD
:10112000942F852F605DF80162938F01A901692FCB
:10113000782F411551056105710561F7A601BF01C1
:10114000C70170DF66960FB6F894DEBF0FBECDBF45
:10115000DF91CF911F910F91FF90EF90DF90CF9093
:10116000BF90AF909F908F900895CF93C62FBC01F2
:101170008DE285DB6C2F8AE2CF9110CBCF93C62F07
:10118000BC018CE27CDB61E06C2789E2CF9106CB6D
:10119000EF92FF920F931F93CF93DF93453B51053F
:1011A0009CF5FB01208131814217530769F18A01C7
:1011B000EB017C012417350790F4688179810617CB
:1011C000170710F1C701C8DC65E070E080E090E02F
:1011D0004FDC88819981019699838883EECF4217ED
:1011E000530790F4688179816017710768F0C7012F
:1011F000B3DC65E070E080E090E03ADC88819981C2
:10120000019799838883EECFDF91CF911F910F9142
:10121000FF90EF900895FC0101900020E9F73197CD
:10122000AF01481B590BBC018EE394E01EC9CF935C
:10123000DF93EC0188819981FB0101900020E9F79F
:101240003197AF01461B570BDC01ED91FC910280F9
:10125000F381E02D19952A813B81820F931F9B8397
:101260008A83DF91CF910895FF920F931F93CF93BD
:10127000DF936115710541F461E872E0DF91CF9170
:101280001F910F91FF90D3CF8B01EC0162E2CE0151
:101290000EDFF80161918F01662351F0E2E7F2E081
:1012A000F080FF20A1F38181681751F03296F8CFCA
:1012B00062E2CE01DF91CF911F910F91FF90F7CEA7
:1012C0006CE5CE01F4DE6F2DE2CF2F923F924F926C
:1012D0005F926F927F928F929F92AF92BF92CF92C6
:1012E000DF92EF92FF920F931F93CF93DF93CDB7CF
:1012F000DEB768970FB6F894DEBF0FBECDBF8C0186
:101300004B01DC0114968C9114978F77863009F489
:1013100056C2E0F4823018F1843008F038C2DB01A4
:101320008D919C91F8014281538160817181DC0132
:10133000ED91FC910280F381E02D1995F401228159
:101340003381820F931F93838283D4C18C3079F1D0
:1013500048F4883009F42DC28A3009F41EC261E8CD
:1013600072E03AC2803209F4EAC18034C1F76BE519
:10137000C4019DDED8010D911C910115110509F4E0
:10138000DAC1B401C801A1DFF8018581882309F41D
:10139000D2C1F8E08F02C0011124080F191F0115F6
:1013A000110509F4C8C16CE2C40181DEE6CFF80181
:1013B0004080518062807380A3019201C301B20119
:1013C0000E94941A8111CBCF20E030E0A901C30123
:1013D000B2010E94941A882379F0A3019201C301FB
:1013E000B2010E940B1C9B01AC01C301B2010E941F
:1013F000941A882309F4B3CF20E030E0A901C30197
:10140000B2010E94941A87FF07C06DE2C4014FDE4B
:1014100077FA709477F8709420E836E948E15BE455
:10142000C301B2010E948A1D87FD79C03EE4E32E0C
:1014300032E0F32E4EE1C42E42E0D42E56E3A52E28
:1014400052E0B52E00E210E0312C212CD7015E9144
:101450004E913E912E917D01C301B2010E948A1DE1
:1014600087FD0DC0F6012489358946895789C30156
:10147000B2010E94F91A2B013C01200E311E159574
:101480000795F4E0CF1AD108AE14BF04F9F62FEF98
:10149000298B20E030E0A901C301B2010E948A1D1E
:1014A00018160CF043C02CEA35EC47E257E3C301B1
:1014B000B2010E94941A1816CCF19989A4E09A02FC
:1014C00050011124D12CC12CB989BF3F79F175018C
:1014D000EC0CFD1CF701EA5FFD4FA3019201608156
:1014E0007181828193810E948A1D18167CF4F70114
:1014F000EA5CFD4F2081318142815381C301B201F9
:101500000E94F91A2B013C01201A310A1595079502
:10151000E989E150E98BF4E0CF1AD108D5CF00E298
:1015200010E085E0898B312C212CB3CFC301B201AF
:101530000E94391D698B7A8B8B8B9C8B6B017C0194
:1015400016E080E492E4AFE0B0E08D8B9E8BAF8B31
:10155000B88FB12E11509AE0C916D104E104F104FC
:10156000C8F06D897E898F89988D2AE030E040E04F
:1015700050E00E94D91B2D8B3E8B4F8B588FC7019B
:10158000B6012AE030E040E050E00E94D91B69013A
:101590007A01DFCF69897A898B899C890E94981AA0
:1015A0009B01AC01C301B2010E940A1C6B017C01CA
:1015B0006D897E898F89988D0E94981A9B01AC0154
:1015C000C701B6010E94F91A2B013C010E94391D86
:1015D0006B017C010E94981A9B01AC01C301B2010E
:1015E0000E940A1C9B01AC010E940B1C0E94391D29
:1015F000C60ED71EE81EF91E8D899E89AF89B88D4B
:10160000C816D906EA06FB0600F189899A89AB89D2
:10161000BC890196A11DB11D898B9A8BAB8BBC8BAC
:101620002114310439F10A97A105B10518F19FEF92
:10163000291A390AC12CD12C760181E090E0A0E072
:10164000B0E0898B9A8BAB8BBC8B8AE0482E512CF7
:10165000612C712CC701B601A30192010E94D91B14
:10166000672B682B692B51F41B1444F469017A0130
:10167000BA94F0CFC12CD12C7601E7CF49895A8991
:101680006B897C89C40128DDBB2041F12E0191E1E9
:10169000490E511C7B2C82017A94AFEF7A1679F0B7
:1016A000C701B6012AE030E040E050E00E94D91BBB
:1016B000605DF20162932F0169017A01EDCF6B2D1C
:1016C00070E0F801E61BF70B31978EE2808360959E
:1016D0007095600F711FA801C401A4DC37FE23C000
:1016E00066E872E0C401A3DD6627772762197309F3
:1016F000C401AFDC68960FB6F894DEBF0FBECDBF55
:10170000DF91CF911F910F91FF90EF90DF90CF90DD
:10171000BF90AF909F908F907F906F905F904F9011
:101720003F902F9008952114310421F365E6C40100
:10173000BEDCB101DDCF6DE5C401B9DCDBCF6BE709
:10174000C401B5DCD8010D911C9101151105E9F01A
:10175000F80166817781C40187DD6AE3C401A7DCF3
:10176000B401C801B2DDD80115968C91882369F0C7
:10177000B8E08B02C0011124080F191F01151105D3
:1017800021F06CE2C40193DCE0CF6DE7D5CFF80126
:1017900060817181C40168DDADCFCD90DD90ED90A9
:1017A000FC906DE2C40183DCB701A601C40194DCA6
:1017B000A1CFF8014081518162817381F7CFF80197
:1017C00080819181A281B38169E872E0892B8A2BA3
:1017D0008B2B11F46EE872E0C40129DD8BCF2F92C0
:1017E0003F924F925F926F927F928F929F92AF92B1
:1017F000BF92CF92DF92EF92FF92CF93DF9300D010
:1018000000D01F921F92CDB7DEB78091070590914F
:10181000080521E02093D30328E62093F5031092D6
:10182000D4031092F603DC01ED91FC910190F0815C
:10183000E02D6BE3199580E00E948F016EE088E651
:101840000E944D011092D2038093D103809107052D
:1018500090910805DC01ED91FC910284F385E02D67
:101860001995F82E8091070590910805DC01ED91FE
:10187000FC910284F385E02D199520E0822B9F29AD
:1018800090930A05809309058091070590910805BA
:10189000DC01ED91FC910284F385E02D1995F82E81
:1018A0008091070590910805DC01ED91FC9102847F
:1018B000F385E02D199520E0822B9F2990930C054C
:1018C00080930B058091070590910805DC01ED914F
:1018D000FC910284F385E02D1995F82E809107057F
:1018E00090910805DC01ED91FC910284F385E02DD7
:1018F000199520E0822B9F2990930E0580930D056A
:101900008091070590910805DC01ED91FC9102841E
:10191000F385E02D1995F82E809107059091080523
:10192000DC01ED91FC910284F385E02D199520E016
:10193000822B9F299093100580930F0580910705B6
:1019400090910805DC01ED91FC910284F385E02D76
:101950001995F82E8091070590910805DC01ED910D
:10196000FC910284F385E02D199520E0822B9F29BC
:1019700090931205809311058091070590910805B9
:10198000DC01ED91FC910284F385E02D1995F82E90
:101990008091070590910805DC01ED91FC9102848E
:1019A000F385E02D199520E0822B9F299093140553
:1019B000809313058091070590910805DC01ED9156
:1019C000FC910284F385E02D1995F82E809107058E
:1019D00090910805DC01ED91FC910284F385E02DE6
:1019E0001995612C7F2C682A792A709216056092CD
:1019F000150560910F0570911005072E000C880BDE
:101A0000990B0E949A1A20E030EF41E456E40E94BC
:101A10000B1C20E030E04AEA53E40E94D11C6093A2
:101A200023057093240580932505909326056091E6
:101A3000090570910A05072E000C880B990B0E946E
:101A40009A1A20E030E040E858E30E94F91A4B016E
:101A50005C018092270590922805A0922905B092FA
:101A60002A0560910B0570910C05072E000C880B60
:101A7000990B0E949A1A20E030E040E858E30E9457
:101A8000F91A6B017C01C0922B05D0922C05E092D3
:101A90002D05F0922E0560910D0570910E05072E13
:101AA000000C880B990B0E949A1A20E030E040E865
:101AB00058E30E94F91A1B012C0120922F05309245
:101AC0003005409231055092320520E030E0A90106
:101AD000C501B4010E948A1DA501940118160CF0DD
:101AE0005058C201B1010E940B1C9B01AC01C701FF
:101AF000B6010E947E1C20E030E044EB53E40E94DB
:101B0000F91A20E030E040E05FE30E94F91A2BED83
:101B10003FE049E450E40E94D11C60934B05709370
:101B20004C0580934D0590934E0520E030E0A901CF
:101B3000C701B6010E948A1D181624F0F7FAF09426
:101B4000F7F8F094A7019601C201B1010E940B1CA5
:101B50009B01AC01C501B4010E947E1C20E030E075
:101B600044EB53E40E94F91A20E030E040E05FEBE0
:101B70000E94F91A2BED3FE049E450E40E94D11C89
:101B800060934F05709350058093510590935205D3
:101B90006091130570911405072E000C880B990BAA
:101BA0000E949A1A20E030E043E852E40E94D11CDF
:101BB0006B017C016091110570911205072E000CDC
:101BC000880B990B0E949A1A20E030E043E852E417
:101BD0000E94D11C209117053091180540911905DC
:101BE00050911A050E940A1C6093330570933405C6
:101BF000809335059093360520911B0530911C0587
:101C000040911D0550911E05C701B6010E940A1C96
:101C100060933705709338058093390590933A05A2
:101C2000B301770C880B990B0E949A1A20E030E0E0
:101C300043E852E40E94D11C20911F0530912005F9
:101C400040912105509122050E940A1C60933B059A
:101C500070933C0580933D0590933E050E94690575
:101C6000C0906705D0906805E0906905F0906A051E
:101C70006C197D098E099F090E94981A2FE632E19E
:101C800043E85AE30E94F91A6B017C01C092630594
:101C9000D0926405E0926505F092660520913305C7
:101CA0003091340540913505509136050E94F91A5E
:101CB0002B013C01AC019B0160913F0570914005F7
:101CC00080914105909142050E940B1C60933F0555
:101CD000709340058093410590934205209137050C
:101CE000309138054091390550913A05C701B60148
:101CF0000E94F91A4B015C01AC019B016091430504
:101D00007091440580914505909146050E940B1CF9
:101D10006093430570934405809345059093460571
:101D200020913B0530913C0540913D0550913E0589
:101D3000C701B6010E94F91A209147053091480564
:101D40004091490550914A050E940B1C6D837E838A
:101D50008F83988760934705709348058093490562
:101D600090934A05C0906F05D0907005E090710582
:101D7000F090720580916B0590916C05A0916D05B6
:101D8000B0916E0589839A83AB83BC8320915705FC
:101D9000309158054091590550915A05C301B2013F
:101DA0000E940B1CA70196010E94F91A2B013C010D
:101DB00020914B0530914C0540914D0550914E05B9
:101DC00069817A818B819C810E94F91A9B01AC0107
:101DD000C301B2010E940B1C609357057093580514
:101DE0008093590590935A0520915B0530915C05CD
:101DF00040915D0550915E05C501B4010E940B1C28
:101E0000A70196010E94F91A6B017C0120914F05F0
:101E100030915005409151055091520569817A8168
:101E20008B819C810E94F91A9B01AC01C701B6010C
:101E30000E940B1C60935B0570935C0580935D05AD
:101E400090935E058D819E81AF81B88580935F05FB
:101E500090936005A0936105B09362050E946905A7
:101E600060936705709368058093690590936A0590
:101E700028960FB6F894DEBF0FBECDBFDF91CF918D
:101E8000FF90EF90DF90CF90BF90AF909F908F909A
:101E90007F906F905F904F903F902F900895CF92DA
:101EA000DF92EF92FF920F931F93CF93DF93FC018A
:101EB0008481982F9F7739F480788062848311829F
:101EC000108213821282848185FD0CC0F0E0E0E074
:101ED000CF01DF91CF911F910F91FF90EF90DF9095
:101EE000CF9008957A018B016F01C081D181209735
:101EF00009F16E817F8160177107D1F0011511051D
:101F000041F06115710529F0C8010E94D31D882395
:101F100079F08D81882371F028E08202C0011124BC
:101F2000C80FD91FE4CFF983E883FB83EA8325C078
:101F3000FE01CECFE701EC81FD818A819B8108966D
:101F4000E817F90718F23897D7011596FC93EE9326
:101F50001497309709F4BACFE601AA81BB81109794
:101F600011F3CF018A1B9B0B23E0959587952A954A
:101F7000E1F715968C93FB83EA831582148217830D
:101F80000683A6CF1F920F920FB60F9211240BB6A5
:101F90000F922F933F934F935F936F937F938F9302
:101FA0009F93AF93BF93EF93FF938091CD03909155
:101FB000CE03A091CF03B091D003892B8A2B8B2B1A
:101FC000E1F19091CC03E091CA03F091CB038081C1
:101FD000892780838091CD039091CE03A091CF0378
:101FE000B091D003181619061A061B069CF48091AE
:101FF000CD039091CE03A091CF03B091D003019770
:10200000A109B1098093CD039093CE03A093CF0390
:10201000B093D003FF91EF91BF91AF919F918F91BA
:102020007F916F915F914F913F912F910F900BBED8
:102030000F900FBE0F901F901895809105020E947F
:10204000FB03E8CF1F920F920FB60F9211240BB62D
:102050000F922F933F934F935F936F937F938F9341
:102060009F93AF93BF93EF93FF938EE394E00E940F
:10207000AA02FF91EF91BF91AF919F918F917F91B4
:102080006F915F914F913F912F910F900BBE0F90E9
:102090000FBE0F901F9018951F920F920FB60F92C0
:1020A00011240BB60F922F938F939F93EF93FF936F
:1020B000E0914E04F0914F048081E0915404F0913E
:1020C000550482FD1DC09081809157048F5F8F73EE
:1020D00020915804821741F0E0915704F0E0E25C4F
:1020E000FB4F958F80935704FF91EF919F918F91B4
:1020F0002F910F900BBE0F900FBE0F901F90189551
:102100008081F2CF1F920F920FB60F9211242F935E
:102110003F938F939F93AF93BF9380919F03909131
:10212000A003A091A103B091A20330919E0323E0EC
:10213000230F2D3758F50196A11DB11D20939E0345
:1021400080939F039093A003A093A103B093A20355
:102150008091A3039091A403A091A503B091A6033D
:102160000196A11DB11D8093A3039093A403A09396
:10217000A503B093A603BF91AF919F918F913F911B
:102180002F910F900FBE0F901F90189526E8230FE8
:102190000296A11DB11DD2CF1F920F920FB60F92C2
:1021A00011240BB60F922F933F934F935F936F932E
:1021B0007F938F939F93AF93BF93EF93FF9348E2E7
:1021C00051E064E271E090E080E00E94A206FF919D
:1021D000EF91BF91AF919F918F917F916F915F919F
:1021E0004F913F912F910F900BBE0F900FBE0F900C
:1021F0001F9018951F920F920FB60F9211240BB6D5
:102200000F922F933F934F935F936F937F938F938F
:102210009F93AF93BF93EF93FF9348EA50E064EA34
:1022200070E083E090E00E94A206FF91EF91BF91E1
:10223000AF919F918F917F916F915F914F913F915E
:102240002F910F900BBE0F900FBE0F901F901895FF
:102250001F920F920FB60F9211240BB60F922F936D
:102260003F934F935F936F937F938F939F93AF931E
:10227000BF93EF93FF9348E950E064E970E082E098
:1022800090E00E94A206FF91EF91BF91AF919F91C4
:102290008F917F916F915F914F913F912F910F900F
:1022A0000BBE0F900FBE0F901F9018951F920F92AC
:1022B0000FB60F9211240BB60F922F933F934F93AB
:1022C0005F936F937F938F939F93AF93BF93EF939E
:1022D000FF9348E850E064E870E081E090E00E94FD
:1022E000A206FF91EF91BF91AF919F918F917F9146
:1022F0006F915F914F913F912F910F900BBE0F9077
:102300000FBE0F901F9018951F920F920FB60F924D
:1023100011240BB60F922F933F934F935F936F93BC
:102320007F938F939F93AF93BF93EF93FF9380918E
:10233000B900887F803609F44DC008F040C088326B
:1023400009F4A9C028F5803109F49DC0C8F4882398
:1023500009F4FBC0883009F496C0FF91EF91BF915A
:10236000AF919F918F917F916F915F914F913F912D
:102370002F910F900BBE0F900FBE0F901F901895CE
:10238000883109F488C0803241F780933B0414C03F
:10239000803409F49DC040F48033B9F38833E9F602
:1023A00080933B0485ECB0C0803509F485C0883546
:1023B00009F496C0883489F60E945A07CECF88392E
:1023C00009F48CC038F5883729F050F4883611F0BC
:1023D000803719F683E080933D041092080357C0BC
:1023E000883809F47BC0803919F0803809F0B5CFFE
:1023F00080910803803208F071C0E091080381E009
:102400008E0F809308038091BB00F0E0E851FD4FF0
:1024100080833DC0803B39F0E0F4803A09F479C014
:10242000883A09F09ACF84E080933D041092E70245
:102430001092E602E091A903F091AA031995809108
:10244000E60281110FC081E08093E6021092C6027D
:1024500009C0803C09F4A6CF883C09F4A3CF883B8F
:1024600009F07BCFE091E70281E08E0F8093E702D5
:10247000F0E0EA53FD4F80818093BB009091E7022A
:102480008091E60229C0809138048093BB0085ECDE
:102490008093BC0062CF90913A04809139049817E0
:1024A00058F5E0913A0481E08E0F80933A04F0E011
:1024B000E95EFB4F8081E9CFE0913A0481E08E0F25
:1024C00080933A048091BB00F0E0E95EFB4F80838B
:1024D00090913A04809139049817C8F285E8D8CFD2
:1024E000E0913A0481E08E0F80933A048091BB0022
:1024F000F0E0E95EFB4F808380913C0481115CCF6A
:1025000081E08093370484EA8093BC0010923D04FC
:1025100024CF85EC8093BC0010923D048091080389
:10252000803230F4E0910803F0E0E851FD4F108272
:102530006091080370E0E091A703F091A80388EE92
:1025400092E019951092080308CF10923B0434CF03
:10255000FC0190910D03903398F481E0890F8093F2
:102560000D039083892F90E0FC01EE0FFF1FE80F11
:10257000F91FE25FFC4F88EB9BE092838183089513
:102580008FEF80830895EEE3F4E01382128288EEE9
:1025900093E0A0E0B0E084839583A683B78322E52F
:1025A00032E03183208325EC30E03587248724EC2A
:1025B00030E03787268720EC30E0318B208B21EC10
:1025C00030E0338B228B22EC30E0358B248B26ECF1
:1025D00030E0378B268B118E128E138E148EEBEF1C
:1025E000F4E01382128284839583A683B78384E602
:1025F00092E091838083F0930805E09307058AE0D9
:1026000097EDA3EABCE380936B0590936C05A093D0
:102610006D05B0936E0588E491EEAAE7BFE3809361
:102620006F0590937005A0937105B093720588EFC4
:1026300094E08EDF85EF94E08BDFE9EFF1E0E49149
:10264000A7EEB4E0EC93E8EFF1E0E4911196EC939F
:10265000119783EB91E0FC012491E22FF0E0EE0F63
:10266000FF1FE357FE4F2591349113963C932E9311
:102670001297E2EBF1E0E491F0E0EE0FFF1FED586E
:10268000FE4F2591349115963C932E931497FC019F
:102690008491E82FF0E0EE0FFF1FE75AFE4F85917F
:1026A000949117969C938E9316978DE796E11996C1
:1026B0009C938E93189784EE94E04ADF81EE94E029
:1026C00047DF8EED94E044DF8BED94E041CFCF9374
:1026D000DF93CDB7DEB7EE970FB6F894DEBF0FBE2F
:1026E000CDBF789484B5826084BD84B5816084BD9B
:1026F00085B5826085BD85B5816085BD80916E00A0
:10270000816080936E0010928100809181008260D0
:10271000809381008091810081608093810080910D
:1027200080008160809380008091B10084608093FC
:10273000B1008091B00081608093B00080919100E1
:1027400082608093910080919100816080939100DC
:10275000809190008160809390008091A1008260C0
:102760008093A1008091A10081608093A10080915D
:10277000A00081608093A0008091210182608093FD
:1027800021018091210181608093210180912001AC
:1027900081608093200180917A00846080937A0028
:1027A00080917A00826080937A0080917A008160C3
:1027B00080937A0080917A00806880937A001092EA
:1027C000C100E0914E04F0914F0482E08083E091DB
:1027D0004A04F0914B041082E0914C04F0914D04B6
:1027E00080E1808310925604E0915204F0915304EA
:1027F00086E08083E0915004F091510480818061F3
:102800008083E0915004F09151048081886080833E
:10281000E0915004F0915104808180688083E091C0
:102820005004F091510480818F7D80838DE00E945F
:10283000160289E20E9416028CE20E9416028AE2C7
:102840000E9416028DE20E94160282E00E94160289
:1028500020ED37E048EE53E066E070E084EE94E06F
:102860000E94F80520ED37E048EE53E067E070E0A5
:1028700081EE94E00E94F80564E070E08EED94E053
:102880000E949D0665E070E08BED94E00E949D063D
:1028900068EE73E084EE94E00E94750568EE73E0E4
:1028A00081EE94E00E94750569E070E088EF94E0A5
:1028B0000E949D066AE070E085EF94E00E949D060C
:1028C000609102027091030288EF94E00E94AC05CF
:1028D000609100027091010285EF94E00E94AC05C6
:1028E0001092D2031092D1031092D4031092F603E7
:1028F00010923D0481E080933C041092370461E023
:1029000084E10E94CE0361E085E10E94CE038091C4
:10291000B9008E7F8093B9008091B9008D7F80933C
:10292000B90088E48093B80085E48093BC0082E617
:1029300092E09093AA038093A90383E692E0909398
:10294000A8038093A70360E089E10E94EC0160E0A6
:102950008AE10E94EC0168E08BE10E94EC0160E0FA
:102960008CE10E94EC0161E08BE60E94EC010E9488
:10297000EF0B10923F051092400510924105109206
:10298000420510924305109244051092450510929D
:10299000460580914B0590914C05A0914D05B09155
:1029A0004E058093570590935805A0935905B09311
:1029B0005A0580914F0590915005A0915105B09115
:1029C000520580935B0590935C05A0935D05B093E1
:1029D0005E050E94690560936705709368058093A2
:1029E000690590936A0568EE73E080E090E00E94CC
:1029F000380508EB1BE0C12CD12C760146015701AC
:102A000026013701809107059091080521E0209368
:102A1000D30338E63093F5031092D4031092F603F3
:102A2000DC01ED91FC910190F081E02D63E41995BA
:102A300080E00E948F0166E088E60E944D011092BE
:102A4000D2038093D1038091070590910805DC01A2
:102A5000ED91FC910284F385E02D1995382E80913B
:102A6000070590910805DC01ED91FC910284F38546
:102A7000E02D19953DAA1CAAECA9FDA9E82BF92B7C
:102A8000FBAFEAAF8091070590910805DC01ED915D
:102A9000FC910284F385E02D1995382E809107056D
:102AA00090910805DC01ED91FC910284F385E02D05
:102AB00019953FAA1EAAEEA9FFA9E82BF92BFDAF95
:102AC000ECAF8091070590910805DC01ED91FC9138
:102AD0000284F385E02D19958EAF809107059091C2
:102AE0000805DC01ED91FC910284F385E02D199538
:102AF0001C01EAADFBADBF01FF0F880B990B1AD586
:102B000020E030E043E852E44CD79B01AC01C30124
:102B1000B20181D62B013C012CAD3DADB901330F83
:102B2000880B990B07D520E030E043E852E439D711
:102B30009B01AC01C501B4016ED64B015C013EADF9
:102B400039AF18AE68AD79AD62297329072E000C34
:102B5000880B990BEFD420E030E043E852E421D712
:102B60009B01AC01C701B60156D66B017C01015037
:102B7000110909F047CF20E030E84BE355E4C301E9
:102B8000B2010FD76093170570931805809319054C
:102B900090931A0520E030E84BE355E4C501B401F9
:102BA00000D760931B0570931C0580931D059093BF
:102BB0001E0520E030E84BE355E4C701B601F1D62D
:102BC00060931F0570932005809321059093220543
:102BD00084E992E00E940B098AE992E00E940B09C5
:102BE0001E018EE2280E311CDE01D196BBABAAABD2
:102BF0007AE0472E512C612C712CE8EE8E2EE3E00A
:102C00009E2EA12CB12C8EE394E00E949502892B7C
:102C100009F415C38E01025D1F4F0E946905609380
:102C200046047093470480934804909349048EE3CC
:102C300094E00E94730297FF69C40E946905C090E6
:102C40004604D0904704E0904804F09049046C1981
:102C50007D098E099F09C0904204D0904304E09002
:102C60004404F09045046C157D058E059F05F8F22F
:102C70009FA5492F50E02EA5EFEFE20FEC3008F0B2
:102C8000BBC2F0E08827E95BF94E8F4F70C753163F
:102C90005C166A16701676167F16821689168E16C0
:102CA0009B18BA18F7180091040210E061E0C801FF
:102CB0000E94BE0861E008C00091040210E060E0DC
:102CC000C8010E94BE0860E0C8010E94B5080E94C9
:102CD000370399CF00910402069510E061E0F0CF30
:102CE00000910402069510E060E0E1CF61E090E021
:102CF00080E00E94BE0861E090E080E0E6CF909323
:102D00000402E5CF62E072E088EF94E00E94C80818
:102D1000DECF60E072E085EF94E0F8CFC92ED12CD1
:102D2000F12CE12C80910502823001F5E8E5F1E01B
:102D3000149117FDBAC182E00E941602112309F412
:102D4000EBC0123009F0F9C08091B100887F836038
:102D50008093B1002FEF3FEFA90109EFC114D10417
:102D6000E104F10409F4D7C109EFE5C08F3F09F090
:102D70009CC182E080930502E8E5F1E01491812F87
:102D80001F3F09F492C1123009F467C058F41123AF
:102D900071F1113009F443C087FD87C182E00E94C0
:102DA0001602CFCF143009F499C008F478C015305A
:102DB00099F71092200110922101809121018860E1
:102DC0008093210180912101816080932101E9EAB2
:102DD000F1E0E491F0E0EE0FFF1FE357FE4F859125
:102DE0009491EFEEF1E0E491E093AB03A4CF14BC37
:102DF00015BC84B5826084BD85B5816085BDE9EA76
:102E0000F1E0E491F0E0EE0FFF1FE357FE4F8591F4
:102E10009491EFEEF1E0E491E093AF038CCF109248
:102E200080001092810080918100886080938100F1
:102E300080918100816080938100E9EAF1E0E49172
:102E4000F0E0EE0FFF1FE357FE4F85919491EFEEF8
:102E5000F1E0E491E093AE036ECF1092B0001092D7
:102E6000B1008091B00082608093B0008091B10089
:102E700081608093B100E9EAF1E0E491F0E0EE0FC7
:102E8000FF1FE357FE4F859194919093CB0380935E
:102E9000CA03EFEEF1E0E491E093CC034CCF109243
:102EA0009000109291008091910088608093910031
:102EB00080919100816080939100E9EAF1E0E491D2
:102EC000F0E0EE0FFF1FE357FE4F85919491EFEE78
:102ED000F1E0E491E093AD0313E02DCF1092A00058
:102EE0001092A1008091A10088608093A100809140
:102EF000A10081608093A100E9EAF1E0E491F0E0B3
:102F0000EE0FFF1FE357FE4F85919491EFEEF1E036
:102F1000E491E093AC030FCF85B5887F836085BDD6
:102F20002FEF3FEFA9010CE7C114D104E104F10434
:102F300009F4E2C00CE71CAAA8C0113031F5809159
:102F40008100887F816080938100C114D104E104F5
:102F5000F10409F0B2C02FEF3FEFA9010FE38FE1B9
:102F60008CAB802F9CA9909389008093880020933C
:102F7000BC033093BD034093BE035093BF038091C5
:102F80006F00826080936F0090C0133031F58091A4
:102F90009100887F816080939100C114D104E10485
:102FA000F10409F08EC02FEF3FEFA9010FE39FE17D
:102FB0009CAB802F9CA990939900809398002093BC
:102FC000B8033093B9034093BA035093BB03809185
:102FD000710082608093710068C0143031F5809177
:102FE000A100887F81608093A100C114D104E10415
:102FF000F10409F06AC02FEF3FEFA9010FE3AFE141
:10300000ACAB802F9CA99093A9008093A80020933B
:10301000B4033093B5034093B6035093B703809144
:10302000720082608093720040C0153031F580914B
:103030002101887F816080932101C114D104E104C2
:10304000F10409F046C02FEF3FEFA9010FE3BFE104
:10305000BCAB802F9CA990932901809328012093D9
:10306000B0033093B1034093B2035093B303809104
:10307000730082608093730018C00FE3C114D10401
:10308000E104F10451F1EFE1ECABA0EDB7E0A701F1
:1030900096017FD3A50194018CD31230E1F11CF588
:1030A000112351F1113009F45CCFC701B6010E9420
:1030B000380582E00E94FB030ACE0FE3FFE1FCAB80
:1030C000E4CF0FE32FE12CABE0CF0FE33FE13CABCC
:1030D000DCCF0FE38FE18CABD8CF9FE19CAB2FEF20
:1030E0003FEFA901DACF143009F48BCF0CF461CF94
:1030F000153009F4AECFD9CF07BD2093C00330936C
:10310000C1034093C2035093C30380916E00826059
:1031100080936E00CACF0093B3002093CD03309309
:10312000CE034093CF035093D00380917000826010
:1031300080937000BACFEFE1F1E08491EAEFF1E023
:103140000491E4EBF1E01491112379F081110E94D4
:103150006703E12FF0E0EE0FFF1FED58FE4FA59142
:10316000B4918C91082360E009F461E08DE00E9445
:10317000CE03ADCD6EE774E084EE94E00E94750559
:103180006EE774E081EE94E00E94750568EC70E0F3
:1031900080E090E00E94380568E770E08EED94E0F2
:1031A0000E94AC0560E273E080E090E00E94380588
:1031B0006AE570E08EED94E00E94AC0560E971E094
:1031C00080E090E00E9438056AE570E08EED94E0C2
:1031D0000E94AC0568EE73E084EE94E00E947505F1
:1031E00068EE73E081EE94E00E94750570CD64ECAA
:1031F00073E08BED94E08ACD30E050E040E019A21E
:103200008E010F5D1F4FCA01B901A3019201D1D2F6
:10321000605DD8016E938D01211531054105510581
:1032200091F7109719F0CD010E940B098DE992E0FA
:103230000E940B098AE992E00E940B0948CD0E9486
:1032400069050091C6031091C7032091C80330910E
:10325000C903601B710B820B930B653F71408105A5
:10326000910508F434CD0E94EF0BEEE0F0E0EC0F96
:10327000FD1FFA83E983FC83EB833E822D8238862F
:103280002F828D8580788D87E091ED04F091EE049A
:1032900080819091E704892B8083E091E904F0918B
:1032A000EA0490818091E7048095892380838BE0F4
:1032B00090E00197F1F7E091E904F091EA04808150
:1032C0009091E704892B808383E290E00197F1F7E6
:1032D000E091E904F091EA0490818091E7048095FF
:1032E00089238083E091ED04F091EE049081809138
:1032F000E704809589238083E091EB04F091EC044E
:1033000080819091E804892309F491C010E000E0E5
:10331000AE014F5F5F4F61EB72E0CE0109960E94F4
:103320004F0F7C010097A9F0DC0114968C91149743
:103330008078886014968C93B80190E080E029E34F
:1033400030E040E050E035D2F70120833183428302
:103350005383C0902305D0902405E0902505F0907C
:103360002605AE014F5F5F4F66EB72E0CE01099616
:103370000E944F0FFC01892B41F0948190789C6052
:103380009483C082D182E282F382C0904B05D090B8
:103390004C05E0904D05F0904E05AE014F5F5F4F3C
:1033A0006BEB72E0CE0109960E944F0FFC01892B56
:1033B00041F0948190789C609483C082D182E282B3
:1033C000F382C0904F05D0905005E0905105F090E9
:1033D0005205AE014F5F5F4F61EC72E0CE0109967E
:1033E0000E944F0FFC01892B41F0948190789C60E2
:1033F0009483C082D182E282F3828EE394E09FA71D
:103400008EA719AA18AAB101CE0109960E946509D2
:103410008AE992E00E940B090E9469056093C60345
:103420007093C7038093C8039093C90350CC0E9444
:103430001305AB01BC018091EF049091F004B0E062
:10344000A0E08855994EAF4FBF4F840F951FA61F20
:10345000B71F8093F1049093F204A093F304B09308
:10346000F404E091EB04F091EC0480819091E80485
:10347000892381F40E9413050091F1041091F20454
:103480002091F3043091F404061717072807390731
:1034900040F73CCF0E9413052091EF043091F004D7
:1034A000620F731F811D911D6093F1047093F204EC
:1034B0008093F3049093F404E091EB04F091EC0416
:1034C00080819091E804892381F00E941305009186
:1034D000F1041091F2042091F3043091F4040617E2
:1034E00017072807390740F711CF0E9413050091ED
:1034F000EF041091F004055011092091F10430916E
:10350000F204021B130B060F171F02CF8132910525
:1035100009F4AECBF80181938F012AA93BA92E179C
:103520003F0709F07ACBA4CB40D008F481E008959E
:10353000E89409C097FB3EF490958095709561954D
:103540007F4F8F4F9F4F9923A9F0F92F96E9BB2703
:103550009395F695879577956795B795F111F8CF7F
:10356000FAF4BB0F11F460FF1BC06F5F7F4F8F4FEA
:103570009F4F16C0882311F096E911C0772321F0E0
:103580009EE8872F762F05C0662371F096E8862F78
:1035900070E060E02AF09A95660F771F881FDAF7CF
:1035A000880F9695879597F90895990F0008550FFC
:1035B000AA0BE0E8FEEF16161706E807F907C0F0B9
:1035C00012161306E407F50798F0621B730B840BC1
:1035D000950B39F40A2661F0232B242B252B21F49B
:1035E00008950A2609F4A140A6958FEF811D811D3B
:1035F00008950BD078C069D028F06ED018F09523CC
:1036000009F05AC05FC01124A2C07ED0A0F3959FDC
:10361000D1F3950F50E0551F629FF001729FBB27B9
:10362000F00DB11D639FAA27F00DB11DAA1F649F65
:103630006627B00DA11D661F829F2227B00DA11D18
:10364000621F739FB00DA11D621F839FA00D611D9E
:10365000221F749F3327A00D611D231F849F600DBF
:10366000211D822F762F6A2F11249F5750408AF0F8
:10367000E1F088234AF0EE0FFF1FBB1F661F771F84
:10368000881F91505040A9F79E3F510570F014C01B
:103690005EC05F3FECF3983EDCF3869577956795C7
:1036A000B795F795E7959F5FC1F7FE2B880F911DA2
:1036B0009695879597F9089597F99F6780E870E048
:1036C00060E008959FEF80EC089500240A94161698
:1036D000170618060906089500240A941216130600
:1036E000140605060895092E0394000C11F488238E
:1036F00052F0BB0F40F4BF2B11F460FF04C06F5FAA
:103700007F4F8F4F9F4F089557FD9058440F551F7F
:1037100059F05F3F71F04795880F97FB991F61F053
:103720009F3F79F087950895121613061406551FCA
:10373000F2CF4695F1DF08C0161617061806991F36
:10374000F1CF86957105610508940895E894BB272B
:1037500066277727CB0197F90895052E97FB16F476
:1037600000940FD057FD05D024D007FC02D046F4BA
:1037700008C050954095309521953F4F4F4F5F4F72
:10378000089590958095709561957F4F8F4F9F4FCD
:10379000089531D0A59F900DB49F900DA49F800DEA
:1037A000911D11240895B7FFF4CFF3DF821B930B13
:1037B0000895A1E21A2EAA1BBB1BFD010DC0AA1F72
:1037C000BB1FEE1FFF1FA217B307E407F50720F08A
:1037D000A21BB30BE40BF50B661F771F881F991F05
:1037E0001A9469F760957095809590959B01AC014E
:1037F000BD01CF010895A29FB001B39FC001A39F57
:10380000700D811D1124911DB29F700D811D112419
:10381000911D08955058BB27AA270ED064CF55DFBD
:1038200030F05ADF20F031F49F3F11F41EF44ACFFC
:103830000EF4E095E7FB40CFE92F66DF80F3BA177F
:10384000620773078407950718F071F49EF57ECF21
:103850000EF4E0950B2EBA2FA02D0B01B9019001AB
:103860000C01CA01A0011124FF27591B99F0593FEF
:1038700050F4503E68F11A16F040A22F232F342F37
:103880004427585FF3CF469537952795A795F04085
:103890005395C9F77EF41F16BA0B620B730B840B9A
:1038A000BAF09150A1F0FF0FBB1F661F771F881F52
:1038B000C2F70EC0BA0F621F731F841F48F48795AA
:1038C00077956795B795F7959E3F08F0B3CF939599
:1038D000880F08F09927EE0F979587950895F5DEE4
:1038E00058F080E891E009F49EEFF6DE28F040E819
:1038F00051E059F45EEF09C0E5CE28CFE92FE0781A
:1039000003DF68F3092E052AC1F326173707480796
:10391000590738F00E2E07F8E02569F0E025E0643D
:103920000AC0EF6307F8009407FADB01B9019D01B3
:10393000DC01CA01AD01EF9343D0D5DE0AD05F911F
:10394000552331F02BED3FE049E450FD49EC63CFC6
:103950000895DF93DD27B92FBF7740E85FE31616A0
:10396000170648075B0710F4D92FD8D09F938F9381
:103970007F936F93DAD0E4EEF0E0A7D0B4DE2F911E
:103980003F914F915F9141DEDD2349F09058A2EACB
:103990002AED3FE049EC5FE3D0785D274DDFDF9112
:1039A000A2CE0CD0A0CE98DE40F08FDE30F021F415
:1039B0005F3F19F081CE5111CACE84CEA5DE98F3B7
:1039C0009923C9F35523B1F3951B550BBB27AA27A0
:1039D00062177307840738F09F5F5F4F220F331F12
:1039E000441FAA1FA9F333D00E2E3AF0E0E830D0DE
:1039F00091505040E695001CCAF729D0FE2F27D0E1
:103A0000660F771F881FBB1F261737074807AB07AE
:103A1000B0E809F0BB0B802DBF01FF2793585F4F23
:103A20002AF09E3F510568F047CE91CE5F3FECF300
:103A3000983EDCF3869577956795B795F7959F5FE8
:103A4000C9F7880F911D9695879597F90895E1E03C
:103A5000660F771F881FBB1F621773078407BA079B
:103A600020F0621B730B840BBA0BEE1F88F7E095F6
:103A7000089552DE88F09F5790F0B92F9927B751DB
:103A8000A0F0D1F0660F771F881F991F1AF0BA9522
:103A9000C9F712C0B13081F059DEB1E0089556CEB9
:103AA000672F782F8827B85F39F0B93FCCF3869518
:103AB00077956795B395D9F73EF490958095709575
:103AC00061957F4F8F4F9F4F0895DF93CF931F9343
:103AD0000F93FF92EF92DF927B018C01689405C0F7
:103AE000DA2EEF0192DDFE01E894A5912591359142
:103AF00045915591AEF3EF019FDEFE019701A801BC
:103B0000DA9479F7DF90EF90FF900F911F91CF91AA
:103B1000DF9108954ADD08F48FEF08959B01AC0111
:103B200060E070E080E89FE33CCF9B01AC0161CD99
:103B3000991B79E004C0991F961708F0961B881FFF
:103B40007A95C9F78095089597FB072E16F400948F
:103B500006D077FD08D013D007FC05D03EF4909531
:103B600081959F4F0895709561957F4F0895EE0F51
:103B7000FF1F881F8BBF0790F691E02D1994AA1B99
:103B8000BB1B51E107C0AA1FBB1FA617B70710F048
:103B9000A61BB70B881F991F5A95A9F7809590957A
:103BA000BC01CD010895FB01DC018D9101908019CC
:0C3BB0000110D9F3990B0895F894FFCF91
:103BBC0001005A0096FF0000803FCDCCCC3D6F1227
:103BCC00833A95BFD6337D1D9026B3CE010CCDCC58
:103BDC00CC3D0AD7233C17B7D13877CC2B329595EF
:103BEC00E6241FB14F0A000020410000C8420040EB
:103BFC001C4620BCBE4CCA1B0E5AAEC59D740000A0
:103C0C000000CC023502640218039502730287028D
:103C1C0000000000E107B5070F088B07AE079B07F4
:103C2C008C0722225C5C6208660C6E0A720D7409A9
:103C3C00006E756C6C00652D0074727565006661A4
:103C4C006C7365007265616479000D0A0020636F06
:103C5C006D6D616E64206E6F7420666F756E64217D
:103C6C0000646973740074656D70007069746368C6
:063C7C0000726F6C6C0089
:020000023000CC
:10E000000D9489F10D94B2F10D94B2F10D94B2F129
:10E010000D94B2F10D94B2F10D94B2F10D94B2F1F0
:10E020000D94B2F10D94B2F10D94B2F10D94B2F1E0
:10E030000D94B2F10D94B2F10D94B2F10D94B2F1D0
:10E040000D94B2F10D94B2F10D94B2F10D94B2F1C0
:10E050000D94B2F10D94B2F10D94B2F10D94B2F1B0
:10E060000D94B2F10D94B2F10D94B2F10D94B2F1A0
:10E070000D94B2F10D94B2F10D94B2F10D94B2F190
:10E080000D94B2F10D94B2F10D94B2F10D94B2F180
:10E090000D94B2F10D94B2F10D94B2F10D94B2F170
:10E0A0000D94B2F10D94B2F10D94B2F10D94B2F160
:10E0B0000D94B2F10D94B2F10D94B2F10D94B2F150
:10E0C0000D94B2F10D94B2F10D94B2F10D94B2F140
:10E0D0000D94B2F10D94B2F10D94B2F10D94B2F130
:10E0E0000D94B2F141546D656761323536300041AF
:10E0F000726475696E6F206578706C6F72657220DE
:10E1000073746B3530305632206279204D4C530099
:10E11000426F6F746C6F616465723E004875683F52
:10E1200000436F6D70696C6564206F6E203D200048
:10E130004350552054797065202020203D20005FF9
:10E140005F4156525F415243485F5F3D2000415658
:10E1500052204C696243205665723D20004743437C
:10E160002056657273696F6E203D20004350552024
:10E1700049442020202020203D20004C6F7720663D
:10E18000757365202020203D20004869676820665F
:10E190007573652020203D200045787420667573D6
:10E1A00065202020203D20004C6F636B2066757336
:10E1B000652020203D20004D617220203720323024
:10E1C000313300312E362E3800342E332E350056A2
:10E1D00023202020414444522020206F7020636F70
:10E1E00064652020202020696E73747275637469E1
:10E1F0006F6E2061646472202020496E74657272B3
:10E20000757074006E6F20766563746F7200726A49
:10E210006D702020006A6D70200057686174207056
:10E220006F72743A00506F7274206E6F7420737541
:10E2300070706F72746564004D7573742062652030
:10E2400061206C6574746572002000577269747483
:10E25000696E672045450052656164696E672045B7
:10E26000450045452065727220636E743D00504F35
:10E27000525400303D5A65726F2061646472003FF1
:10E280003D43505520737461747300403D454550C3
:10E29000524F4D207465737400423D426C696E6B41
:10E2A000204C454400453D44756D70204545505215
:10E2B0004F4D00463D44756D7020464C415348001B
:10E2C000483D48656C70004C3D4C69737420492F83
:10E2D0004F20506F72747300513D51756974005234
:10E2E0003D44756D702052414D00563D73686F7707
:10E2F00020696E7465727275707420566563746FF0
:10E30000727300593D506F727420626C696E6B00BD
:10E310002A0011241FBECFEFD1E2DEBFCDBF01E046
:10E320000CBF12E0A0E0B2E0EEE1FDEF03E00BBFB6
:10E3300002C007900D92A030B107D9F712E0A0E01B
:10E34000B2E001C01D92AE30B107E1F70F9460F367
:10E350000D948DFE01E20EBF0FEF0DBF11241FBE05
:10E360000D9460F30D9400F020E030E040ED57E0B4
:10E3700005C0FA013197F1F72F5F3F4F2817390792
:10E38000C0F308959C01260F311DC901A0E0B0E043
:10E390002F5F3F4FABBFFC018791882361F08093D3
:10E3A000C6008091C00086FFFCCF8091C0008064D1
:10E3B0008093C000EACF08958DE08093C6008091DD
:10E3C000C00086FFFCCF8091C00080648093C000B5
:10E3D0008AE08093C6008091C00086FFFCCF8091C8
:10E3E000C00080648093C00008950F94C2F10F9420
:10E3F000DCF10895FC019081992359F09093C600B7
:10E400008091C00086FFFCCF8091C0008064809323
:10E41000C0003196992379F70895282F982F929567
:10E420009F70892F805D8A3308F0895F8093C600D2
:10E430008091C00086FFFCCF8091C00080648093F3
:10E44000C000822F8F70982F905D9A3308F0995FEB
:10E450009093C6008091C00086FFFCCF8091C000E1
:10E4600080648093C00008959C01FB01853691056E
:10E470001CF46330710594F0C90164E670E00F94F8
:10E480002EFE605D7F4F6093C6008091C00086FFC6
:10E49000FCCF8091C00080648093C0002B30310598
:10E4A00014F43297B4F0C90164E670E00F942EFEC4
:10E4B0006AE070E00F942EFE605D7F4F6093C600AF
:10E4C0008091C00086FFFCCF8091C0008064809363
:10E4D000C000C9016AE070E00F942EFEC0968093E0
:10E4E000C6008091C00086FFFCCF8091C000806490
:10E4F0008093C00008951F93182F8EE692EE60E07F
:10E500000F94C2F11093C6008091C00086FFFCCF2B
:10E510008091C00080648093C0000F94DCF11F9153
:10E5200008952F923F924F925F926F927F928F92B7
:10E530009F92AF92BF92CF92DF92EF92FF920F9392
:10E540001F93DF93CF93CDB7DEB762970FB6F894E2
:10E55000DEBF0FBECDBF382E622ECA01DB015C01CB
:10E560006D01772420E2222E2E010894411C511CBB
:10E570008BC081E0A81680E0B80681E0C80680E084
:10E58000D80628F0C601AA27BB270F940DF2BB2797
:10E59000AD2D9C2D8B2D0F940DF28A2D0F940DF225
:10E5A0002092C6008091C00086FFFCCF8091C00001
:10E5B00080648093C0009DE29093C6008091C0006B
:10E5C00086FFFCCF8091C00080648093C0002092C1
:10E5D000C6008091C00086FFFCCF8091C00080649F
:10E5E0008093C00019828601750188249924A1E0D6
:10E5F0003A1651F03A1620F0B2E03B1661F409C029
:10E600000BBFF701779007C0C7010F9477FE782EF4
:10E6100002C0F7017080872D0F940DF22092C60082
:10E620008091C00086FFFCCF8091C0008064809301
:10E63000C000872D8052F401EF70F0708F3520F408
:10E64000E40DF51D708204C0E40DF51D8EE280839B
:10E650000894E11CF11C011D111D0894811C911CE2
:10E6600090E18916910409F0C2CF80E190E0A0E02A
:10E67000B0E0A80EB91ECA1EDB1E198AC2010F9493
:10E68000FAF10F94DCF16A94662009F072CF629679
:10E690000FB6F894DEBF0FBECDBFCF91DF911F91B3
:10E6A0000F91FF90EF90DF90CF90BF90AF909F9031
:10E6B0008F907F906F905F904F903F902F90089534
:10E6C0002F923F924F925F926F927F928F929F9282
:10E6D000AF92BF92CF92DF92EF92FF920F931F9370
:10E6E000DF93CF93CDB7DEB7CD53D1400FB6F894BB
:10E6F000DEBF0FBECDBF01E20EBF0FEF0DBF94B75F
:10E70000F894A89514BE80916000886180936000A1
:10E7100010926000789493FF05C0E0910002F091A0
:10E7200001021995279A2F9A8091C00082608093E8
:10E73000C00080E18093C40088E18093C1000000A4
:10E74000EE24FF24870144E0A42EB12CCC24DD2448
:10E7500024C0C5010197F1F70894E11CF11C011DCB
:10E76000111D21E2E2162EE4F20620E0020720E06D
:10E77000120718F031E0C32ED12CC801B70127ECE5
:10E780003BE140E050E00F9441FE611571058105C9
:10E79000910519F485B1805885B98091C00087FD35
:10E7A00003C0C114D104A9F2A6014F5F5F4FC25E3E
:10E7B000DE4F59834883CE51D140C25EDE4F8881FF
:10E7C0009981CE51D140019711F00D9410FEC05D9A
:10E7D000DE4F19821882C053D14060E0C15DDE4F28
:10E7E0001882CF52D14088249924C35DDE4F19820C
:10E7F0001882CD52D140C05EDE4F188219821A8233
:10E800001B82C052D140CE5CDE4F188219821A8220
:10E810001B82C253D140EE24FF2487010BBFF701B6
:10E8200007911691C45CDE4F19830883CC53D14005
:10E830000D940BFEC25EDE4F28813981CE51D1404E
:10E840002130310509F52091C600C25EDE4F1982E4
:10E850001882CE51D14022C02F5F3F4F4F4F5F4FA4
:10E86000213082E138078AE7480780E0580780F0C6
:10E87000C45CDE4FE881F981CC53D140EF5FFF4F9C
:10E8800019F0EE27FF27099420E030E040E050E047
:10E890008091C00087FFE0CF2091C600C35DDE4FAE
:10E8A00048815981CD52D1404F5F5F4FC35DDE4FEC
:10E8B00059834883CD52D140213209F063C64A3092
:10E8C000510508F05FC60894811C911C53E0851621
:10E8D000910409F059C600E010E018C081E280936D
:10E8E000C6008091C00086FFFCCF8091C00080648C
:10E8F0008093C0002F5F3F4F2931310579F70F9486
:10E90000DCF10F5F1F4F0530110519F020E030E0FA
:10E91000E5CF10920A0210920B0210920C02109294
:10E920000D02109206021092070210920802109235
:10E930000902109202021092030210920402109235
:10E9400005028FEE90EE60E00F94F5F180E191EE1C
:10E9500060E00F94C2F18091C00087FFFCCF9091DE
:10E96000C600903608F09F759032B8F09093C600BC
:10E970008091C00086FFFCCF8091C00080648093AE
:10E98000C000A0E2A093C6008091C00086FFFCCF2B
:10E990008091C00080648093C000983409F4D7C18E
:10E9A0009934B8F4923409F459C1933458F490333B
:10E9B00019F1903308F4E3C59F33A1F1903409F0C5
:10E9C000DEC5BDC0953409F470C1963409F0D7C5D1
:10E9D00098C1923509F42BC2933538F49C3409F46C
:10E9E000F5C1913509F0CBC518C2963509F445C279
:10E9F000993509F0C4C567C483E792EE62E00F94CD
:10EA0000F5F110920602109207021092080210927D
:10EA1000090210920A0210920B0210920C0210923C
:10EA20000D0213C18FE792EE62E00F94F5F18FEEC5
:10EA300090EE60E00F94F5F181E291EE60E00F94CA
:10EA4000C2F187EB91EE60E00F94F5F180E391EE77
:10EA500060E00F94C2F184EE90EE60E00F94F5F167
:10EA60008FE391EE60E00F94C2F186E090E061E008
:10EA700070E00F9434F20F94DCF18DE591EE60E0DC
:10EA80000F94C2F189EC91EE60E00F94F5F18EE401
:10EA900091EE60E00F94C2F183EC91EE60E00F9490
:10EAA000F5F18CE691EE60E00F94C2F18EE10F94E7
:10EAB0000DF288E90F940DF281E00F940DF20F949E
:10EAC000DCF18BE791EE60E00F94C2F119E0E0E039
:10EAD000F0E010935700E4918E2F0F940DF20F94F5
:10EAE000DCF18AE891EE60E00F94C2F1E3E0F0E03F
:10EAF00010935700E4918E2F0F940DF20F94DCF1D8
:10EB000089E991EE60E00F94C2F1E2E0F0E0109349
:10EB10005700E4918E2F0F940DF20F94DCF188EAE8
:10EB200091EE60E00F94C2F1E1E0F0E01093570045
:10EB30001491812F0F940DF20F94DCF107CF8BE825
:10EB400092EE62E00F94F5F18BE492EE60E00F94A8
:10EB5000F5F10F94DCF100E010E019C0C8016F2D51
:10EB60000F947FFEFF2031F489E492EE60E00F9471
:10EB7000C2F10BC0F092C6008091C00086FFFCCFAE
:10EB80008091C00080648093C0000F5F1F4FC80158
:10EB900081519F41A0E0B0E0ABBFFC01F790BAE229
:10EBA000FB1621F0E2E000301E07C1F60F94DCF105
:10EBB0000F94DCF187E592EE60E00F94F5F10F948D
:10EBC000DCF1CC24DD2400E010E01EC0C8010F946D
:10EBD00077FEF82E882331F489E492EE60E00F94FA
:10EBE000C2F10BC08093C6008091C00086FFFCCFAD
:10EBF0008091C00080648093C000FE1419F00894D6
:10EC0000C11CD11C0F5F1F4FC80181519F41A0E063
:10EC1000B0E0ABBFFC01E790FAE2EF1621F022E092
:10EC20000030120799F60F94DCF10F94DCF182E6C4
:10EC300092EE60E00F94C2F1C60161E070E00F94C3
:10EC400034F20F94DCF10F94DCF110920202109276
:10EC50000302109204021092050278CE89E992EE26
:10EC600062E00F94F5F1279A2F9A16C02F9880E052
:10EC700090E0E0EDF7E03197F1F7019684369105E9
:10EC8000C1F72F9A80E090E0E0EDF7E03197F1F7DF
:10EC9000019684369105C1F78091C00087FFE6CFC9
:10ECA0008091C00087FFFCCF64C485EA92EE62E0E9
:10ECB0000F94F5F140910202509103026091040219
:10ECC0007091050281E020E10F9491F2809102029F
:10ECD00090910302A0910402B091050280509F4FD1
:10ECE000AF4FBF4F8093020290930302A0930402A0
:10ECF000B093050280509041A040B04008F426CE69
:10ED0000A4CF83EB92EE62E00F94F5F140910602FE
:10ED100050910702609108027091090280E020E1A1
:10ED20000F9491F28091060290910702A09108023F
:10ED3000B091090280509F4FAF4FBF4F80930602A2
:10ED400090930702A0930802B0930902FFCD80ECD4
:10ED500092EE62E00F94F5F183E792EE60E00F949B
:10ED6000F5F18FE792EE60E00F94F5F18BE892EE0B
:10ED700060E00F94F5F189E992EE60E00F94F5F10F
:10ED800085EA92EE60E00F94F5F183EB92EE60E09D
:10ED90000F94F5F180EC92EE60E00F94F5F187ECC2
:10EDA00092EE60E00F94F5F188ED92EE60E00F9442
:10EDB000F5F18FED92EE60E00F94F5F18AEE92EEB0
:10EDC00060E00F94F5F183E093EEBDCD87EC92EE19
:10EDD00062E00F94F5F181E40F947BF282E40F94EA
:10EDE0007BF283E40F947BF284E40F947BF285E45E
:10EDF0000F947BF286E40F947BF287E40F947BF20E
:10EE000088E40F947BF28AE40F947BF28BE40F94F6
:10EE10007BF28CE40F947BF299CD88ED92EE62E068
:10EE20000F94F5F1772473948824992409C48FED05
:10EE300092EE62E00F94F5F140910A0250910B02BC
:10EE400060910C0270910D0282E020E10F9491F22A
:10EE500080910A0290910B02A0910C02B0910D02D8
:10EE600080509F4FAF4FBF4F80930A0290930B0289
:10EE7000A0930C02B0930D0269CD8AEE92EE62E08F
:10EE80000F94F5F184EE90EE60E00F94F5F18FECC5
:10EE900091EE60E00F94F5F1662477244301CC5D98
:10EEA000DE4F19821882C452D140D401C301B695F5
:10EEB000A79597958795CA5DDE4F88839983AA8326
:10EEC000BB83C652D140CC5DDE4FA881B981C4520C
:10EED000D1401196CC5DDE4FB983A883C452D14096
:10EEE000CD0162E070E00F9434F2B0E2B093C6005E
:10EEF0008091C00086FFFCCF8091C0008064809329
:10EF0000C000EDE2E093C6008091C00086FFFCCF18
:10EF10008091C00080648093C000F0E2F093C6004E
:10EF20008091C00086FFFCCF8091C00080648093F8
:10EF3000C000CA5DDE4FE880F9800A811B81C6529D
:10EF4000D140BB27A12F902F8F2D0F940DF2CA5DBA
:10EF5000DE4F8881C652D1400F940DF2B0E2FB2EF5
:10EF6000F092C6008091C00086FFFCCF8091C00067
:10EF700080648093C0000DE30093C6008091C000C0
:10EF800086FFFCCF8091C00080648093C00010E2B7
:10EF90001093C6008091C00086FFFCCF8091C00016
:10EFA00080648093C0008BBEF3012791C65DDE4F65
:10EFB0002883CA52D140A22EBB24CC24DD2408943D
:10EFC000611C711C811C911C8BBEF3018791282E42
:10EFD0003324442455240894611C711C811C911C09
:10EFE0008BBEF3013791C55DDE4F3883CB52D140E4
:10EFF0000894611C711C811C911C8BBEF30147910C
:10F00000C45DDE4F4883CC52D140ADEFEA2EAFEF66
:10F01000FA2EAFEF0A2FAFEF1A2F6E0C7F1C801E57
:10F02000911E142D032DF22CEE24EA0CFB1C0C1D5A
:10F030001D1D0F940DF220E22093C6008091C000A8
:10F0400086FFFCCF8091C00080648093C000C65DC5
:10F05000DE4F8881CA52D1400F940DF230E23093D6
:10F06000C6008091C00086FFFCCF8091C000806404
:10F070008093C000C45DDE4F8881CC52D1400F9494
:10F080000DF240E24093C6008091C00086FFFCCFA5
:10F090008091C00080648093C000C55DDE4F888190
:10F0A000CB52D1400F940DF250E25093C6008091A4
:10F0B000C00086FFFCCF8091C00080648093C000B8
:10F0C0008FEFE8168FEFF80680E0080780E018075A
:10F0D00031F484E092EE60E00F94C2F1DFC0D80119
:10F0E000C7018070907CA070B0708050904CA040A0
:10F0F000B040D1F52FEF3FE340E050E0E222F322B1
:10F1000004231523CA5DDE4FA880B980CA80DB8046
:10F11000C652D140AE0CBF1CC01ED11EAA0CBB1CD7
:10F12000CC1CDD1C8EE092EE60E00F94C2F1BB2798
:10F13000A12F902F8F2D0F940DF28E2D0F940DF285
:10F1400030E23093C6008091C00086FFFCCF8091F2
:10F15000C00080648093C0004EE34093C60080915D
:10F16000C00086FFFCCF87C08EE09EEFA0E0B0E03D
:10F17000E822F9220A231B239CE0E91694E9F90608
:10F1800090E0090790E0190709F088C0C45DDE4FE0
:10F19000A881CC52D140EA2EFF2400E010E0102FCD
:10F1A0000F2DFE2CEE24C55DDE4FB881CB52D14031
:10F1B000EB0EF11C011D111DD601C501817090706F
:10F1C000A070B070DC0199278827E80EF91E0A1F8D
:10F1D0001B1F20EF30E040E050E0A222B322C42207
:10F1E000D52241E1AA0CBB1CCC1CDD1C4A95D1F7F1
:10F1F000EA0CFB1C0C1D1D1D81E090E0A0E0B0E0BE
:10F20000282239224A225B2235E1220C331C441C7D
:10F21000551C3A95D1F7E20CF31C041D151D57013E
:10F220006801AA0CBB1CCC1CDD1C85E192EE60E0E1
:10F230000F94C2F1C801AA27BB270F940DF2BB2778
:10F24000A12F902F8F2D0F940DF28E2D0F940DF274
:10F2500090E29093C6008091C00086FFFCCF809121
:10F26000C00080648093C000AEE3A093C60080918C
:10F27000C00086FFFCCF8091C00080648093C000F6
:10F28000C601AA27BB270F940DF2BB27AD2D9C2DDD
:10F290008B2D0F940DF28A2D0F940DF20F94DCF14B
:10F2A000CC5DDE4FE881F981C452D140F99709F471
:10F2B0004DCBF4E0EF2EF12C012D112D6E0C7F1CA7
:10F2C000801E911EF2CD83E093EE62E00F94F5F183
:10F2D0008AE192EE60E00F94C2F18091C00087FF56
:10F2E000FCCF1091C6001F751093C6008091C0001E
:10F2F00086FFFCCF8091C00080648093C0000F9493
:10F30000DCF1812F81548A3108F036C1163409F4BA
:10F3100095C0173490F4133409F44EC0143430F40B
:10F320001134F1F0123409F01DC130C0143409F465
:10F3300059C0153409F016C16BC01A3409F4C4C0A1
:10F340001B3438F4173409F48FC0183409F00AC19B
:10F35000A1C01B3409F4D2C01C3409F003C1E8C0B9
:10F360008FEF81B90DC082B1809582B980E090E0C5
:10F37000E0EDF7E03197F1F70196883C9105C1F790
:10F380008091C00087FFEFCF12B8EFC08FEF84B934
:10F390000DC085B1809585B980E090E0E0EDF7E0A3
:10F3A0003197F1F70196883C9105C1F78091C00033
:10F3B00087FFEFCF15B8D9C08FEF87B90DC088B1DF
:10F3C000809588B980E090E0E0EDF7E03197F1F7C3
:10F3D0000196883C9105C1F78091C00087FFEFCF6F
:10F3E00018B8C3C08FEF8AB90DC08BB180958BB9A7
:10F3F00080E090E0E0EDF7E03197F1F70196883C8E
:10F400009105C1F78091C00087FFEFCF1BB8ADC059
:10F410008FEF8DB90DC08EB180958EB980E090E0F0
:10F42000E0EDF7E03197F1F70196883C9105C1F7DF
:10F430008091C00087FFEFCF1EB897C08FEF80BBD1
:10F440000DC081B3809581BB80E090E0E0EDF7E0F6
:10F450003197F1F70196883C9105C1F78091C00082
:10F4600087FFEFCF11BA81C08FEF83BB0DC084B38C
:10F47000809584BB80E090E0E0EDF7E03197F1F714
:10F480000196883C9105C1F78091C00087FFEFCFBE
:10F4900014BA6BC08FEF809301010FC080910201FD
:10F4A00080958093020180E090E0E0EDF7E03197F5
:10F4B000F1F70196883C9105C1F78091C00087FF64
:10F4C000EDCF1092020151C08FEF809304010FC065
:10F4D0008091050180958093050180E090E0E0ED4A
:10F4E000F7E03197F1F70196883C9105C1F78091DB
:10F4F000C00087FFEDCF1092050137C08FEF8093DA
:10F5000007010FC08091080180958093080180E079
:10F5100090E0E0EDF7E03197F1F70196883C910536
:10F52000C1F78091C00087FFEDCF109208011DC088
:10F530008FEF80930A010FC080910B01809580931B
:10F540000B0180E090E0E0EDF7E03197F1F70196F4
:10F55000883C9105C1F78091C00087FFEDCF1092E4
:10F560000B0103C085E292EEEEC98091C00087FFD7
:10F57000FCCF8091C600EAC988E392EEE4C98CE131
:10F5800091EEE1C988249924933011F1943028F444
:10F59000913089F09230B8F408C0953061F195301F
:10F5A000F0F0963009F048C043C02B3109F042C951
:10F5B00091E06BE13FC96227C15DDE4F2883CF52E6
:10F5C000D14092E037C9B22FA0E0622793E032C960
:10F5D000822F90E0A82BB92B622794E02BC92E3004
:10F5E00009F039C3622795E0C05DDE4F19821882A9
:10F5F000C053D1401FC9E1E0F0E0EC0FFD1FC05D3A
:10F60000DE4F08811981C053D140E00FF11F2083E4
:10F610000F5F1F4FC05DDE4F19830883C053D14079
:10F6200062270A171B0709F005C9D80196E002C92D
:10F63000261709F010C303C0973009F0FBC87724E0
:10F640009981933109F412C19431C8F4963009F4C8
:10F65000D8C0973050F4923009F406C1933009F4C1
:10F660006DC0913009F059C253C0913109F477C08F
:10F67000923108F0BBC0903109F04FC2F5C098310B
:10F6800009F487C0993150F4953109F4EFC09531F0
:10F6900008F4C6C1963109F040C2C2C19A3109F4DA
:10F6A0006CC09A3108F491C09B3109F45BC09D3164
:10F6B00009F033C29D81903359F48F81882311F46E
:10F6C0009EE11CC0813011F091E018C098E916C08D
:10F6D000892F807591F0903539F4E0E0F0E089E011
:10F6E0008093570094910AC0983539F4E3E0F0E034
:10F6F00089E080935700949101C090E01A821B82A8
:10F700008D818C831D829E831F8227E030E009C299
:10F710001A8288E08B8381E48C8386E58D8382E581
:10F720008E8389E48F8383E5888780E589878FE5E9
:10F730008A8782E38B872BE030E0F3C18A818139AD
:10F7400041F0823941F0803911F48FE005C080E04A
:10F7500003C082E001C08AE01A828B8344C0772410
:10F76000739482C08D81882311F48EE12CC0813086
:10F7700011F081E028C088E926C01A82E1E0F0E0BB
:10F7800089E08093570084918B831C8224E030E0D1
:10F79000C8C18B81803589F48C81883039F4E2E0EE
:10F7A000F0E089E08093570084910DC0E0E0F0E044
:10F7B00089E080935700849106C0E3E0F0E089E09F
:10F7C0008093570084911A82DFCF8D81836C99E0FA
:10F7D000E1E0F0E0082E90935700E89507B600FCB2
:10F7E000FDCF1A821B8223E030E09BC180EC8A832C
:10F7F000CE5CDE4F188219821A821B82C253D1401E
:10F800008EC18A8190E0A0E0B0E0582F44273327D2
:10F8100022278B8190E0A0E0B0E0DC0199278827C7
:10F82000282B392B4A2B5B2B8D8190E0A0E0B0E098
:10F83000282B392B4A2B5B2B8C8190E0A0E0B0E089
:10F84000BA2FA92F982F8827282B392B4A2B5B2BCF
:10F85000220F331F441F551FC05EDE4F288339839C
:10F860004A835B83C052D1401A8259C13A81C95C34
:10F87000DE4F3883C753D140CA5CDE4F1882C6536F
:10F88000D1408B81C82EDD24CA5CDE4F488159816E
:10F89000C653D140C42AD52A933109F082C0CE5C28
:10F8A000DE4F88819981AA81BB81C253D1408050AB
:10F8B000904CA340B04030F583E0CE5CDE4FE88052
:10F8C000F9800A811B81C253D140F70100935B008C
:10F8D00080935700E89507B600FCFDCFCE5CDE4F65
:10F8E000088119812A813B81C253D14000501F4FAA
:10F8F0002F4F3F4FCE5CDE4F088319832A833B8313
:10F90000C253D140C05EDE4F488159816A817B81FC
:10F91000C052D140DE011B9631E08C9111962C91A2
:10F9200011971296C75CDE4F2883C953D140C85C3B
:10F93000DE4F1882C853D14090E0C85CDE4FE881AA
:10F94000F981C853D1408E2B9F2B0C01FA01609393
:10F950005B0030935700E89511244E5F5F4F6F4F67
:10F960007F4F0EEFE02E0FEFF02ECE0CDF1CC114F8
:10F97000D10499F685E0C05EDE4F088119812A81A5
:10F980003B81C052D140F80120935B008093570027
:10F99000E89507B600FCFDCF81E180935700E8951C
:10F9A00035C0C05EDE4F88819981AA81BB81C0527B
:10F9B000D140B695A795979587957C018601ABE0D8
:10F9C000AA2EB12CAC0EBD1E0BC0D5016D915D01F0
:10F9D000C7010F947FFE0894E11CF11C01501040F8
:10F9E0000115110591F7A60160E070E0440F551F65
:10F9F000661F771FC05EDE4FE880F9800A811B8199
:10FA0000C052D1404E0D5F1D601F711F1A82C05E33
:10FA1000DE4F488359836A837B83C052D1407FC0C5
:10FA2000FA80C55CDE4FF882CB53D140C65CDE4F16
:10FA30001882CA53D1408B81C82EDD24C65CDE4FAC
:10FA400008811981CA53D140C02AD12A1A828981DA
:10FA5000BE016D5F7F4F843121F59601C05EDE4FA0
:10FA6000E880F9800A811B81C052D1400BBFF701A9
:10FA700087919691DB018C9311969C936E5F7F4FDB
:10FA8000D801C7010296A11DB11DC05EDE4F88835B
:10FA90009983AA83BB83C052D14022503040F1F6F3
:10FAA00036C0C05EDE4F288139814A815B81C052F9
:10FAB000D1400894C108D108760100E010E0089414
:10FAC000C11CD11C0894E11CF11C011D111DE20E8A
:10FAD000F31E041F151F21BDBB27A52F942F832FB5
:10FAE00082BD2F5F3F4F4F4F5F4FF89A80B5DB01CC
:10FAF0008D93BD012E153F054007510761F7C05E8C
:10FB0000DE4F288339834A835B83C052D1409601FC
:10FB10002D5F3F4FFB01108204C080EC8A8322E0FE
:10FB200030E08BE18093C6008091C00086FFFCCF5F
:10FB30008091C00080648093C000C15DDE4FF88179
:10FB4000CF52D140F093C6008091C00086FFFCCF19
:10FB50008091C00080648093C000432F3093C60022
:10FB60008091C00086FFFCCF8091C00080648093AC
:10FB7000C000922F2093C6008091C00086FFFCCF6A
:10FB80008091C00080648093C0008EE08093C600A6
:10FB90008091C00086FFFCCF8091C000806480937C
:10FBA000C00065E1C15DDE4FE880CF52D1406E25D7
:10FBB00069276427FE01319610C090819093C6009A
:10FBC0008091C00086FFFCCF31968091C000806498
:10FBD0008093C0006927215030402115310569F715
:10FBE0006093C6008091C00086FFFCCF8091C0006A
:10FBF00080648093C00085B1805885B9772081F4F6
:10FC0000C15DDE4F0881CF52D1400F5FC15DDE4F35
:10FC10000883CF52D14090E0A0E0B0E00D941AF4F8
:10FC200027982F9880E090E020ED37E0F901319798
:10FC3000F1F7019684369105C9F700008091C00064
:10FC40008D7F8093C00081E180935700E895EE2777
:10FC5000FF270994FFCF90E00D941AF497FB092E2B
:10FC600007260AD077FD04D02ED006D000201AF443
:10FC7000709561957F4F0895F6F7909581959F4F08
:10FC80000895A1E21A2EAA1BBB1BFD010DC0AA1FDD
:10FC9000BB1FEE1FFF1FA217B307E407F50720F0F5
:10FCA000A21BB30BE40BF50B661F771F881F991F70
:10FCB0001A9469F760957095809590959B01AC01B9
:10FCC000BD01CF010895AA1BBB1B51E107C0AA1FAC
:10FCD000BB1FA617B70710F0A61BB70B881F991FED
:10FCE0005A95A9F780959095BC01CD010895F99991
:10FCF000FECF92BD81BDF89A992780B50895262F31
:10FD0000F999FECF1FBA92BD81BD20BD0FB6F89400
:0EFD1000FA9AF99A0FBE01960895F894FFCF63
:040000033000E000E9
:00000001FF