:100000000C94EB000C9413010C9413010C94130149
:100010000C9413010C9413010C9413010C94130110
:100020000C9413010C9413010C940F110C947E1179
:100030000C9413010C9413010C9413010C941301F0
:100040000C9413010C9413010C9413010C941301E0
:100050000C9413010C9413010C9413010C9463146D
:100060000C9413010C9431140C940B140C94130184
:100070000C9413010C9413010C9413010C941301B0
:100080000C94B0130C9413010C9413010C941301F1
:100090000C94AD140C9413010C9413010C941301E3
:1000A0000C9413010C9413010C941301084AD73BD0
:1000B0003BCE016E84BCBFFDC12F3D6C74319ABD37
:1000C00056833DDA3D00C77F11BED9E4BB4C3E915B
:1000D0006BAAAABE000000803F00030000000200DF
:1000E000090F0000030401000C00000000000000E4
:1000F00000000000000000000000080B00020202E7
:1001000001000904000001020200000524001001A2
:100110000524010101042402060524060001070547
:10012000810310004009040100020A0000000705D5
:100130000202400000070583024000000403090496
:1001400012010002EF020140412337800001010249
:10015000030141726475696E6F204C4C430041721B
:100160006475696E6F204D6963726F000000000056
:10017000240027002A002D0030000000000023008A
:10018000260029002C002F00000000002500280078
:100190002B002E00310004040404040304050202B1
:1001A0000202040302020202060606060606040410
:1001B00002020204040408020110408040102040A2
:1001C000804080080204018040201002011080104D
:1001D00020404020CC1511241FBECFEFDAE0DEBF57
:1001E000CDBF11E0A0E0B1E0E2EEF1E402C0059085
:1001F0000D92A83FB107D9F724E0A8EFB1E001C004
:100200001D92A636B207E1F710E0CBEED0E004C0B5
:100210002197FE010E94CC20CA3ED107C9F70E9457
:1002200077160C94EF200C940000982F2091EB028D
:1002300081E0213208F043C08091C7028111FCCFD8
:100240008091EA0232E03093C7029093C6029FEF9A
:100250009093C5021092C4022093C302AAECB2E0AC
:10026000E3EAF2E090E0291331C01092A2029091EB
:10027000A202880F892B8093A2028091A102813073
:1002800049F51092A1028091A2028093BB00809157
:10029000BC0083FDF8CF85EC8093BC008091C70241
:1002A0008230E1F38091C5028F3FB1F08091C502A9
:1002B0008032A1F08091C502803391F084E01092E9
:1002C000C9021092EB021092C80208953D91319339
:1002D0009F5FC9CF85EEE0CF80E0F1CF82E0EFCF26
:1002E00083E0EDCF9091C7029111FCCF91E0909304
:1002F000C7029093C6022FEF2093C5021092C4024A
:10030000260F2093C3029093A2029091A202880F1D
:10031000892B8093A2028091A1028130F9F410927E
:10032000A1028091A2028093BB008091BC0083FD5A
:10033000F8CF85EC8093BC008091C7028130E1F357
:100340008091C402861710F46091C402A3EAB2E05F
:10035000E1E8F2E080E0861303C0089585EEEACF7D
:100360009D9191938F5FF7CF0895089590E0FC01E0
:10037000EB54FE4F24918A569E4FFC0184918823B2
:1003800099F090E0880F991FFC01E459FE4FA59168
:10039000B491FC01E857FE4F859194918FB7F89482
:1003A000EC91E22BEC938FBF0895FC0180917A02CF
:1003B000882311F13FB7F89482E08093E9002091FF
:1003C000F200822F90E01816190614F481E090E0F4
:1003D000882339F0289A44E6409379024091F1004D
:1003E0004083222339F02091F200211103C02BE633
:1003F0002093E8003FBF08958FEF9FEF08952FB738
:10040000F89483E08093E9009091E800892F80724E
:1004100095FF04C09091F20080E4891B2FBF0895DE
:100420008091710281110DC082E080936D0284E0A1
:1004300080936E021092700210926F0281E080939E
:1004400071028DE692E00895409167025091680232
:10045000209165023091660242175307B4F49091DF
:10046000E8009570E1F39091E80092FD19C0809347
:10047000F100809167029091680201968F7399272D
:10048000892B19F48EEF8093E80080916702909198
:1004900068020196909368028093670281E0089554
:1004A00080E00895EF92FF920F931F93CF93DF9315
:1004B000F82E192FE62E042F81E0860F880F0E9458
:1004C000240283E00E942402CF2DD12FEC0EFD2EBA
:1004D000F11CCE15DF05B9F007FF13C0FE018491B2
:1004E0000E942402182F80E00E942402812321967A
:1004F0008111EFCFDF91CF911F910F91FF90EF907E
:1005000008958881EDCF81E0F5CFDF92EF92FF92E1
:100510000F931F93CF93DF93D82E8A01EB017B01BA
:10052000E40EF51ECE15DF0559F0D7FE12C0FE0110
:1005300084910E94240221968111F4CF0FEF1FEFC6
:10054000C801DF91CF911F910F91FF90EF90DF9045
:1005500008958881EECF0F931F93CF93DF931F925F
:10056000CDB7DEB782E0898342E450E06AEF70E005
:1005700080E80E9485020E941002DC0112960D9113
:100580001C910115110589F0D801ED91FC910280B3
:10059000F381E02DBE016F5F7F4FC801099597FD84
:1005A00004C0F80100851185ECCF89810F90DF919F
:1005B000CF911F910F910895615030F02091F1007B
:1005C000FC0120830196F8CF289A84E68093790273
:1005D0000895AF92BF92CF92DF92EF92FF920F9366
:1005E0001F93CF93DF936C017B018B01040F151FC9
:1005F000EB015E01AE18BF08C017D10759F0699131
:10060000D601ED91FC910190F081E02DC601099594
:10061000892B79F7C501DF91CF911F910F91FF9041
:10062000EF90DF90CF90BF90AF900895FC01538D75
:10063000448D252F30E0842F90E0821B930B5417BC
:1006400010F0CF96089501970895FC01918D828D49
:10065000981761F0A28DAE0FBF2FB11D5D968C91E2
:10066000928D9F5F9F73928F90E008958FEF9FEF21
:100670000895FC01918D828D981731F0828DE80FDD
:10068000F11D858D90E008958FEF9FEF0895FC0197
:10069000918D228D892F90E0805C9F4F821B910964
:1006A0008F73992708958CEE92E00E94470321E012
:1006B000892B09F420E0822F089580E090E0892BB7
:1006C00029F00E94530381110C9400000895FC014D
:1006D000A48DA80FB92FB11DA35ABF4F2C91848DA3
:1006E00090E001968F739927848FA689B7892C9300
:1006F000A089B1898C9182748C93938D848D981389
:1007000006C00288F389E02D80818F7D8083089563
:10071000EF92FF920F931F93CF93DF93EC0181E051
:10072000888F9B8D8C8D981319C0E889F9898081F9
:1007300085FF14C09FB7F894EE89FF896083E8892C
:10074000F9898081827480839FBF81E090E0DF918E
:10075000CF911F910F91FF90EF900895F62E0B8D82
:1007600010E00F5F1F4F0F731127E02E8C8D8E113D
:100770000CC00FB607FCFACFE889F989808185FFA4
:10078000F5CFCE010E946703F1CFEB8DEC0FFD2F6B
:10079000F11DE35AFF4FF0829FB7F8940B8FEA895F
:1007A000FB8980818062CFCFCF93DF93EC01888D6E
:1007B0008823B9F0AA89BB89E889F9898C9185FDDC
:1007C00003C0808186FD0DC00FB607FCF7CF8C916A
:1007D00085FFF2CF808185FFEDCFCE010E946703B8
:1007E000E9CFDF91CF910895CF93DF931F92CDB7DB
:1007F000DEB76983DC01ED91FC910280F381E02D8D
:1008000041E050E0BE016F5F7F4F09950F90DF918F
:10081000CF91089583E08093E9008091F2008823CE
:1008200019F08AE38093E80008950E94FF0190E0A8
:100830000895CF93DF931F92CDB7DEB7FC01848577
:10084000958597FD08C02FEF3FEF358724870F90E0
:10085000DF91CF910895CE0101960E94D5010197B5
:1008600019F4898190E0F3CF8FEF9FEFF0CF0F93D2
:100870001F93CF93DF931F92CDB7DEB78C01FC019E
:100880008485958597FF0BC0CE0101960E94D50106
:10089000019771F4898190E0F80195878487F801C8
:1008A000848595850F90DF91CF911F910F910895C9
:1008B0008FEF9FEFF1CFFC018485958597FD0BC0ED
:1008C0009FB7F89482E08093E9008091F2009FBF87
:1008D00090E0019608959FB7F89482E08093E90034
:1008E0008091F2009FBF90E0089581508F3008F012
:1008F00047C0E82FF0E0E158FB4F0C94CC209C045B
:10090000A0048E0494049804C004C004C004A3048A
:10091000A904AD04B104B704C004BB0480918000F5
:100920008F77809380000895809180008F7DF9CF2C
:1009300080918000877FF5CF84B58F7784BD08953F
:1009400084B58F7DFBCF809190008F77809390004E
:100950000895809190008F7DF9CF80919000877FDE
:10096000F5CF8091C0008F778093C000089580916B
:10097000C0008F7DF9CF8091C200877F8093C20035
:1009800008951F93CF93DF93282F30E0F901E552AC
:10099000FF4F8491F901EB54FE4FD491F901EA56CF
:1009A000FE4FC491CC23A9F0162F81110E9475042B
:1009B000EC2FF0E0EE0FFF1FE857FE4FA591B4912A
:1009C0008FB7F894EC91111108C0D095DE23DC9319
:1009D0008FBFDF91CF911F910895DE2BF8CF10923A
:1009E000800210927F021092C9021092EB021092C4
:1009F000C70281E08093C6021092A10261E082E00A
:100A00000E94C10461E083E00E94C104E9EBF0E0D0
:100A100080818E7F808380818D7F808388E4809336
:100A2000B80085E48093BC0084EB91E090937E0253
:100A300080937D0285EB91E090937C0280937B0212
:100A400008953FB7F8948091450290914602A09195
:100A50004702B091480226B5A89B05C02F3F19F068
:100A60000196A11DB11D3FBFBA2FA92F982F88272E
:100A7000BC01CD01620F711D811D911D42E0660F09
:100A8000771F881F991F4A95D1F708958F929F92DB
:100A9000AF92BF92CF92DF92EF92FF926B017C01F7
:100AA0000E9421054B015C01C114D104E104F10451
:100AB000B9F00E942105681979098A099B09683EE5
:100AC00073408105910580F321E0C21AD108E10845
:100AD000F10888EE880E83E0981EA11CB11CE4CFBB
:100AE000FF90EF90DF90CF90BF90AF909F908F904E
:100AF00008958F929F92AF92BF92CF92DF92EF9222
:100B0000FF920F931F93CF93DF936C017B018A01B8
:100B100080911201882309F45CC080917A028823B5
:100B200009F457C080916B0280FF05C08091E000FE
:100B300082608093E000E801B12C8AEFA82E93E058
:100B4000892E2AE3922E209711F4BB20D9F10E941E
:100B5000FF0181110AC0AA94AA20D9F161E070E0D6
:100B600080E090E00E944605EECF8C171D0611F044
:100B70000CF08C2F9FB7F8948092E9002091E80048
:100B800025FD02C09FBFDFCF282F30E0C21BD30B53
:100B9000F701815020F041914093F100FACFE20E2D
:100BA000F31EBB2021F09092E800B12CEBCF809196
:100BB000E80085FDE7CF9092E800BB24B39420972E
:100BC00009F3F3CF5D9A84E680936C021016110648
:100BD0003CF081E090E0F6019383828310E000E036
:100BE000C801DF91CF911F910F91FF90EF90DF909F
:100BF000CF90BF90AF909F908F9008952FB7F894AB
:100C000060914102709142028091430290914402AE
:100C10002FBF0895DC01ED91FC910190F081E02D52
:100C2000099485ED8093BC008091BC0084FDFCCFCD
:100C30001092C702089520911D02260F3327331FFB
:100C400021323105ECF42091C702FC0190E080E0F4
:100C5000243069F082E00895A0911D022191AC0139
:100C600043505E4FA40FB52FB11D2C9301968617EC
:100C700098F380911D02680F60931D0280E0089533
:100C800081E008950895E091800280917F02E81745
:100C900030F4F0E0EF57FD4F808190E008958FEF42
:100CA0009FEF08959091800280917F022FEF3FEF98
:100CB000981748F4E92FF0E0EF57FD4F208130E01E
:100CC0009F5F90938002C901089580917F02909167
:100CD0008002891B990B0895CF92DF92EF92FF92C9
:100CE0000F931F93CF93DF937C01CB018A01209157
:100CF000C802222389F0EB016B01C40ED51ECC156E
:100D0000DD0569F06991D701ED91FC910190F081C9
:100D1000E02DC7010995F3CF642F0E941B06C8017F
:100D2000DF91CF911F910F91FF90EF90DF90CF90C7
:100D30000895CF93DF931F92CDB7DEB769832091DB
:100D4000C8022223F9F02091EB02203258F021E072
:100D500030E0FC013383228390E080E00F90DF914C
:100D6000CF9108958091C902E82FF0E0E653FD4F3E
:100D7000998190838F5F8093C9028093EB0281E019
:100D800090E0ECCF61E0CE0101960E941B06F7CF08
:100D900081E00C9415011F93CF93DF93162FCFE5BD
:100DA000D4E0A981BA81988121E02093C802909370
:100DB000EA021092C9021092EB02ED91FC91119798
:100DC0000190F081E02D682FCD01099589819A81EC
:100DD000DC01ED91FC910190F081E02D612F0995EE
:100DE00089819A81DF91CF911F910C94C8061F933E
:100DF000CF93DF93162FC3EFD3E0A881B98191E0A1
:100E00009093C80298E69093EA021092C902109259
:100E1000EB02ED91FC9111970190F081E02D682F8C
:100E2000CD01099588819981DC01ED91FC910190BA
:100E3000F081E02D612F099588819981DF91CF9113
:100E40001F910C94C80690E080E00895DC01ED91BC
:100E5000FC910190F081E02D09940F931F93CF93A3
:100E6000DF938B01CFE5D4E029813A81988141E07D
:100E70004093C8029093EA021092C9021092EB02CA
:100E800094E0899FB00111246A5F7F4FC9010E94DD
:100E9000260770E060E089819A810E940A0670E06E
:100EA00060E089819A810E940A06B80189819A814D
:100EB0000E940A06612F70E089819A810E940A06C9
:100EC00089819A81DF91CF911F910F910C94C8066F
:100ED000CF93DF93EC0188819981461B570BDC018E
:100EE000ED91FC910280F381E02D09952A813B81EF
:100EF000820F931F9B838A83DF91CF910895EF9296
:100F0000FF921F93CF93DF93CDB7DEB766970FB6EF
:100F1000F894DEBF0FBECDBF9C01CB01FE017796DA
:100F20004E2F1F2F5AE0E52EF12CB7010E94B8205A
:100F3000805D8293CB010097C1F7512FBF01C9019A
:100F40000E94680766960FB6F894DEBF0FBECDBF4D
:100F5000DF91CF911F91FF90EF900895CF93DF9392
:100F6000EC0188819981DC01ED91FC910190F08187
:100F7000E02D09952A813B81820F931F9B838A83F1
:100F8000DF91CF9108958F929F92AF92BF92CF92AF
:100F9000DF92EF92FF920F931F93CF93DF93CDB722
:100FA000DEB766970FB6F894DEBF0FBECDBF7C01EB
:100FB0008E01095E1F4F68018AE0882E912CA12CBA
:100FC000B12CCB01BA01A50194010E94CF1E942F30
:100FD000852F605DF80162938F01A901692F782F39
:100FE000411551056105710561F7A601BF01C701F2
:100FF0000E94680766960FB6F894DEBF0FBECDBF9D
:10100000DF91CF911F910F91FF90EF90DF90CF90E4
:10101000BF90AF909F908F900895CF92DF92EF9204
:10102000FF920F931F93CF93DF937C018B016A0193
:10103000C0910501D09106018BE00E94B601209776
:10104000F9F460E08BE00E94C104F6019081F701A1
:10105000808161E0913009F4A0C060E0923009F035
:101060009CC00E94C10461E0F8018081DF91CF91B2
:101070001F910F91FF90EF90DF90CF900C94C104DF
:10108000CF3FD10511F461E0DDCFE6EEF0E0E49171
:10109000E150EF3008F07CC0F0E0EF5AF74F0C94CD
:1010A000CC20600865086A0874087E08C808C8086B
:1010B000C808880892089C08A608B308C808BB0896
:1010C00084B5806884BDC7BDC0CF84B5806284BD4F
:1010D000C8BDBBCF80918000806880938000D09392
:1010E0008900C0938800B1CF809180008062809396
:1010F0008000D0938B00C0938A00A7CF809180009E
:10110000886080938000D0938D00C0938C009DCF29
:1011100080919000806880939000D0939900C09354
:10112000980093CF80919000806280939000D0933C
:101130009B00C0939A0089CF809190008860809333
:101140009000D0939D00C0939C007FCF8091C00001
:1011500080688093C0008091C0008F7B8093C00026
:10116000C093CF0072CF8091C00080628093C00096
:10117000C093D0006ACF8091C20088608093C20083
:101180008091C2008B7F8093C200C093D2005DCF5C
:10119000C038D1050CF077CF54CF0E94C10460E075
:1011A00063CFCF93C82F262F30E0A0EEB1E00E948E
:1011B000F11E24EB30E040E050E00E94A51ECA0181
:1011C000B90168587F4F8F4F9F4F8C2FCF910C9450
:1011D0002D07FF920F931F93CF93DF93453B51054C
:1011E000B8F5FB01208131812417350789F18A0187
:1011F000EB01F82E24173507A4F4688179810617CE
:10120000170734F18F2D0E94D10865E070E080E06F
:1012100090E00E9446058881998101969983888390
:10122000ECCF42175307A4F46881798160177107E6
:101230007CF08F2D0E94D10865E070E080E090E0A6
:101240000E94460588819981019799838883ECCF14
:10125000DF91CF911F910F91FF900895CF93DF936E
:10126000CFE5D4E0A981BA81988121E02093C8021A
:101270009093EA021092C9021092EB02ED91FC9158
:1012800011970190F081E02D682FCD01099589819A
:101290009A810E94C80661E088810E9472011092C2
:1012A000800280937F0289819A81DC01ED91FC911B
:1012B0000284F385E02D0995DF91CF9108958F92F7
:1012C0009F92AF92BF92CF92DF92EF92FF92CF9315
:1012D000C82F90E080E00E94861D6B017C018EEF9C
:1012E0000E942E09682F70E06F5F7F4F90E080E0D2
:1012F0000E94861D20E034E244E759E40E94E71D85
:101300004B015C01609162047091630480916404FC
:10131000909165040E94861D9B01AC01C501B4013A
:101320000E94DF1F9B01AC01C701B6010E94DF1FB5
:101330000E9451208C2FCF91FF90EF90DF90CF90A3
:10134000BF90AF909F908F900C942D078F929F929B
:10135000AF92BF92CF92DF92EF92FF92CF936B0149
:101360007C0120E030E040E85FE30E94811D87FDC2
:101370007AC020E030EC4AE555E4C701B6010E948E
:10138000A72018163CF4C12C30ECD32E3AE5E32EFE
:1013900035E4F32E609162047091630480916404DB
:1013A000909165040E94861D4B015C0120E030E0B5
:1013B00040E855E4C701B6010E94E71D9B01AC015E
:1013C000C501B4010E94DF1F20E030E040E05FE390
:1013D0000E94011F20E030E040E85FE30E94001F10
:1013E0006B017C0120E030E040E450E40E94811D6C
:1013F00087FD40C020E030E04FE753E4C701B6016D
:101400000E94A720181634F4C12CD12C9FE7E92E96
:1014100093E4F92E80E00E942E09C82F682F6F7682
:10142000606180E00E94CB06C701B6010E94512096
:101430008EEF0E94CB066C2F80E00E94CB0665E009
:1014400070E080E090E00E9446056C2F606A80E0CA
:10145000CF91FF90EF90DF90CF90BF90AF909F9093
:101460008F900C94CB06C12CD12C20E8E22E2FE3D8
:10147000F22E90CFC12CD12C80E4E82EFE2CCACFC6
:101480002F923F924F925F926F927F928F929F9294
:10149000AF92BF92CF92DF92EF92FF92CF93DF9302
:1014A000CDB7DEB728970FB6F894DEBF0FBECDBF1D
:1014B0008091F3039091F40321E02093C80228E681
:1014C0002093EA021092C9021092EB026BE370E0E3
:1014D0000E94260780E00E9415016EE088E60E94C7
:1014E00072011092800280937F028091F3039091A9
:1014F000F403DC01ED91FC910284F385E02D099564
:10150000F82E8091F3039091F403DC01ED91FC91AE
:101510000284F385E02D099520E0822B9F2990938A
:10152000F6038093F5038091F3039091F403DC01BB
:10153000ED91FC910284F385E02D0995F82E8091C0
:10154000F3039091F403DC01ED91FC910284F385A7
:10155000E02D099520E0822B9F299093F80380933A
:10156000F7038091F3039091F403DC01ED91FC917A
:101570000284F385E02D0995F82E8091F303909174
:10158000F403DC01ED91FC910284F385E02D0995D3
:1015900020E0822B9F299093FA038093F903809196
:1015A000F3039091F403DC01ED91FC910284F38547
:1015B000E02D0995F82E8091F3039091F403DC015E
:1015C000ED91FC910284F385E02D099520E0822BBA
:1015D0009F299093FC038093FB038091F3039091E8
:1015E000F403DC01ED91FC910284F385E02D099573
:1015F000F82E8091F3039091F403DC01ED91FC91BE
:101600000284F385E02D099520E0822B9F29909399
:10161000FE038093FD038091F3039091F403DC01BA
:10162000ED91FC910284F385E02D0995F82E8091CF
:10163000F3039091F403DC01ED91FC910284F385B6
:10164000E02D099520E0822B9F2990930004809340
:10165000FF038091F3039091F403DC01ED91FC9181
:101660000284F385E02D0995F82E8091F303909183
:10167000F403DC01ED91FC910284F385E02D0995E2
:10168000612C7F2C682A792A7092020460920104EE
:101690006091FB037091FC03072E000C880B990BE3
:1016A0000E94881D20E030EF41E456E40E94011FB3
:1016B00020E030E04AEA53E40E94DF1F60930F0409
:1016C0007093100480931104909312046091F503B9
:1016D0007091F603072E000C880B990B0E94881D51
:1016E00020E030E040E858E30E94E71D4B015C0138
:1016F0008092130490921404A0921504B0921604E0
:101700006091F7037091F803072E000C880B990B7A
:101710000E94881D20E030E040E858E30E94E71D69
:101720006B017C01C0921704D0921804E092190456
:10173000F0921A046091F9037091FA03072E000CDD
:10174000880B990B0E94881D20E030E040E858E3A8
:101750000E94E71D1B012C0120921B0430921C04E7
:1017600040921D0450921E0420E030E0A901C50102
:10177000B4010E94A720A501940118160CF050583E
:10178000C201B1010E94011F9B01AC01C701B6015A
:101790000E94801F20E030E044EB53E40E94E71DEC
:1017A00020E030E040E05FE30E94E71D2BED3FE0EA
:1017B00049E450E40E94DF1F6093370470933804BB
:1017C0008093390490933A0420E030E0A901C701E6
:1017D000B6010E94A720181624F0F7FAF094F7F843
:1017E000F094A7019601C201B1010E94011F9B0163
:1017F000AC01C501B4010E94801F20E030E044EB41
:1018000053E40E94E71D20E030E040E05FEB0E94DF
:10181000E71D2BED3FE049E450E40E94DF1F609399
:101820003B0470933C0480933D0490933E0460918C
:10183000FF0370910004072E000C880B990B0E9487
:10184000881D20E030E043E852E40E94DF1F6B0176
:101850007C016091FD037091FE03072E000C880B44
:10186000990B0E94881D20E030E043E852E40E947A
:10187000DF1F20910304309104044091050450912E
:1018800006040E94001F60931F047093200480933D
:101890002104909322042091070430910804409180
:1018A000090450910A04C701B6010E94001F609309
:1018B0002304709324048093250490932604B30199
:1018C000770C880B990B0E94881D20E030E043E8DC
:1018D00052E40E94DF1F20910B0430910C044091D0
:1018E0000D0450910E040E94001F60932704709312
:1018F00028048093290490932A040E94FE05C09036
:101900005304D0905404E0905504F09056046C19A0
:101910007D098E099F090E94861D2FE632E143E86A
:101920005AE30E94E71D6B017C01C0924F04D092E4
:101930005004E0925104F092520420911F0430911F
:10194000200440912104509122040E94E71D2B01A4
:101950003C01AC019B0160912B0470912C0480919F
:101960002D0490912E040E94011F60932B0470930C
:101970002C0480932D0490932E0420912304309105
:1019800024044091250450912604C701B6010E9409
:10199000E71D4B015C01AC019B0160912F0470912C
:1019A000300480913104909132040E94011F6093B1
:1019B0002F0470933004809331049093320420916B
:1019C0002704309128044091290450912A04C7012A
:1019D000B6010E94E71D20913304309134044091F8
:1019E0003504509136040E94011F6D837E838F83DE
:1019F00098876093330470933404809335049093F4
:101A00003604C0905B04D0905C04E0905D04F090DC
:101A10005E048091570490915804A0915904B091AC
:101A20005A0489839A83AB83BC8320914304309109
:101A300044044091450450914604C301B2010E9400
:101A4000011FA70196010E94E71D2B013C01209177
:101A50003704309138044091390450913A04698137
:101A60007A818B819C810E94E71D9B01AC01C3019F
:101A7000B2010E94011F6093430470934404809359
:101A800045049093460420914704309148044091C6
:101A9000490450914A04C501B4010E94011FA701E5
:101AA00096010E94E71D6B017C0120913B0430915F
:101AB0003C0440913D0450913E0469817A818B81C0
:101AC0009C810E94E71D9B01AC01C701B6010E94E9
:101AD000011F6093470470934804809349049093D6
:101AE0004A048D819E81AF81B88580934B04909389
:101AF0004C04A0934D04B0934E040E94FE056093E5
:101B0000530470935404809355049093560428967C
:101B10000FB6F894DEBF0FBECDBFDF91CF91FF901F
:101B2000EF90DF90CF90BF90AF909F908F907F907D
:101B30006F905F904F903F902F900895FB01019020
:101B40000020E9F73197AF01461B570BDC01ED91FF
:101B5000FC910280F381E02D0994CF93DF93EC0197
:101B600088819981FB0101900020E9F73197AF014D
:101B7000461B570BDC01ED91FC910280F381E02DB7
:101B800009952A813B81820F931F9B838A83DF9172
:101B9000CF910895FF920F931F93CF93DF93611519
:101BA000710549F46BEA71E0DF91CF911F910F91BC
:101BB000FF900C94AD0D8B01EC0162E2CE010E940E
:101BC000AE07F80161918F01662351F0ECE9F1E075
:101BD000F080FF2099F38181681759F03296F8CF91
:101BE00062E2CE01DF91CF911F910F91FF900C9493
:101BF000AE076CE5CE010E94AE076F2DDFCF2F92AE
:101C00003F924F925F926F927F928F929F92AF928C
:101C1000BF92CF92DF92EF92FF920F931F93CF93D9
:101C2000DF93CDB7DEB768970FB6F894DEBF0FBE6F
:101C3000CDBF8C014B01DC0114968C9114978F77EA
:101C4000863009F468C2E0F4823018F1843008F07C
:101C500047C2DB018D919C91F801428153816081E3
:101C60007181DC01ED91FC910280F381E02D0995F9
:101C7000F40122813381820F931F93838283DCC11D
:101C80008C3091F148F4883009F43FC28A3009F46D
:101C90002EC26BEA71E04CC2803209F4F4C1803488
:101CA000C1F76BE5C4010E94AE07D8010D911C91EC
:101CB0000115110509F4E2C1B401C8010E94FF0D2C
:101CC000F8018581882309F4D9C1F8E08F02C001A9
:101CD0001124080F191F0115110509F4CFC16CE279
:101CE000C4010E94AE07E4CFF801408051806280B9
:101CF0007380A3019201C301B2010E94811D811171
:101D0000C8CF20E030E0A901C301B2010E94811DCB
:101D1000882379F0A3019201C301B2010E94011F3F
:101D20009B01AC01C301B2010E94811D882309F40B
:101D3000B0CF20E030E0A901C301B2010E94811DB3
:101D400087FF08C06DE2C4010E94AE0777FA709465
:101D500077F8709420E836E948E15BE4C301B2010A
:101D60000E94A72087FD79C03BE5E32E31E0F32EEA
:101D70004BE2C42E41E0D42E53E4A52E51E0B52E03
:101D800000E210E0312C212CD7015E914E913E9162
:101D90002E917D01C301B2010E94A72087FD0DC0D5
:101DA000F6012489358946895789C301B2010E9409
:101DB000E71D2B013C01200E311E15950795F4E01F
:101DC000CF1AD108AE14BF04F9F62FEF298B20E00B
:101DD00030E0A901C301B2010E94A72018160CF03F
:101DE00043C02CEA35EC47E257E3C301B2010E943D
:101DF000811D1816CCF19989A4E09A025001112492
:101E0000D12CC12CB989BF3F79F17501EC0CFD1CB7
:101E1000F701ED5EFE4FA301920160817181828125
:101E200093810E94A72018167CF4F701ED5BFE4F0A
:101E30002081318142815381C301B2010E94E71D9B
:101E40002B013C01201A310A15950795E989E150CB
:101E5000E98BF4E0CF1AD108D5CF00E210E085E09D
:101E6000898B312C212CB3CFC301B2010E945120A8
:101E7000698B7A8B8B8B9C8B6B017C0116E080E4E9
:101E800092E4AFE0B0E08D8B9E8BAF8BB88FB12E1C
:101E900011509AE0C916D104E104F104C8F06D892B
:101EA0007E898F89988D2AE030E040E050E00E94E2
:101EB000CF1E2D8B3E8B4F8B588FC701B6012AE06A
:101EC00030E040E050E00E94CF1E69017A01DFCF90
:101ED00069897A898B899C890E94861D9B01AC0146
:101EE000C301B2010E94001F6B017C016D897E89D4
:101EF0008F89988D0E94861D9B01AC01C701B60198
:101F00000E94E71D2B013C010E9451206B017C01C6
:101F10000E94861D9B01AC01C301B2010E94001FFB
:101F20009B01AC010E94011F0E945120C60ED71ECA
:101F3000E81EF91E8D899E89AF89B88DC816D9060D
:101F4000EA06FB0600F189899A89AB89BC8901966A
:101F5000A11DB11D898B9A8BAB8BBC8B21143104D5
:101F600039F10A97A105B10518F19FEF291A390A2D
:101F7000C12CD12C760181E090E0A0E0B0E0898B0B
:101F80009A8BAB8BBC8B8AE0482E512C612C712C28
:101F9000C701B601A30192010E94CF1E672B682BD7
:101FA000692B51F41B1444F469017A01BA94F0CFFF
:101FB000C12CD12C7601E7CF49895A896B897C895C
:101FC000C4010E94C307BB2049F12E0191E1490ED3
:101FD000511C7B2C82017A94AFEF7A1679F0C701FD
:101FE000B6012AE030E040E050E00E94CF1E605D84
:101FF000F20162932F0169017A01EDCF6B2D70E040
:10200000F801E61BF70B31978EE28083609570959F
:10201000600F711FA801C4010E94680737FE25C028
:1020200060EB71E0C4010E94AD0D6627772762194D
:102030007309C4010E947F0768960FB6F894DEBF4B
:102040000FBECDBFDF91CF911F910F91FF90EF9009
:10205000DF90CF90BF90AF909F908F907F906F90C8
:102060005F904F903F902F9008952114310421F3F9
:1020700065E6C4010E94AE07B101DBCF6DE5C40186
:102080000E94AE07D9CF6BE7C4010E94AE07D8010A
:102090000D911C910115110509F1F80166817781F7
:1020A000C4010E94CA0D6AE3C4010E94AE07B401D4
:1020B000C8010E94FF0DD80115968C91882371F0FC
:1020C000B8E08B02C0011124080F191F011511057A
:1020D00029F06CE2C4010E94AE07DCCF6DE7CFCFE0
:1020E000F80160817181C4010E94CA0DA5CFCD9015
:1020F000DD90ED90FC906DE2C4010E94AE07B70147
:10210000A601C4010E94C30797CFF8014081518105
:1021100062817381F6CFF80180819181A281B381C0
:1021200063EB71E0892B8A2B8B2B11F468EB71E048
:10213000C4010E94AD0D80CFCF92DF92EF92FF924B
:102140000F931F93CF93DF93FC018481982F9F7788
:1021500039F4807880628483118210821382128223
:10216000848185FD0CC0F0E0E0E0CF01DF91CF91EC
:102170001F910F91FF90EF90DF90CF9008957A011B
:102180008B016F01C081D181209709F16E817F8120
:1021900060177107D1F00115110541F06115710546
:1021A00029F0C8010E94E620882379F08D818823D8
:1021B00071F028E08202C0011124C80FD91FE4CFBA
:1021C000F983E883FB83EA8325C0FE01CECFE701D4
:1021D000EC81FD818A819B810896E817F90718F246
:1021E0003897D7011596FC93EE931497309709F41E
:1021F000BACFE601AA81BB81109711F3CF018A1BE8
:102200009B0B23E0959587952A95E1F715968C937E
:10221000FB83EA831582148217830683A6CF1F925D
:102220000F920FB60F9211248F939F938091E1002C
:102230009091E100937F9093E10083FF0FC0109293
:10224000E90091E09093EB001092EC0092E3909300
:10225000ED0010927A0298E09093F00082FF22C085
:1022600093E09093E9009091F200992319F09AE39A
:102270009093E80090916C02992341F090916C0248
:10228000915090936C02911101C05D9890917902E8
:10229000992341F090917902915090937902911194
:1022A00001C0289884FF18C08091E2008E7E816072
:1022B0008093E2008091E1008F7E8093E100809125
:1022C0006B028E7E806180936B029F918F910F9045
:1022D0000FBE0F901F90189580FFF7CF8091E200FE
:1022E0008E7E80618093E2008091E1008E7E8093FB
:1022F000E10080916B028E7E8160E5CF1F920F928C
:102300000FB60F921124CF92DF92EF92FF920F93AC
:102310001F932F933F934F935F936F937F938F936D
:102320009F93AF93BF93EF93FF93CF93DF93CDB77B
:10233000DEB76C97DEBFCDBF1092E9008091E80058
:1023400083FF25C068E0CE0145960E94DC0282EF43
:102350008093E8008D8987FF39C09091E80090FF55
:10236000FCCF982F907609F034C19E894F89588D03
:102370002F89F88C911131C0803861F580916A0203
:102380008093F1001092F1008EEF8093E8006C963C
:102390000FB6F894DEBF0FBECDBFDF91CF91FF9196
:1023A000EF91BF91AF919F918F917F916F915F91CD
:1023B0004F913F912F911F910F91FF90EF90DF90E0
:1023C000CF900F900FBE0F901F9018959EEF909397
:1023D000E800C7CF1092F100D5CF913059F48111A8
:1023E000D3CF4130510581F680916A028D7F809371
:1023F0006A02CACF933049F48111C6CF41305105EA
:1024000019F680916A028260F2CF953041F4809192
:10241000E80080FFFCCF20682093E300B5CF963022
:1024200009F0A9C00B8D1C8D22E01092E9001092DA
:10243000680210926702F2122EC010926602109289
:1024400065020E94AB021F8299E09983FA8291E0B3
:102450009E8390EA98879AEF99872091670230913E
:102460006802275F3F4F3C832B838D831092E900E6
:102470001092680210926702109366020093650240
:1024800049E050E0BE016F5F7F4F80E00E9485020F
:102490000E94AB0279CF10936602009365020E94FE
:1024A0001002DC0112960D911C910115110509F421
:1024B00051C1D801ED91FC910480F581E02DBE0160
:1024C0006B5E7F4FC8010995009709F03EC1F80186
:1024D00000851185EACFF3E0FF120EC08F898823B3
:1024E00009F440C0823061F440E86DE08EE591E08F
:1024F0000E945202811148CF81E28093EB0047CFC6
:10250000813029F440E86BE082E591E0F1CF83303F
:1025100099F70E941002DC011296ED90FC908E015A
:102520000F5F1F4F6801E114F10479F0D701ED91BD
:10253000FC910680F781E02DB801C7010995080FCD
:10254000111DF701E084F184EECFD8011C92F60151
:1025500001900020E9F73197BF016C197D0940E037
:10256000C601C6CF6CE371E0FB01449150E080E806
:102570000E94850209CF973009F4BECF983021F42C
:1025800081E08093F10000CF993009F0FDCE837097
:1025900009F0B2CFE0E6F1E081E031E096E321918D
:1025A000222371F08093E9003093EB00DF01119753
:1025B0002C912093EC009093ED008F5F873079F79A
:1025C0008EE78093EA001092EA008F8980937A0266
:1025D000DBCE8B8D9C8D1092E900109268021092D8
:1025E00067029093660280936502898D811192C083
:1025F0008E899D89913A49F4813209F07DCF47E077
:1026000050E06BE071E080E0B3CF913209F074CF1D
:10261000833269F48F89988DB0E0A0E08093070140
:1026200090930801A0930901B0930A01ADCE8032C6
:1026300069F48091E80082FFFCCF67E08BE091E0D5
:102640000E94DC028BEF8093E8009ECE823209F07C
:102650009BCE8F8980931201EEEFFFE785919491D5
:102660008B3F9C4D51F1E0E0F8E080910B0190919F
:102670000C01A0910D01B0910E01803B9440A10589
:10268000B105F1F48091120180FD1AC0EE3F8AE09D
:10269000F80789F587E797E7918380838091600049
:1026A0008093690288E19BE00FB6F894A895809327
:1026B00060000FBE9093600067CEEEEFFAE0D5CFDA
:1026C000808191818737974709F05ECEA8958091E8
:1026D000600088618093600080916902809360004F
:1026E000EE3F2AE0F20789F08091FE0A9091FF0AFE
:1026F0009183808349CE808191818737980751F2F9
:102700009093FF0A8093FE0AC5CF1092FF0A1092A1
:10271000FE0A3ACE0E941002DC0112960D911C9125
:102720000115110509F4E8CED801ED91FC91019055
:10273000F081E02DBE016B5E7F4FC80109958111CC
:1027400023CEF80100851185EBCF181619060CF47D
:102750001BCED2CEF1E0FF12BECE60E471E004CF1A
:102760001F920F920FB60F9211248F939F93AF93E6
:10277000BF93EF93FF938091610290916202A091C9
:102780006302B0916402892B8A2B8B2BA1F190916B
:102790006002E0915E02F0915F0280818927808370
:1027A0008091610290916202A0916302B0916402F3
:1027B000181619061A061B069CF480916102909166
:1027C0006202A0916302B09164020197A109B1096C
:1027D0008093610290936202A0936302B0936402BB
:1027E000FF91EF91BF91AF919F918F910F900FBE8D
:1027F0000F901F901895809171008D7F80937100CC
:1028000080916002E0915E02F0915F02908180957C
:1028100089238083E5CF1F920F920FB60F92112468
:102820002F933F934F935F936F937F938F939F93D8
:10283000AF93BF93EF93FF938CEE92E00E946703F8
:10284000FF91EF91BF91AF919F918F917F916F9188
:102850005F914F913F912F910F900FBE0F901F905E
:1028600018951F920F920FB60F9211242F938F93EA
:102870009F93EF93FF93E091FC02F091FD02808122
:10288000E0910203F091030382FD1BC090818091CF
:1028900005038F5F8F7320910603821741F0E0914B
:1028A0000503F0E0E451FD4F958F80930503FF9100
:1028B000EF919F918F912F910F900FBE0F901F90CE
:1028C00018958081F4CF1F920F920FB60F921124AA
:1028D0002F933F938F939F93AF93BF938091410228
:1028E00090914202A0914302B09144023091400283
:1028F00023E0230F2D3758F50196A11DB11D20931C
:1029000040028093410290934202A0934302B0930D
:1029100044028091450290914602A0914702B091F5
:1029200048020196A11DB11D809345029093460275
:10293000A0934702B0934802BF91AF919F918F91AE
:102940003F912F910F900FBE0F901F90189526E882
:10295000230F0296A11DB11DD2CF1F920F920FB669
:102960000F9211242F933F934F935F936F937F9315
:102970008F939F93AF93BF93EF93FF938091B90091
:10298000887F803609F44AC0F0F5883209F4A7C080
:1029900018F5803109F49BC0B8F4882309F4F9C014
:1029A000883009F494C0FF91EF91BF91AF919F914E
:1029B0008F917F916F915F914F913F912F910F90E8
:1029C0000FBE0F901F901895883109F488C080328F
:1029D00051F78093C50214C0803409F49DC040F4BF
:1029E0008033B9F38833F9F68093C50285ECB0C023
:1029F000803509F485C0883509F496C0883499F685
:102A00000E941106D0CF883909F48CC038F5883778
:102A100029F050F4883611F0803729F683E080934E
:102A2000C70210923F0257C0883809F47BC0803932
:102A300019F0803809F0B7CF80913F02803208F05A
:102A400071C0E0913F0281E08E0F80933F02809140
:102A5000BB00F0E0E15EFD4F80833DC0803B39F07C
:102A6000E0F4803A09F479C0883A09F09CCF84E018
:102A70008093C70210921E0210921D02E0917D0207
:102A8000F0917E02099580911D0281110FC081E0B5
:102A900080931D021092FD0109C0803C09F4A6CF6D
:102AA000883C09F4A3CF883B09F07DCFE0911E025A
:102AB00081E08E0F80931E02F0E0E350FE4F808194
:102AC0008093BB0090911E0280911D0229C08091CD
:102AD000A2028093BB0085EC8093BC0064CF9091F0
:102AE000C4028091C302981758F5E091C40281E0B6
:102AF0008E0F8093C402F0E0ED55FD4F8081E9CF49
:102B0000E091C40281E08E0F8093C4028091BB00EB
:102B1000F0E0ED55FD4F80839091C4028091C30297
:102B20009817C8F285E8D8CFE091C40281E08E0FF3
:102B30008093C4028091BB00F0E0ED55FD4F80838F
:102B40008091C60281115CCF81E08093A10284EA6A
:102B50008093BC001092C70226CF85EC8093BC0006
:102B60001092C70280913F02803230F4E0913F0220
:102B7000F0E0E15EFD4F108260913F0270E0E09175
:102B80007B02F0917C028FE192E0099510923F0266
:102B90000ACF1092C50234CFECEEF2E0138212821B
:102BA00088EE93E0A0E0B0E084839583A683B783AA
:102BB0002AE631E0318320832DEC30E0358724870D
:102BC0002CEC30E03787268728EC30E0318B208BE7
:102BD00029EC30E0338B228B2AEC30E0358B248BD0
:102BE0002EEC30E0378B268B118E128E138E148EC6
:102BF000E9E8F3E01382128284839583A683B78386
:102C00002CE731E0318320832FEF3FEF3587248796
:102C1000E7EEF3E01382128284839583A683B78361
:102C20008EE891E091838083AFE5B4E080E48C93FB
:102C30001296FC93EE931197F093F403E093F30351
:102C40008AE097EDA3EABCE380935704909358047D
:102C5000A0935904B0935A0488E491EEAAE7BFE325
:102C600080935B0490935C04A0935D04B0935E0436
:102C7000E8ECF1E0E491A9EDB3E0EC93E9ECF1E0EC
:102C8000E4911196EC93119789EA91E0FC0124916B
:102C9000E22FF0E0EE0FFF1FE857FE4F2591349131
:102CA00013963C932E931297EAEAF1E0E491F0E058
:102CB000EE0FFF1FE658FE4F2591349115963C9379
:102CC0002E931497FC018491E82FF0E0EE0FFF1F84
:102CD000E459FE4F8591949117969C938E93169785
:102CE0008DE796E119969C938E9318970895CF934C
:102CF000DF93CDB7DEB7EE970FB6F894DEBF0FBE09
:102D0000CDBF789484B5826084BD84B5816084BD74
:102D100085B5826085BD85B5816085BD80916E0079
:102D2000816080936E0010928100809181008260AA
:102D300080938100809181008160809381008091E7
:102D400080008160809380008091910082608093F8
:102D5000910080919100816080939100809190001A
:102D60008160809390008091C10084608093C10055
:102D70008091C10082608093C1008091C100816018
:102D80008093C1008091C30081608093C3008091D3
:102D9000C00082608093C0008091C20081608093F7
:102DA000C20080917A00846080937A0080917A00DA
:102DB000826080937A0080917A00816080937A00AB
:102DC00080917A00806880937A0010927A02109243
:102DD0006A0210926B028091D70081608093D700C5
:102DE00080EA8093D80089B5806189BD89B5826009
:102DF00089BD09B400FEFDCF61E070E080E090E0A5
:102E00000E9446058091D8008F7C80618093D80015
:102E10008091E000807F8093E0008091E1008E7ED1
:102E20008093E1008DE08093E200559A209A5D98AE
:102E3000289882E10E94B6018CE00E94B6018BE0E6
:102E40000E94B60185E10E94B60186E10E94B601AA
:102E500087E00E94B60188E00E94B60184E00E94EB
:102E6000B6010E94EF0480ED8093BA0060E089E132
:102E70000E94F70660E08AE10E94F70668E08BE1B5
:102E80000E94F70660E08CE10E94F70661E08BE6A5
:102E90000E94F7060E94400A10922B0410922C0404
:102EA00010922D0410922E0410922F0410923004D0
:102EB00010923104109232048091370490913804BA
:102EC000A0913904B0913A04809343049093440450
:102ED000A0934504B093460480913B0490913C0438
:102EE000A0913D04B0913E04809347049093480420
:102EF000A0934904B0934A040E94FE0560935304D2
:102F000070935404809355049093560468EE73E0D4
:102F100080E090E00E94460508EB1BE0C12CD12C1C
:102F2000760146015701260137018091F303909104
:102F3000F40321E02093C80238E63093EA021092AD
:102F4000C9021092EB0263E470E00E94260780E061
:102F50000E94150166E088E60E94720110928002CC
:102F600080937F028091F3039091F403DC01ED9153
:102F7000FC910284F385E02D0995382E8091F303AE
:102F80009091F403DC01ED91FC910284F385E02D36
:102F900009953DAA1CAAECA9FDA9E82BF92BFBAFCA
:102FA000EAAF8091F3039091F403DC01ED91FC9181
:102FB0000284F385E02D0995382E8091F3039091DA
:102FC000F403DC01ED91FC910284F385E02D099579
:102FD0003FAA1EAAEEA9FFA9E82BF92BFDAFECAF83
:102FE0008091F3039091F403DC01ED91FC91028454
:102FF000F385E02D09958EAF8091F3039091F40352
:10300000DC01ED91FC910284F385E02D09951C0112
:10301000EAADFBADBF01FF0F880B990B0E94881D25
:1030200020E030E043E852E40E94DF1F9B01AC0146
:10303000C301B2010E94011F2B013C012CAD3DAD2B
:10304000B901330F880B990B0E94881D20E030E0F6
:1030500043E852E40E94DF1F9B01AC01C501B401AB
:103060000E94011F4B015C013EAD39AF18AE68AD47
:1030700079AD62297329072E000C880B990B0E94E9
:10308000881D20E030E043E852E40E94DF1F9B01EE
:10309000AC01C701B6010E94011F6B017C01015008
:1030A000110909F042CF20E030E84BE355E4C301B9
:1030B000B2010E94DF1F60930304709304048093A5
:1030C00005049093060420E030E84BE355E4C50185
:1030D000B4010E94DF1F609307047093080480937B
:1030E000090490930A0420E030E84BE355E4C7015B
:1030F000B6010E94DF1F60930B0470930C04809351
:103100000D0490930E040E94EF0460E880E00E949A
:10311000CB066AE070E080E090E00E94460560E047
:1031200070E08AE794E40E94A60980E498E7ADE79E
:10313000B1E08093620490936304A0936404B0931D
:10314000650460E070E088E492E40E94A60968EEFD
:1031500073E084E00E945F0968EE73E085E00E94FE
:103160005F0964EF71E080E090E00E94460564EB47
:1031700087E00E94D108609103018EE00E94D1088F
:10318000609101018FE00E94D108E091FC02F09172
:10319000FD0282E08083E091F802F091F902108252
:1031A000E091FA02F091FB0280E180831092040327
:1031B000E0910003F091010386E08083E091FE023C
:1031C000F091FF02808180618083E091FE02F091A6
:1031D000FF02808188608083E091FE02F091FF020F
:1031E000808180688083E091FE02F091FF028081FF
:1031F0008F7D808360E084E00E94C1046EEB71E00B
:103200008CEE92E00E949E0D6CEC71E08CEE92E0F0
:103210000E949E0D1E018EE2280E311C54EB452E9D
:10322000512C612C712C68EE862E63E0962EA12C19
:10323000B12CDE01D196BBABAAAB8CEE92E00E9422
:103240004703892B09F4E5C28E01025D1F4F0E94DE
:10325000FE056093F4027093F5028093F60290935A
:10326000F7028CEE92E00E94250397FF3CC40E9477
:10327000FE05C090F402D090F502E090F602F090C6
:10328000F7026C197D098E099F09C090F002D09059
:10329000F102E090F202F090F3026C157D058E05CC
:1032A0009F05F8F2AFA54A2F50E01EA5173009F48C
:1032B000C1C008F041C0133009F495C098F5113031
:1032C00009F470C0123009F46DC0212F30E050E0D5
:1032D00040E019A28E010F5D1F4FCA01B9012AE01B
:1032E00030E040E050E00E94CF1E605DD8016E9358
:1032F0008D01211531054105510579F7109729F008
:10330000BD018CEE92E00E949E0D6FEC71E08CEEA0
:1033100092E00E949E0D6CEC71E08CEE92E00E94B7
:103320009E0D54C0153009F479C008F46AC050935A
:103330000601409305014AC01A3009F409C228F574
:10334000183009F47DC0193009F0BFCFCA2ED12C36
:10335000F12CE12C809100018C3009F075C0EAED70
:10336000F0E0149117FDB7C18CE00E94B601112363
:1033700009F400C1123009F00EC1C114D104E104F6
:10338000F10409F4A8C109EF04C11C3009F42CC2EE
:1033900008F4FBC161E084E0133609F096CF0E9487
:1033A000C10414C01983AE014F5F5F4F6DE571E03A
:1033B0008EE591E00E940D081983AE014F5F5F4FCB
:1033C0006BE571E08CE591E00E940D0880E090E0F3
:1033D000892B09F432CF0E945303882309F429CFA3
:1033E0000E94000026CF82E08983AE014F5F5F4FCD
:1033F0006DE571E08EE591E00E940D0881E0898322
:10340000DCCF81E08983AE014F5F5F4F6DE571E0F6
:103410008EE591E00E940D0882E0F1CF1982AE01A5
:103420004F5F5F4F6DE571E08EE591E00E940D0802
:103430001982C3CF63E071E08EE00E94E908C6CF35
:1034400061E071E08FE0F9CF8F3F09F044C18CE07B
:1034500080930001EAEDF0E0E4911E2FEF3F09F4C4
:103460003AC1E13031F160F0E33009F441C0E430B9
:1034700009F461C0E7FD2FC18CE00E94B6017ACF4C
:1034800014BC15BC84B5826084BD85B5816085BDE2
:10349000E2EAF1E0E491F0E0EE0FFF1FE857FE4FA3
:1034A00085919491E1ECF1E0E491E0934B0210E01E
:1034B0005BCF109280001092810080918100886023
:1034C0008093810080918100816080938100E2EA95
:1034D000F1E0E491F0E0EE0FFF1FE857FE4F859119
:1034E0009491E1ECF1E0E491E0934A0211E03CCFE9
:1034F00010929000109291008091910088608093CA
:10350000910080919100816080939100E2EAF1E066
:10351000E491F0E0EE0FFF1FE857FE4F8591949184
:1035200090935F0280935E02E1ECF1E0E491E0931E
:10353000600213E019CF1092C0001092C100809178
:10354000C10088608093C1008091C1008160809338
:10355000C100E2EAF1E0E491F0E0EE0FFF1FE8576E
:10356000FE4F85919491E1ECF1E0E491E093490202
:1035700014E0FACE85B5887F836085BD2FEF3FEFDD
:10358000A9010CE7C114D104E104F10409F481C0DC
:103590000CE71CAA6EC0113031F580918100887F44
:1035A000816080938100C114D104E104F10409F029
:1035B0007FC02FEF3FEFA9010FE38FE18CAB802F8E
:1035C0009CA99093890080938800209350023093A7
:1035D0005102409352025093530280916F008260D7
:1035E00080936F0078C0133031F580919100887F0F
:1035F000816080939100C114D104E104F10409F0C9
:103600005BC02FEF3FEFA9010FE39FE19CAB802F41
:103610009CA9909399008093980020936102309325
:103620006202409363025093640280917100826051
:103630008093710050C01430A1F48091C100887F44
:1036400081608093C1002FEF3FEFA9010FE3C11408
:10365000D104E104F10409F456C00FE3FFE1FCAB2F
:1036600008C00FE3C114D104E104F10449F1AFE152
:10367000ACABA0EDB7E0A70196010E94C41EA50166
:1036800094010E94CF1E113009F499CFFCF411115E
:1036900022C007BD20935402309355024093560236
:1036A0005093570280916E00826080936E0013C029
:1036B0000FE3BFE1BCABDDCF0FE3EFE1ECABD9CF64
:1036C0002FE12CAB2FEF3FEFA901DDCF133009F431
:1036D0009ECF1430C1F0C701B6010E94460580910B
:1036E00000018C3069F4EAEDF0E0E4918FEF809313
:1036F0000001E130D9F0B8F0E330F1F0E43011F13D
:1037000060E08CE04CCE0093CF0020934C023093CD
:103710004D0240934E0250934F028091720080649C
:1037200080937200D8CF10926E00EACF80916F0024
:103730008D7F80936F00E4CF809171008D7F8093A7
:103740007100DECF809172008F7B80937200D8CFA2
:10375000EDEEF0E08491E7ECF1E00491E8EAF1E0CD
:103760001491112379F081110E947504E12FF0E08A
:10377000EE0FFF1FE658FE4FA591B491EC910E237A
:1037800060E009F461E082E10ACE62EE74E084E078
:103790000E945F0962EE74E085E00E945F0968ECB8
:1037A00070E080E090E00E9446056AE586E00E94B5
:1037B000D10860E273E080E090E00E94460564EB8F
:1037C00086E00E94D10860E971E080E090E00E940C
:1037D000460568EE73E084E00E945F0968EE73E0DE
:1037E00085E00E945F09F2CDB0E026EA3FEF4FEF9F
:1037F0005FEF0E94C41EA30192010E94A51EBA01A0
:10380000A9014C545F4F6F4F7F4F68E572E087E02E
:1038100014CE0E94FE0500915A0210915B02209185
:103820005C0230915D02601B710B820B930B653F54
:1038300071408105910508F4C9CD0E94400AEEE06F
:10384000F0E0EC0FFD1FFA83E983FC83EB833E82FB
:103850002D8238862F828D8580788D87E091DF03D9
:10386000F091E00380819091D903892B8083E091CE
:10387000DB03F091DC0390818091D903809589234B
:1038800080838BE090E00197F1F7E091DB03F0910A
:10389000DC0380819091D903892B808383E290E0BF
:1038A0000197F1F7E091DB03F091DC0390818091C7
:1038B000D903809589238083E091DF03F091E003B1
:1038C00090818091D903809589238083E091DD03E5
:1038D000F091DE0380819091DA03892309F494C08A
:1038E00010E000E0AE014F5F5F4F63EE71E0CE018C
:1038F00009960E949C107C010097B1F0DC0114969F
:103900008C9114978078886014968C93B80190E01D
:1039100080E029E330E040E050E00E94CF1EF70154
:103920002083318342835383C0900F04D0901004CE
:10393000E0901104F0901204AE014F5F5F4F68EE0B
:1039400071E0CE0109960E949C10FC01892B41F088
:10395000948190789C609483C082D182E282F382C9
:10396000C0903704D0903804E0903904F0903A04C5
:10397000AE014F5F5F4F6DEE71E0CE0109960E9480
:103980009C10FC01892B41F0948190789C60948379
:10399000C082D182E282F382C0903B04D0903C048A
:1039A000E0903D04F0903E04AE014F5F5F4F63EF47
:1039B00071E0CE0109960E949C10FC01892B41F018
:1039C000948190789C609483C082D182E282F38259
:1039D0008CEE92E09FA78EA719AA18AAB101CE017A
:1039E00009960E94FF0D6CEC71E08CEE92E00E9453
:1039F0009E0D0E94FE0560935A0270935B028093B5
:103A00005C0290935D02E2CC0E942105AB01BC01F7
:103A10008091E1039091E203B0E0A0E08855994ED7
:103A2000AF4FBF4F840F951FA61FB71F8093E303AF
:103A30009093E403A093E503B093E603E091DD03E4
:103A4000F091DE0380819091DA03892381F40E9452
:103A500021050091E3031091E4032091E5033091E7
:103A6000E603061717072807390740F739CF0E94E2
:103A700021052091E1033091E203620F731F811D44
:103A8000911D6093E3037093E4038093E5039093A7
:103A9000E603E091DD03F091DE0380819091DA038B
:103AA000892381F00E9421050091E3031091E40332
:103AB0002091E5033091E603061717072807390719
:103AC00040F70ECF0E9421050091E1031091E2031F
:103AD000055011092091E3033091E403021B130BFD
:103AE000060F171FFFCE8132910509F4DBCBF801D9
:103AF00081938F012AA93BA9E217F30709F0A7CB0D
:103B0000D1CB0E94C31D08F481E00895E89409C058
:103B100097FB3EF490958095709561957F4F8F4F00
:103B20009F4F9923A9F0F92F96E9BB279395F69516
:103B3000879577956795B795F111F8CFFAF4BB0F94
:103B400011F460FF1BC06F5F7F4F8F4F9F4F16C0F8
:103B5000882311F096E911C0772321F09EE8872F82
:103B6000762F05C0662371F096E8862F70E060E03E
:103B70002AF09A95660F771F881FDAF7880F9695B7
:103B8000879597F90895990F0008550FAA0BE0E85B
:103B9000FEEF16161706E807F907C0F0121613060F
:103BA000E407F50798F0621B730B840B950B39F44F
:103BB0000A2661F0232B242B252B21F408950A26B5
:103BC00009F4A140A6958FEF811D811D08950E94E3
:103BD000FA1D0C946B1E0E945D1E38F00E94641E3C
:103BE00020F0952311F00C94541E0C945A1E1124AD
:103BF0000C949F1E0E947C1E70F3959FC1F3950F3D
:103C000050E0551F629FF001729FBB27F00DB11D60
:103C1000639FAA27F00DB11DAA1F649F6627B00DF0
:103C2000A11D661F829F2227B00DA11D621F739FD9
:103C3000B00DA11D621F839FA00D611D221F749FE7
:103C40003327A00D611D231F849F600D211D822F2E
:103C5000762F6A2F11249F5750409AF0F1F0882355
:103C60004AF0EE0FFF1FBB1F661F771F881F915082
:103C70005040A9F79E3F510580F00C94541E0C94BF
:103C80009F1E5F3FE4F3983ED4F386957795679542
:103C9000B795F795E7959F5FC1F7FE2B880F911DAC
:103CA0009695879597F9089597F99F6780E870E052
:103CB00060E008959FEF80EC089500240A941616A2
:103CC000170618060906089500240A94121613060A
:103CD000140605060895092E0394000C11F4882398
:103CE00052F0BB0F40F4BF2B11F460FF04C06F5FB4
:103CF0007F4F8F4F9F4F089557FD9058440F551F8A
:103D000059F05F3F71F04795880F97FB991F61F05D
:103D10009F3F79F087950895121613061406551FD4
:103D2000F2CF4695F1DF08C0161617061806991F40
:103D3000F1CF86957105610508940895E894BB2735
:103D400066277727CB0197F90895052E97FB1EF478
:103D500000940E94BC1E57FD07D00E94CF1E07FC96
:103D600003D04EF40C94BC1E50954095309521958F
:103D70003F4F4F4F5F4F0895909580957095619597
:103D80007F4F8F4F9F4F08950E94F11EA59F900D6A
:103D9000B49F900DA49F800D911D11240895A1E260
:103DA0001A2EAA1BBB1BFD010DC0AA1FBB1FEE1FB5
:103DB000FF1FA217B307E407F50720F0A21BB30B00
:103DC000E40BF50B661F771F881F991F1A9469F77C
:103DD00060957095809590959B01AC01BD01CF01D8
:103DE0000895A29FB001B39FC001A39F700D811DD4
:103DF0001124911DB29F700D811D1124911D0895F4
:103E00005058BB27AA270E94181F0C946B1E0E94B3
:103E10005D1E38F00E94641E20F039F49F3F19F4B3
:103E200026F40C945A1E0EF4E095E7FB0C94541EF5
:103E3000E92F0E947C1E58F3BA17620773078407A4
:103E4000950720F079F4A6F50C949E1E0EF4E095EB
:103E50000B2EBA2FA02D0B01B90190010C01CA0144
:103E6000A0011124FF27591B99F0593F50F4503EEF
:103E700068F11A16F040A22F232F342F4427585FE1
:103E8000F3CF469537952795A795F0405395C9F7F9
:103E90007EF41F16BA0B620B730B840BBAF09150B1
:103EA000A1F0FF0FBB1F661F771F881FC2F70EC050
:103EB000BA0F621F731F841F48F487957795679523
:103EC000B795F7959E3F08F0B0CF9395880F08F00F
:103ED0009927EE0F9795879508950E945D1E60F0D3
:103EE00080E891E009F49EEF0E94641E28F040E80B
:103EF00051E071F45EEF0CC00C945A1E0C949E1E9F
:103F0000E92FE0780E947C1E40F3092E052AB1F3C8
:103F1000261737074807590738F00E2E07F8E0250F
:103F200069F0E025E0640AC0EF6307F8009407FA3F
:103F3000DB01B9019D01DC01CA01AD01EF930E94D3
:103F4000F61F0E946B1E0E94B01F5F91552339F02F
:103F50002BED3FE049E450FD49EC0C94011F08951E
:103F6000DF93DD27B92FBF7740E85FE3161617060A
:103F700048075B0718F4D92F0E94AC209F938F93BA
:103F80007F936F930E94B420ECEAF0E00E948020BF
:103F90000E946B1E2F913F914F915F910E94FA1DDD
:103FA000DD2351F09058A2EA2AED3FE049EC5FE3AF
:103FB000D0785D270E94181FDF910C946B1E0E9421
:103FC000F31F0C946B1E0E94641E58F00E945D1E2D
:103FD00040F029F45F3F29F00C94541E51110C94C9
:103FE0009F1E0C945A1E0E947C1E68F39923B1F305
:103FF000552391F3951B550BBB27AA27621773070F
:10400000840738F09F5F5F4F220F331F441FAA1FA2
:10401000A9F335D00E2E3AF0E0E832D0915050405E
:10402000E695001CCAF72BD0FE2F29D0660F771F0C
:10403000881FBB1F261737074807AB07B0E809F0F2
:10404000BB0B802DBF01FF2793585F4F3AF09E3F77
:10405000510578F00C94541E0C949F1E5F3FE4F3BE
:10406000983ED4F3869577956795B795F7959F5FBA
:10407000C9F7880F911D9695879597F90895E1E006
:10408000660F771F881FBB1F621773078407BA0765
:1040900020F0621B730B840BBA0BEE1F88F7E095C0
:1040A00008950E94841E88F09F5798F0B92F992791
:1040B000B751B0F0E1F0660F771F881F991F1AF013
:1040C000BA95C9F714C0B13091F00E949E1EB1E0BC
:1040D00008950C949E1E672F782F8827B85F39F0BB
:1040E000B93FCCF3869577956795B395D9F73EF4AC
:1040F00090958095709561957F4F8F4F9F4F089554
:10410000DF93CF931F930F93FF92EF92DF927B0188
:104110008C01689406C0DA2EEF010E94FA1DFE01A0
:10412000E894A5912591359145915591A6F3EF011C
:104130000E94181FFE019701A801DA9469F7DF9029
:10414000EF90FF900F911F91CF91DF9108950E9402
:10415000C31D08F48FEF08959B01AC0160E070E08F
:1041600080E89FE30C94DF1F9B01AC010C94E71DDA
:1041700097FB072E16F4009407D077FD09D00E9414
:10418000D22007FC05D03EF4909581959F4F08956D
:10419000709561957F4F0895EE0FFF1F0590F49184
:1041A000E02D0994AA1BBB1B51E107C0AA1FBB1F2E
:1041B000A617B70710F0A61BB70B881F991F5A95B3
:1041C000A9F780959095BC01CD010895FB01DC0114
:1041D0008D91019080190110D9F3990B0895F894ED
:0241E000FFCF0F
:1041E200FF01005A005000FFFFFFFF00E100000046
:1041F2000000000000803FCDCCCC3D6F12833A9589
:10420200BFD6337D1D9026B3CE010CCDCCCC3D0A5A
:10421200D7233C17B7D13877CC2B329595E6241F9C
:10422200B14F0A000020410000C84200401C462055
:10423200BCBE4CCA1B0E5AAEC59D740807161500AB
:10424200C18081000000000000008803E90216031B
:10425200D40347032503390300000000F403790562
:1042620015040A045B0419043704000000009906CF
:104272006C062307420665065206430622225C5C50
:104282006208660C6E0A720D7409006E756C6C0021
:10429200652D00747275650066616C7365006172EC
:1042A2006475696E6F5F7265616479000D0A002042
:1042B200636F6D6D616E64206E6F7420666F756ED4
:1042C200642100646973740074656D7000706974B0
:0842D200636800726F6C6C0060
:00000001FF
