:100000000C94EB000C9413010C9413010C94130149
:100010000C9413010C9413010C9413010C94130110
:100020000C9413010C9413010C944B100C94BA1003
:100030000C9413010C9413010C9413010C941301F0
:100040000C9413010C9413010C9413010C941301E0
:100050000C9413010C9413010C9413010C949F1332
:100060000C9413010C946D130C9447130C9413010E
:100070000C9413010C9413010C9413010C941301B0
:100080000C94EC120C9413010C9413010C941301B6
:100090000C94E9130C9413010C9413010C941301A8
:1000A0000C9413010C9413010C941301084AD73BD0
:1000B0003BCE016E84BCBFFDC12F3D6C74319ABD37
:1000C00056833DDA3D00C77F11BED9E4BB4C3E915B
:1000D0006BAAAABE000000803F00030000000200DF
:1000E000090F0000030401000C00000000000000E4
:1000F00000000000000000000000080B00020202E7
:1001000001000904000001020200000524001001A2
:100110000524010101042402060524060001070547
:10012000810310004009040100020A0000000705D5
:100130000202400000070583024000000403090496
:1001400012010002EF020140412337800001010249
:10015000030141726475696E6F204C4C430041721B
:100160006475696E6F204D6963726F000000000056
:10017000240027002A002D0030000000000023008A
:10018000260029002C002F00000000002500280078
:100190002B002E00310004040404040304050202B1
:1001A0000202040302020202060606060606040410
:1001B00002020204040408020110408040102040A2
:1001C000804080080204018040201002011080104D
:1001D00020404020081511241FBECFEFDAE0DEBF1B
:1001E000CDBF11E0A0E0B1E0EAE7FFE302C0059077
:1001F0000D92AA3EB107D9F724E0AAEEB1E001C002
:100200001D92A835B207E1F710E0CBEED0E004C0B4
:100210002197FE010E94981FCA3ED107C9F70E948C
:10022000B3150C94BB1F0C940000982F2091DD0295
:1002300081E0213208F043C08091B9028111FCCFE6
:100240008091DC0232E03093B9029093B8029FEFC4
:100250009093B7021092B6022093B502ACEBB2E0D5
:10026000E5E9F2E090E0291331C0109294029091F8
:100270009402880F892B809394028091930281309D
:1002800049F510929302809194028093BB00809173
:10029000BC0083FDF8CF85EC8093BC008091B9024F
:1002A0008230E1F38091B7028F3FB1F08091B702C5
:1002B0008032A1F08091B702803391F084E01092F7
:1002C000BB021092DD021092BA0208953D91319363
:1002D0009F5FC9CF85EEE0CF80E0F1CF82E0EFCF26
:1002E00083E0EDCF9091B9029111FCCF91E0909312
:1002F000B9029093B8022FEF2093B7021092B60282
:10030000260F2093B5029093940290919402880F47
:10031000892B80939402809193028130F9F410929A
:100320009302809194028093BB008091BC0083FD76
:10033000F8CF85EC8093BC008091B9028130E1F365
:100340008091B602861710F46091B602A5E9B2E07A
:10035000E3E7F2E080E0861303C0089585EEEACF7C
:100360009D9191938F5FF7CF0895089590E0FC01E0
:10037000EB54FE4F24918A569E4FFC0184918823B2
:1003800099F090E0880F991FFC01E459FE4FA59168
:10039000B491FC01E857FE4F859194918FB7F89482
:1003A000EC91E22BEC938FBF0895FC0180916C02DD
:1003B000882311F13FB7F89482E08093E9002091FF
:1003C000F200822F90E01816190614F481E090E0F4
:1003D000882339F0289A44E640936B024091F1005B
:1003E0004083222339F02091F200211103C02BE633
:1003F0002093E8003FBF08958FEF9FEF08952FB738
:10040000F89483E08093E9009091E800892F80724E
:1004100095FF04C09091F20080E4891B2FBF0895DE
:100420008091630281110DC082E080935F0284E0BD
:1004300080936002109262021092610281E08093C8
:1004400063028FE592E008954091590250915A025B
:10045000209157023091580242175307B4F49091FB
:10046000E8009570E1F39091E80092FD19C0809347
:10047000F1008091590290915A0201968F73992749
:10048000892B19F48EEF8093E800809159029091A6
:100490005A02019690935A028093590281E008957E
:1004A00080E00895EF92FF920F931F93CF93DF9315
:1004B000F82E192FE62E042F81E0860F880F0E9458
:1004C000240283E00E942402CF2DD12FEC0EFD2EBA
:1004D000F11CCE15DF05B9F007FF13C0FE018491B2
:1004E0000E942402182F80E00E942402812321967A
:1004F0008111EFCFDF91CF911F910F91FF90EF907E
:1005000008958881EDCF81E0F5CFDF92EF92FF92E1
:100510000F931F93CF93DF93D82E8A01EB017B01BA
:10052000E40EF51ECE15DF0559F0D7FE12C0FE0110
:1005300084910E94240221968111F4CF0FEF1FEFC6
:10054000C801DF91CF911F910F91FF90EF90DF9045
:1005500008958881EECF0F931F93CF93DF931F925F
:10056000CDB7DEB782E0898342E450E06AEF70E005
:1005700080E80E9485020E941002DC0112960D9113
:100580001C910115110589F0D801ED91FC910280B3
:10059000F381E02DBE016F5F7F4FC801099597FD84
:1005A00004C0F80100851185ECCF89810F90DF919F
:1005B000CF911F910F910895615030F02091F1007B
:1005C000FC0120830196F8CF289A84E680936B0281
:1005D0000895AF92BF92CF92DF92EF92FF920F9366
:1005E0001F93CF93DF936C017B018B01040F151FC9
:1005F000EB015E01AE18BF08C017D10759F0699131
:10060000D601ED91FC910190F081E02DC601099594
:10061000892B79F7C501DF91CF911F910F91FF9041
:10062000EF90DF90CF90BF90AF900895FC01538D75
:10063000448D252F30E0842F90E0821B930B5417BC
:1006400010F0CF96089501970895FC01918D828D49
:10065000981761F0A28DAE0FBF2FB11D5D968C91E2
:10066000928D9F5F9F73928F90E008958FEF9FEF21
:100670000895FC01918D828D981731F0828DE80FDD
:10068000F11D858D90E008958FEF9FEF0895FC0197
:10069000918D228D892F90E0805C9F4F821B910964
:1006A0008F73992708958EED92E00E94470321E011
:1006B000892B09F420E0822F089580E090E0892BB7
:1006C00029F00E94530381110C9400000895FC014D
:1006D000A48DA80FB92FB11DA35ABF4F2C91848DA3
:1006E00090E001968F739927848FA689B7892C9300
:1006F000A089B1898C9182748C93938D848D981389
:1007000006C00288F389E02D80818F7D8083089563
:10071000EF92FF920F931F93CF93DF93EC0181E051
:10072000888F9B8D8C8D981319C0E889F9898081F9
:1007300085FF14C09FB7F894EE89FF896083E8892C
:10074000F9898081827480839FBF81E090E0DF918E
:10075000CF911F910F91FF90EF900895F62E0B8D82
:1007600010E00F5F1F4F0F731127E02E8C8D8E113D
:100770000CC00FB607FCFACFE889F989808185FFA4
:10078000F5CFCE010E946703F1CFEB8DEC0FFD2F6B
:10079000F11DE35AFF4FF0829FB7F8940B8FEA895F
:1007A000FB8980818062CFCFCF93DF93EC01888D6E
:1007B0008823B9F0AA89BB89E889F9898C9185FDDC
:1007C00003C0808186FD0DC00FB607FCF7CF8C916A
:1007D00085FFF2CF808185FFEDCFCE010E946703B8
:1007E000E9CFDF91CF910895CF93DF931F92CDB7DB
:1007F000DEB76983DC01ED91FC910280F381E02D8D
:1008000041E050E0BE016F5F7F4F09950F90DF918F
:10081000CF91089583E08093E9008091F2008823CE
:1008200019F08AE38093E80008950E94FF0190E0A8
:100830000895CF93DF931F92CDB7DEB7FC01848577
:10084000958597FD08C02FEF3FEF358724870F90E0
:10085000DF91CF910895CE0101960E94D5010197B5
:1008600019F4898190E0F3CF8FEF9FEFF0CF0F93D2
:100870001F93CF93DF931F92CDB7DEB78C01FC019E
:100880008485958597FF0BC0CE0101960E94D50106
:10089000019771F4898190E0F80195878487F801C8
:1008A000848595850F90DF91CF911F910F910895C9
:1008B0008FEF9FEFF1CFFC018485958597FD0BC0ED
:1008C0009FB7F89482E08093E9008091F2009FBF87
:1008D00090E0019608959FB7F89482E08093E90034
:1008E0008091F2009FBF90E0089581508F3008F012
:1008F00047C0E82FF0E0E158FB4F0C94981F9C0490
:10090000A0048E0494049804C004C004C004A3048A
:10091000A904AD04B104B704C004BB0480918000F5
:100920008F77809380000895809180008F7DF9CF2C
:1009300080918000877FF5CF84B58F7784BD08953F
:1009400084B58F7DFBCF809190008F77809390004E
:100950000895809190008F7DF9CF80919000877FDE
:10096000F5CF8091C0008F778093C000089580916B
:10097000C0008F7DF9CF8091C200877F8093C20035
:1009800008951F93CF93DF93282F30E0F901E552AC
:10099000FF4F8491F901EB54FE4FD491F901EA56CF
:1009A000FE4FC491CC23A9F0162F81110E9475042B
:1009B000EC2FF0E0EE0FFF1FE857FE4FA591B4912A
:1009C0008FB7F894EC91111108C0D095DE23DC9319
:1009D0008FBFDF91CF911F910895DE2BF8CF10923A
:1009E0007202109271021092BB021092DD021092FC
:1009F000B90281E08093B8021092930261E082E034
:100A00000E94C10461E083E00E94C104E9EBF0E0D0
:100A100080818E7F808380818D7F808388E4809336
:100A2000B80085E48093BC0084EB91E09093700261
:100A300080936F0285EB91E090936E0280936D023C
:100A400008953FB7F8948091370290913802A091B1
:100A50003902B0913A0226B5A89B05C02F3F19F084
:100A60000196A11DB11D3FBFBA2FA92F982F88272E
:100A7000BC01CD01620F711D811D911D42E0660F09
:100A8000771F881F991F4A95D1F708958F929F92DB
:100A9000AF92BF92CF92DF92EF92FF926B017C01F7
:100AA0000E9421054B015C01C114D104E104F10451
:100AB000B9F00E942105681979098A099B09683EE5
:100AC00073408105910580F321E0C21AD108E10845
:100AD000F10888EE880E83E0981EA11CB11CE4CFBB
:100AE000FF90EF90DF90CF90BF90AF909F908F904E
:100AF00008958F929F92AF92BF92CF92DF92EF9222
:100B0000FF920F931F93CF93DF936C017B018A01B8
:100B100080911001882309F45CC080916C028823C5
:100B200009F457C080915D0280FF05C08091E0000C
:100B300082608093E000E801B12C8AEFA82E93E058
:100B4000892E2AE3922E209711F4BB20D9F10E941E
:100B5000FF0181110AC0AA94AA20D9F161E070E0D6
:100B600080E090E00E944605EECF8C171D0611F044
:100B70000CF08C2F9FB7F8948092E9002091E80048
:100B800025FD02C09FBFDFCF282F30E0C21BD30B53
:100B9000F701815020F041914093F100FACFE20E2D
:100BA000F31EBB2021F09092E800B12CEBCF809196
:100BB000E80085FDE7CF9092E800BB24B39420972E
:100BC00009F3F3CF5D9A84E680935E021016110656
:100BD0003CF081E090E0F6019383828310E000E036
:100BE000C801DF91CF911F910F91FF90EF90DF909F
:100BF000CF90BF90AF909F908F9008952FB7F894AB
:100C000060913302709134028091350290913602E6
:100C10002FBF0895DC01ED91FC910190F081E02D52
:100C2000099485ED8093BC008091BC0084FDFCCFCD
:100C30001092B902089520910F02260F3327331F17
:100C400021323105ECF42091B902FC0190E080E002
:100C5000243069F082E00895A0910F022191AC0147
:100C600041515E4FA40FB52FB11D2C9301968617ED
:100C700098F380910F02680F60930F0280E008954F
:100C800081E008950895E091720280917102E81761
:100C900030F4F0E0ED58FD4F808190E008958FEF43
:100CA0009FEF089590917202809171022FEF3FEFB4
:100CB000981748F4E92FF0E0ED58FD4F208130E01F
:100CC0009F5F90937202C901089580917102909183
:100CD0007202891B990B0895CF92DF92EF92FF92D7
:100CE0000F931F93CF93DF937C01CB018A01209157
:100CF000BA02222389F0EB016B01C40ED51ECC157C
:100D0000DD0569F06991D701ED91FC910190F081C9
:100D1000E02DC7010995F3CF642F0E941B06C8017F
:100D2000DF91CF911F910F91FF90EF90DF90CF90C7
:100D30000895CF93DF931F92CDB7DEB769832091DB
:100D4000BA022223F9F02091DD02203258F021E08E
:100D500030E0FC013383228390E080E00F90DF914C
:100D6000CF9108958091BB02E82FF0E0E454FD4F4D
:100D7000998190838F5F8093BB028093DD0281E035
:100D800090E0ECCF61E0CE0101960E941B06F7CF08
:100D900081E00C9415011F93CF93DF93162FC1E5CB
:100DA000D4E0A981BA81988121E02093BA0290937E
:100DB000DC021092BB021092DD02ED91FC911197C2
:100DC0000190F081E02D682FCD01099589819A81EC
:100DD000DC01ED91FC910190F081E02D612F0995EE
:100DE00089819A81DF91CF911F910C94C8061F933E
:100DF000CF93DF93162FC5EED3E0A881B98191E0A0
:100E00009093BA0298E69093DC021092BB02109283
:100E1000DD02ED91FC9111970190F081E02D682F9A
:100E2000CD01099588819981DC01ED91FC910190BA
:100E3000F081E02D612F099588819981DF91CF9113
:100E40001F910C94C80690E080E00895DC01ED91BC
:100E5000FC910190F081E02D09940F931F93CF93A3
:100E6000DF938B01C1E5D4E029813A81988141E08B
:100E70004093BA029093DC021092BB021092DD0202
:100E800094E0899FB00111246A5F7F4FC9010E94DD
:100E9000260770E060E089819A810E940A0670E06E
:100EA00060E089819A810E940A06B80189819A814D
:100EB0000E940A06612F70E089819A810E940A06C9
:100EC00089819A81DF91CF911F910F910C94C8066F
:100ED000CF93DF93EC0188819981461B570BDC018E
:100EE000ED91FC910280F381E02D09952A813B81EF
:100EF000820F931F9B838A83DF91CF910895EF9296
:100F0000FF921F93CF93DF93CDB7DEB766970FB6EF
:100F1000F894DEBF0FBECDBF9C01CB01FE017796DA
:100F20004E2F1F2F5AE0E52EF12CB7010E94841F8F
:100F3000805D8293CB010097C1F7512FBF01C9019A
:100F40000E94680766960FB6F894DEBF0FBECDBF4D
:100F5000DF91CF911F91FF90EF900895CF93DF9392
:100F6000EC0188819981DC01ED91FC910190F08187
:100F7000E02D09952A813B81820F931F9B838A83F1
:100F8000DF91CF9108958F929F92AF92BF92CF92AF
:100F9000DF92EF92FF920F931F93CF93DF93CDB722
:100FA000DEB766970FB6F894DEBF0FBECDBF7C01EB
:100FB0008E01095E1F4F68018AE0882E912CA12CBA
:100FC000B12CCB01BA01A50194010E949B1D942F65
:100FD000852F605DF80162938F01A901692F782F39
:100FE000411551056105710561F7A601BF01C701F2
:100FF0000E94680766960FB6F894DEBF0FBECDBF9D
:10100000DF91CF911F910F91FF90EF90DF90CF90E4
:10101000BF90AF909F908F900895CF93C82F262FA9
:1010200030E0A0EEB1E00E94BD1D24EB30E040E0D6
:1010300050E00E94711DCA01B90168587F4F8F4F5F
:101040009F4F8C2FCF910C942D07FF920F931F93DE
:10105000CF93DF93453B5105B8F5FB0120813181EA
:101060002417350789F18A01EB01F82E241735077B
:10107000A4F4688179810617170734F18F2D0E9437
:101080000D0865E070E080E090E00E9446058881F0
:101090009981019699838883ECCF42175307A4F472
:1010A00068817981601771077CF08F2D0E940D088F
:1010B00065E070E080E090E00E94460588819981BB
:1010C000019799838883ECCFDF91CF911F910F9186
:1010D000FF900895CF93DF93C1E5D4E0A981BA8151
:1010E000988121E02093BA029093DC021092BB0217
:1010F0001092DD02ED91FC9111970190F081E02DAD
:10110000682FCD01099589819A810E94C80661E006
:1011100088810E947201109272028093710289810B
:101120009A81DC01ED91FC910284F385E02D099513
:10113000DF91CF9108958F929F92AF92BF92CF92FD
:10114000DF92EF92FF92CF93C82F90E080E00E9451
:10115000521C6B017C018EEF0E946A08682F70E0C0
:101160006F5F7F4F90E080E00E94521C20E034E2ED
:1011700044E759E40E94B31C4B015C0160915404A4
:101180007091550480915604909157040E94521C0E
:101190009B01AC01C501B4010E94AB1E9B01AC01D7
:1011A000C701B6010E94AB1E0E941D1F8C2FCF915C
:1011B000FF90EF90DF90CF90BF90AF909F908F9077
:1011C0000C942D078F929F92AF92BF92CF92DF9295
:1011D000EF92FF92CF936B017C0120E030E040E87A
:1011E0005FE30E944D1C87FD7AC020E030EC4AE5A9
:1011F00055E4C701B6010E94731F18163CF4C12CB8
:1012000030ECD32E3AE5E32E35E4F32E609154040E
:101210007091550480915604909157040E94521C7D
:101220004B015C0120E030E040E855E4C701B60125
:101230000E94B31C9B01AC01C501B4010E94AB1E0E
:1012400020E030E040E05FE30E94CD1D20E030E090
:1012500040E85FE30E94CC1D6B017C0120E030E0A0
:1012600040E450E40E944D1C87FD40C020E030E087
:101270004FE753E4C701B6010E94731F181634F4F8
:10128000C12CD12C9FE7E92E93E4F92E80E00E9437
:101290006A08C82F682F6F76606180E00E94CB06D5
:1012A000C701B6010E941D1F8EEF0E94CB066C2F56
:1012B00080E00E94CB0665E070E080E090E00E9454
:1012C00046056C2F606A80E0CF91FF90EF90DF9031
:1012D000CF90BF90AF909F908F900C94CB06C12C75
:1012E000D12C20E8E22E2FE3F22E90CFC12CD12C6E
:1012F00080E4E82EFE2CCACF2F923F924F925F924D
:101300006F927F928F929F92AF92BF92CF92DF9215
:10131000EF92FF92CF93DF93CDB7DEB728970FB64A
:10132000F894DEBF0FBECDBF8091E5039091E60338
:1013300021E02093BA0228E62093DC021092BB023F
:101340001092DD026BE370E00E94260780E00E94AD
:1013500015016EE088E60E9472011092720280937D
:1013600071028091E5039091E603DC01ED91FC911F
:101370000284F385E02D0995F82E8091E503909184
:10138000E603DC01ED91FC910284F385E02D0995E3
:1013900020E0822B9F299093E8038093E7038091BC
:1013A000E5039091E603DC01ED91FC910284F38565
:1013B000E02D0995F82E8091E5039091E603DC017C
:1013C000ED91FC910284F385E02D099520E0822BBC
:1013D0009F299093EA038093E9038091E50390911C
:1013E000E603DC01ED91FC910284F385E02D099583
:1013F000F82E8091E5039091E603DC01ED91FC91DC
:101400000284F385E02D099520E0822B9F2990939B
:10141000EC038093EB038091E5039091E603DC01FC
:10142000ED91FC910284F385E02D0995F82E8091D1
:10143000E5039091E603DC01ED91FC910284F385D4
:10144000E02D099520E0822B9F299093EE03809355
:10145000ED038091E5039091E603DC01ED91FC91B1
:101460000284F385E02D0995F82E8091E503909193
:10147000E603DC01ED91FC910284F385E02D0995F2
:1014800020E0822B9F299093F0038093EF038091BB
:10149000E5039091E603DC01ED91FC910284F38574
:1014A000E02D0995F82E8091E5039091E603DC018B
:1014B000ED91FC910284F385E02D099520E0822BCB
:1014C0009F299093F2038093F1038091E50390911B
:1014D000E603DC01ED91FC910284F385E02D099592
:1014E000F82E8091E5039091E603DC01ED91FC91EB
:1014F0000284F385E02D0995612C7F2C682A792AD6
:101500007092F4036092F3036091ED037091EE0327
:10151000072E000C880B990B0E94541C20E030EF22
:1015200041E456E40E94CD1D20E030E04AEA53E455
:101530000E94AB1E60930104709302048093030425
:10154000909304046091E7037091E803072E000C68
:10155000880B990B0E94541C20E030E040E858E3CF
:101560000E94B31C4B015C0180920504909206041A
:10157000A0920704B09208046091E9037091EA0315
:10158000072E000C880B990B0E94541C20E030E0C1
:1015900040E858E30E94B31C6B017C01C09209042F
:1015A000D0920A04E0920B04F0920C046091EB03D9
:1015B0007091EC03072E000C880B990B0E94541CB1
:1015C00020E030E040E858E30E94B31C1B012C01EE
:1015D00020920D0430920E0440920F045092100499
:1015E00020E030E0A901C501B4010E94731FA501EC
:1015F000940118160CF05058C201B1010E94CD1D83
:101600009B01AC01C701B6010E944C1E20E030E0F6
:1016100044EB53E40E94B31C20E030E040E05FE381
:101620000E94B31C2BED3FE049E450E40E94AB1E46
:101630006093290470932A0480932B0490932C04C4
:1016400020E030E0A901C701B6010E94731F1816FF
:1016500024F0F7FAF094F7F8F094A7019601C2018C
:10166000B1010E94CD1D9B01AC01C501B4010E94D6
:101670004C1E20E030E044EB53E40E94B31C20E019
:1016800030E040E05FEB0E94B31C2BED3FE049E40B
:1016900050E40E94AB1E60932D0470932E0480933F
:1016A0002F04909330046091F1037091F203072EA0
:1016B000000C880B990B0E94541C20E030E043E89A
:1016C00052E40E94AB1E6B017C016091EF037091AC
:1016D000F003072E000C880B990B0E94541C20E08D
:1016E00030E043E852E40E94AB1E2091F5033091B4
:1016F000F6034091F7035091F8030E94CC1D6093CC
:101700001104709312048093130490931404209195
:10171000F9033091FA034091FB035091FC03C70198
:10172000B6010E94CC1D609315047093160480933B
:10173000170490931804B301770C880B990B0E943F
:10174000541C20E030E043E852E40E94AB1E20919C
:10175000FD033091FE034091FF03509100040E946D
:10176000CC1D6093190470931A0480931B0490930A
:101770001C040E94FE05C0904504D0904604E090F1
:101780004704F09048046C197D098E099F090E9456
:10179000521C2FE632E143E85AE30E94B31C6B016E
:1017A0007C01C0924104D0924204E0924304F09242
:1017B000440420911104309112044091130450917B
:1017C00014040E94B31C2B013C01AC019B016091ED
:1017D0001D0470911E0480911F04909120040E94AA
:1017E000CD1D60931D0470931E0480931F0490937D
:1017F0002004209115043091160440911704509153
:101800001804C701B6010E94B31C4B015C01AC0176
:101810009B01609121047091220480912304909196
:1018200024040E94CD1D60932104709322048093B0
:101830002304909324042091190430911A044091B8
:101840001B0450911C04C701B6010E94B31C2091D7
:1018500025043091260440912704509128040E94C9
:10186000CD1D6D837E838F8398876093250470934D
:1018700026048093270490932804C0904D04D090B0
:101880004E04E0904F04F0905004809149049091F0
:101890004A04A0914B04B0914C0489839A83AB8392
:1018A000BC83209135043091360440913704509127
:1018B0003804C301B2010E94CD1DA70196010E9408
:1018C000B31C2B013C012091290430912A04409142
:1018D0002B0450912C0469817A818B819C810E9418
:1018E000B31C9B01AC01C301B2010E94CD1D6093EA
:1018F0003504709336048093370490933804209114
:10190000390430913A0440913B0450913C04C501A4
:10191000B4010E94CD1DA70196010E94B31C6B016A
:101920007C0120912D0430912E0440912F04509180
:10193000300469817A818B819C810E94B31C9B0158
:10194000AC01C701B6010E94CD1D609339047093AC
:101950003A0480933B0490933C048D819E81AF8137
:10196000B88580933D0490933E04A0933F04B093C8
:1019700040040E94FE0560934504709346048093E2
:1019800047049093480428960FB6F894DEBF0FBE24
:10199000CDBFDF91CF91FF90EF90DF90CF90BF90C0
:1019A000AF909F908F907F906F905F904F903F90FF
:1019B0002F900895FB0101900020E9F73197AF01C6
:1019C000461B570BDC01ED91FC910280F381E02D69
:1019D0000994CF93DF93EC0188819981FB010190F9
:1019E0000020E9F73197AF01461B570BDC01ED9161
:1019F000FC910280F381E02D09952A813B81820FC1
:101A0000931F9B838A83DF91CF910895FF920F9359
:101A10001F93CF93DF936115710549F465EA71E077
:101A2000DF91CF911F910F91FF900C94E90C8B01E6
:101A3000EC0162E2CE010E94AE07F80161918F01D4
:101A4000662351F0E6E9F1E0F080FF2099F381810F
:101A5000681759F03296F8CF62E2CE01DF91CF914C
:101A60001F910F91FF900C94AE076CE5CE010E9480
:101A7000AE076F2DDFCF2F923F924F925F926F9202
:101A80007F928F929F92AF92BF92CF92DF92EF920E
:101A9000FF920F931F93CF93DF93CDB7DEB7689775
:101AA0000FB6F894DEBF0FBECDBF8C014B01DC0139
:101AB00014968C9114978F77863009F468C2E0F4FD
:101AC000823018F1843008F047C2DB018D919C917F
:101AD000F8014281538160817181DC01ED91FC91BB
:101AE0000280F381E02D0995F40122813381820F78
:101AF000931F93838283DCC18C3091F148F488304A
:101B000009F43FC28A3009F42EC265EA71E04CC282
:101B1000803209F4F4C18034C1F76BE5C4010E943E
:101B2000AE07D8010D911C910115110509F4E2C110
:101B3000B401C8010E943B0DF8018581882309F496
:101B4000D9C1F8E08F02C0011124080F191F011537
:101B5000110509F4CFC16CE2C4010E94AE07E4CFC5
:101B6000F8014080518062807380A3019201C3011B
:101B7000B2010E944D1C8111C8CF20E030E0A901C4
:101B8000C301B2010E944D1C882379F0A301920188
:101B9000C301B2010E94CD1D9B01AC01C301B20182
:101BA0000E944D1C882309F4B0CF20E030E0A90149
:101BB000C301B2010E944D1C87FF08C06DE2C40141
:101BC0000E94AE0777FA709477F8709420E836E9AF
:101BD00048E15BE4C301B2010E94731F87FD79C035
:101BE00039E5E32E31E0F32E49E2C42E41E0D42E54
:101BF00051E4A52E51E0B52E00E210E0312C212C4D
:101C0000D7015E914E913E912E917D01C301B201AB
:101C10000E94731F87FD0DC0F6012489358946890E
:101C20005789C301B2010E94B31C2B013C01200E55
:101C3000311E15950795F4E0CF1AD108AE14BF04F4
:101C4000F9F62FEF298B20E030E0A901C301B201A2
:101C50000E94731F18160CF043C02CEA35EC47E2C3
:101C600057E3C301B2010E944D1C1816CCF19989AB
:101C7000A4E09A0250011124D12CC12CB989BF3F94
:101C800079F17501EC0CFD1CF701EF5EFE4FA3012D
:101C9000920160817181828193810E94731F181665
:101CA0007CF4F701EF5BFE4F20813181428153814B
:101CB000C301B2010E94B31C2B013C01201A310A5E
:101CC00015950795E989E150E98BF4E0CF1AD10821
:101CD000D5CF00E210E085E0898B312C212CB3CFE9
:101CE000C301B2010E941D1F698B7A8B8B8B9C8B69
:101CF0006B017C0116E080E492E4AFE0B0E08D8BF4
:101D00009E8BAF8BB88FB12E11509AE0C916D104BB
:101D1000E104F104C8F06D897E898F89988D2AE0ED
:101D200030E040E050E00E949B1D2D8B3E8B4F8B9E
:101D3000588FC701B6012AE030E040E050E00E9431
:101D40009B1D69017A01DFCF69897A898B899C891A
:101D50000E94521C9B01AC01C301B2010E94CC1D28
:101D60006B017C016D897E898F89988D0E94521C40
:101D70009B01AC01C701B6010E94B31C2B013C01C1
:101D80000E941D1F6B017C010E94521C9B01AC0133
:101D9000C301B2010E94CC1D9B01AC010E94CD1D6C
:101DA0000E941D1FC60ED71EE81EF91E8D899E8932
:101DB000AF89B88DC816D906EA06FB0600F18989F5
:101DC0009A89AB89BC890196A11DB11D898B9A8B1B
:101DD000AB8BBC8B2114310439F10A97A105B105F5
:101DE00018F19FEF291A390AC12CD12C760181E014
:101DF00090E0A0E0B0E0898B9A8BAB8BBC8B8AE043
:101E0000482E512C612C712CC701B601A3019201FF
:101E10000E949B1D672B682B692B51F41B1444F403
:101E200069017A01BA94F0CFC12CD12C7601E7CFA9
:101E300049895A896B897C89C4010E94C307BB20E8
:101E400049F12E0191E1490E511C7B2C82017A94BB
:101E5000AFEF7A1679F0C701B6012AE030E040E032
:101E600050E00E949B1D605DF20162932F016901A9
:101E70007A01EDCF6B2D70E0F801E61BF70B31977F
:101E80008EE2808360957095600F711FA801C40178
:101E90000E94680737FE25C06AEA71E0C4010E940B
:101EA000E90C6627772762197309C4010E947F072E
:101EB00068960FB6F894DEBF0FBECDBFDF91CF910D
:101EC0001F910F91FF90EF90DF90CF90BF90AF9058
:101ED0009F908F907F906F905F904F903F902F904A
:101EE00008952114310421F365E6C4010E94AE0770
:101EF000B101DBCF6DE5C4010E94AE07D9CF6BE71E
:101F0000C4010E94AE07D8010D911C910115110565
:101F100009F1F80166817781C4010E94060D6AE328
:101F2000C4010E94AE07B401C8010E943B0DD80154
:101F300015968C91882371F0B8E08B02C0011124B2
:101F4000080F191F0115110529F06CE2C4010E9448
:101F5000AE07DCCF6DE7CFCFF80160817181C4019E
:101F60000E94060DA5CFCD90DD90ED90FC906DE226
:101F7000C4010E94AE07B701A601C4010E94C307B5
:101F800097CFF8014081518162817381F6CFF801CA
:101F900080819181A281B3816DEA71E0892B8A2BC6
:101FA0008B2B11F462EB71E0C4010E94E90C80CF2D
:101FB000CF92DF92EF92FF920F931F93CF93DF9315
:101FC000FC018481982F9F7739F480788062848324
:101FD0001182108213821282848185FD0CC0F0E090
:101FE000E0E0CF01DF91CF911F910F91FF90EF9033
:101FF000DF90CF9008957A018B016F01C081D1816C
:10200000209709F16E817F8160177107D1F001156A
:10201000110541F06115710529F0C8010E94B21F38
:10202000882379F08D81882371F028E08202C00135
:102030001124C80FD91FE4CFF983E883FB83EA8317
:1020400025C0FE01CECFE701EC81FD818A819B8115
:102050000896E817F90718F23897D7011596FC93F8
:10206000EE931497309709F4BACFE601AA81BB81A9
:10207000109711F3CF018A1B9B0B23E09595879551
:102080002A95E1F715968C93FB83EA8315821482D7
:1020900017830683A6CF1F920F920FB60F921124BB
:1020A0008F939F938091E1009091E100937F9093B3
:1020B000E10083FF0FC01092E90091E09093EB00E4
:1020C0001092EC0092E39093ED0010926C0298E075
:1020D0009093F00082FF22C093E09093E9009091EA
:1020E000F200992319F09AE39093E80090915E0230
:1020F000992341F090915E02915090935E0291116C
:1021000001C05D9890916B02992341F090916B0210
:10211000915090936B02911101C0289884FF18C0D0
:102120008091E2008E7E81608093E2008091E100E8
:102130008F7E8093E10080915D028E7E806180932E
:102140005D029F918F910F900FBE0F901F90189579
:1021500080FFF7CF8091E2008E7E80618093E20065
:102160008091E1008E7E8093E10080915D028E7E01
:102170008160E5CF1F920F920FB60F921124CF927C
:10218000DF92EF92FF920F931F932F933F934F9302
:102190005F936F937F938F939F93AF93BF93EF93CF
:1021A000FF93CF93DF93CDB7DEB76C97DEBFCDBF84
:1021B0001092E9008091E80083FF25C068E0CE011D
:1021C00045960E94DC0282EF8093E8008D8987FFAC
:1021D00039C09091E80090FFFCCF982F907609F0DD
:1021E00034C19E894F89588D2F89F88C911131C047
:1021F000803861F580915C028093F1001092F100CB
:102200008EEF8093E8006C960FB6F894DEBF0FBE99
:10221000CDBFDF91CF91FF91EF91BF91AF919F9192
:102220008F917F916F915F914F913F912F911F916E
:102230000F91FF90EF90DF90CF900F900FBE0F9017
:102240001F9018959EEF9093E800C7CF1092F10071
:10225000D5CF913059F48111D3CF4130510581F65A
:1022600080915C028D7F80935C02CACF933049F4E9
:102270008111C6CF4130510519F680915C02826010
:10228000F2CF953041F48091E80080FFFCCF2068C8
:102290002093E300B5CF963009F0A9C00B8D1C8DBB
:1022A00022E01092E90010925A0210925902F212A2
:1022B0002EC010925802109257020E94AB021F8249
:1022C00099E09983FA8291E09E8390EA98879AEF49
:1022D00099872091590230915A02275F3F4F3C83E2
:1022E0002B838D831092E90010925A0210925902AA
:1022F000109358020093570249E050E0BE016F5F0F
:102300007F4F80E00E9485020E94AB0279CF10933C
:102310005802009357020E941002DC0112960D91A0
:102320001C910115110509F451C1D801ED91FC91E1
:102330000480F581E02DBE016B5E7F4FC8010995D9
:10234000009709F03EC1F80100851185EACFF3E05E
:10235000FF120EC08F89882309F440C0823061F4D7
:1023600040E86DE08EE591E00E945202811148CF75
:1023700081E28093EB0047CF813029F440E86BE0A5
:1023800082E591E0F1CF833099F70E941002DC01E1
:102390001296ED90FC908E010F5F1F4F6801E114C3
:1023A000F10479F0D701ED91FC910680F781E02DE1
:1023B000B801C7010995080F111DF701E084F184E8
:1023C000EECFD8011C92F60101900020E9F7319779
:1023D000BF016C197D0940E0C601C6CF6CE371E016
:1023E000FB01449150E080E80E94850209CF9730BC
:1023F00009F4BECF983021F481E08093F10000CF42
:10240000993009F0FDCE837009F0B2CFEAE5F1E032
:1024100081E031E096E32191222371F08093E9007D
:102420003093EB00DF0111972C912093EC009093F7
:10243000ED008F5F873079F78EE78093EA00109286
:10244000EA008F8980936C02DBCE8B8D9C8D10927D
:10245000E90010925A021092590290935802809308
:102460005702898D811192C08E899D89913A49F4D4
:10247000813209F07DCF47E050E069E071E080E013
:10248000B3CF913209F074CF833269F48F89988D7C
:10249000B0E0A0E08093050190930601A0930701AE
:1024A000B0930801ADCE803269F48091E80082FFDC
:1024B000FCCF67E089E091E00E94DC028BEF809323
:1024C000E8009ECE823209F09BCE8F898093100166
:1024D000EEEFFFE7859194918B3F9C4D51F1E0E049
:1024E000F8E08091090190910A01A0910B01B0914F
:1024F0000C01803B9440A105B105F1F480911001DD
:1025000080FD1AC0EE3F8AE0F80789F587E797E774
:10251000918380838091600080935B0288E19BE0DF
:102520000FB6F894A895809360000FBE909360005A
:1025300067CEEEEFFAE0D5CF80819181873797475C
:1025400009F05ECEA895809160008861809360005C
:1025500080915B0280936000EE3F2AE0F20789F0F1
:102560008091FE0A9091FF0A9183808349CE8081F9
:1025700091818737980751F29093FF0A8093FE0A62
:10258000C5CF1092FF0A1092FE0A3ACE0E941002A6
:10259000DC0112960D911C910115110509F4E8CE8C
:1025A000D801ED91FC910190F081E02DBE016B5EB0
:1025B0007F4FC8010995811123CEF801008511854F
:1025C000EBCF181619060CF41BCED2CEF1E0FF1299
:1025D000BECE60E471E004CF1F920F920FB60F924F
:1025E00011248F939F93AF93BF93EF93FF938091A9
:1025F000530290915402A0915502B0915602892B3A
:102600008A2B8B2BA1F190915202E0915002F09114
:1026100051028081892780838091530290915402D6
:10262000A0915502B0915602181619061A061B06FB
:102630009CF48091530290915402A0915502B09164
:1026400056020197A109B109809353029093540255
:10265000A0935502B0935602FF91EF91BF91AF91B5
:102660009F918F910F900FBE0F901F9018958091A2
:1026700071008D7F8093710080915202E091500231
:10268000F09151029081809589238083E5CF1F923C
:102690000F920FB60F9211242F933F934F935F9396
:1026A0006F937F938F939F93AF93BF93EF93FF931A
:1026B0008EED92E00E946703FF91EF91BF91AF9181
:1026C0009F918F917F916F915F914F913F912F914A
:1026D0000F900FBE0F901F9018951F920F920FB67C
:1026E0000F9211242F938F939F93EF93FF93E09179
:1026F000EE02F091EF028081E091F402F091F50298
:1027000082FD1BC090818091F7028F5F8F732091B3
:10271000F802821741F0E091F702F0E0E252FD4F3B
:10272000958F8093F702FF91EF919F918F912F9159
:102730000F900FBE0F901F9018958081F4CF1F92BD
:102740000F920FB60F9211242F933F938F939F9365
:10275000AF93BF938091330290913402A0913502E0
:10276000B09136023091320223E0230F2D3758F515
:102770000196A11DB11D20933202809333029093E4
:102780003402A0933502B0933602809137029091C3
:102790003802A0913902B0913A020196A11DB11DF3
:1027A0008093370290933802A0933902B0933A0293
:1027B000BF91AF919F918F913F912F910F900FBE3D
:1027C0000F901F90189526E8230F0296A11DB11DAA
:1027D000D2CF1F920F920FB60F9211242F933F93D7
:1027E0004F935F936F937F938F939F93AF93BF9319
:1027F000EF93FF938091B900887F803609F44AC037
:10280000F0F5883209F4A7C018F5803109F49BC0AF
:10281000B8F4882309F4F9C0883009F494C0FF9112
:10282000EF91BF91AF919F918F917F916F915F9148
:102830004F913F912F910F900FBE0F901F901895C1
:10284000883109F488C0803251F78093B70214C0F0
:10285000803409F49DC040F48033B9F38833F9F62D
:102860008093B70285ECB0C0803509F485C0883507
:1028700009F496C0883499F60E941106D0CF8839A1
:1028800009F48CC038F5883729F050F4883611F0F7
:10289000803729F683E08093B9021092310257C045
:1028A000883809F47BC0803919F0803809F0B7CF37
:1028B00080913102803208F071C0E091310281E0F4
:1028C0008E0F809331028091BB00F0E0EF5EFD4FF0
:1028D00080833DC0803B39F0E0F4803A09F479C050
:1028E000883A09F09CCF84E08093B90210921002DC
:1028F00010920F02E0916F02F091700209958091A1
:102900000F0281110FC081E080930F021092EF013E
:1029100009C0803C09F4A6CF883C09F4A3CF883BCA
:1029200009F07DCFE091100281E08E0F80931002BC
:10293000F0E0E151FE4F80818093BB009091100246
:1029400080910F0229C0809194028093BB0085EC96
:102950008093BC0064CF9091B6028091B502981725
:1029600058F5E091B60281E08E0F8093B602F0E058
:10297000EB56FD4F8081E9CFE091B60281E08E0FEA
:102980008093B6028091BB00F0E0EB56FD4F808350
:102990009091B6028091B5029817C8F285E8D8CF19
:1029A000E091B60281E08E0F8093B6028091BB0069
:1029B000F0E0EB56FD4F80838091B80281115CCF2F
:1029C00081E08093930284EA8093BC001092B90264
:1029D00026CF85EC8093BC001092B9028091310221
:1029E000803230F4E0913102F0E0EF5EFD4F108272
:1029F0006091310270E0E0916D02F0916E0281E130
:102A000092E00995109231020ACF1092B70234CFAA
:102A1000EEEDF2E01382128288EE93E0A0E0B0E0E7
:102A200084839583A683B78324E631E031832083B2
:102A30002DEC30E0358724872CEC30E03787268773
:102A400028EC30E0318B208B29EC30E0338B228B6B
:102A50002AEC30E0358B248B2EEC30E0378B268B44
:102A6000118E128E138E148EEBE7F3E01382128216
:102A700084839583A683B78326E731E0318320835F
:102A80002FEF3FEF35872487E9EDF3E013821282C1
:102A900084839583A683B78388E891E091838083BC
:102AA000A1E5B4E080E48C931296FC93EE93119729
:102AB000F093E603E093E5038AE097EDA3EABCE335
:102AC0008093490490934A04A0934B04B0934C0420
:102AD00088E491EEAAE7BFE380934D0490934E04FF
:102AE000A0934F04B0935004E8ECF1E0E491ABEC18
:102AF000B3E0EC93E9ECF1E0E4911196EC931197DB
:102B000089EA91E0FC012491E22FF0E0EE0FFF1F33
:102B1000E857FE4F2591349113963C932E931297CC
:102B2000EAEAF1E0E491F0E0EE0FFF1FE658FE4F15
:102B30002591349115963C932E931497FC01849122
:102B4000E82FF0E0EE0FFF1FE459FE4F85919491BE
:102B500017969C938E9316978DE796E119969C9302
:102B60008E9318970895CF93DF93CDB7DEB7EE9786
:102B70000FB6F894DEBF0FBECDBF789484B58260E7
:102B800084BD84B5816084BD85B5826085BD85B511
:102B9000816085BD80916E00816080936E0010928F
:102BA000810080918100826080938100809181000A
:102BB000816080938100809180008160809380009B
:102BC000809191008260809391008091910081605A
:102BD000809391008091900081608093900080911B
:102BE000C10084608093C1008091C10082608093A5
:102BF000C1008091C10081608093C1008091C300B9
:102C000081608093C3008091C00082608093C00087
:102C10008091C20081608093C20080917A008460BC
:102C200080937A0080917A00826080937A0080910C
:102C30007A00816080937A0080917A008068809326
:102C40007A0010926C0210925C0210925D028091E8
:102C5000D70081608093D70080EA8093D80089B53F
:102C6000806189BD89B5826089BD09B400FEFDCF50
:102C700061E070E080E090E00E9446058091D8001D
:102C80008F7C80618093D8008091E000807F80936A
:102C9000E0008091E1008E7E8093E1008DE08093E2
:102CA000E200559A209A5D98289882E10E94B60128
:102CB00082E00E94B6010E94EF0480ED8093BA008A
:102CC00060E089E10E94F70660E08AE10E94F70671
:102CD00068E08BE10E94F70660E08CE10E94F70655
:102CE00061E08BE60E94F7060E947C0910921D04A9
:102CF00010921E0410921F041092200410922104BE
:102D0000109222041092230410922404809129042A
:102D100090912A04A0912B04B0912C048093350447
:102D200090933604A0933704B093380480912D0417
:102D300090912E04A0912F04B09130048093390417
:102D400090933A04A0933B04B0933C040E94FE0588
:102D5000609345047093460480934704909348041D
:102D600068EE73E080E090E00E94460508EB1BE00F
:102D7000C12CD12C760146015701260137018091E3
:102D8000E5039091E60321E02093BA0238E6309300
:102D9000DC021092BB021092DD0263E470E00E943C
:102DA000260780E00E94150166E088E60E94720115
:102DB00010927202809371028091E5039091E60374
:102DC000DC01ED91FC910284F385E02D0995382E0C
:102DD0008091E5039091E603DC01ED91FC91028482
:102DE000F385E02D09953DAA1CAAECA9FDA9E82BC5
:102DF000F92BFBAFEAAF8091E5039091E603DC018C
:102E0000ED91FC910284F385E02D0995382E809197
:102E1000E5039091E603DC01ED91FC910284F385DA
:102E2000E02D09953FAA1EAAEEA9FFA9E82BF92BD0
:102E3000FDAFECAF8091E5039091E603DC01ED91ED
:102E4000FC910284F385E02D09958EAF8091E50316
:102E50009091E603DC01ED91FC910284F385E02D75
:102E600009951C01EAADFBADBF01FF0F880B990B63
:102E70000E94541C20E030E043E852E40E94AB1E64
:102E80009B01AC01C301B2010E94CD1D2B013C018D
:102E90002CAD3DADB901330F880B990B0E94541C2A
:102EA00020E030E043E852E40E94AB1E9B01AC01FD
:102EB000C501B4010E94CD1D4B015C013EAD39AF8F
:102EC00018AE68AD79AD62297329072E000C880B06
:102ED000990B0E94541C20E030E043E852E40E9429
:102EE000AB1E9B01AC01C701B6010E94CD1D6B0159
:102EF0007C010150110909F042CF20E030E84BE39A
:102F000055E4C301B2010E94AB1E6093F5037093B8
:102F1000F6038093F7039093F80320E030E84BE347
:102F200055E4C501B4010E94AB1E6093F903709390
:102F3000FA038093FB039093FC0320E030E84BE31B
:102F400055E4C701B6010E94AB1E6093FD03709368
:102F5000FE038093FF03909300040E94EF0460E857
:102F600080E00E94CB066AE070E080E090E00E9482
:102F7000460560E070E08AE794E40E94E20880E49D
:102F800098E7ADE7B1E08093540490935504A09383
:102F90005604B093570460E070E088E492E40E9425
:102FA000E20868EE73E084E00E949B0868EE73E03C
:102FB00085E00E949B0864EF71E080E090E00E9451
:102FC000460564EB87E00E940D08609103018EE0E6
:102FD0000E940D08609101018FE00E940D08E091B0
:102FE000EE02F091EF0282E08083E091EA02F0913C
:102FF000EB021082E091EC02F091ED0280E180831F
:103000001092F602E091F202F091F30286E08083E2
:10301000E091F002F091F102808180618083E09183
:10302000F002F091F102808188608083E091F002EB
:10303000F091F102808180688083E091F002F0914C
:10304000F10280818F7D808368EB71E08EED92E0EC
:103050000E94DA0C6EEB71E08EED92E00E94DA0CC9
:103060001E018EE2280E311C54EB452E512C612C92
:10307000712C68EE862E63E0962EA12CB12CDE0119
:10308000D196BBABAAAB8EED92E00E944703892B91
:1030900009F48BC28E01025D1F4F0E94FE056093F2
:1030A000E6027093E7028093E8029093E9028EEDC6
:1030B00092E00E94250397FFE2C30E94FE05C090A4
:1030C000E602D090E702E090E802F090E9026C1985
:1030D0007D098E099F09C090E202D090E302E09042
:1030E000E402F090E5026C157D058E059F05F8F26F
:1030F000AFA54A2F50E02EA5EFEFE20FEC3008F01D
:1031000028C2F0E0EA57F74E0C94981F161A161AC8
:10311000161A161A161A161A921898189C18481A7F
:10312000651A941A63E071E08EE00E9425087EC162
:1031300061E071E08FE0F9CFCA2ED12CF12CE12CA7
:10314000809100018230B1F4EAEDF0E0149117FDB6
:1031500054C182E00E94B601112309F49DC01230CF
:1031600009F0ABC0C114D104E104F10409F445C174
:1031700009EFA1C08F3F09F040C182E080930001B8
:10318000EAEDF0E014911F3F09F437C1113031F13D
:1031900060F0133009F440C0143009F45FC017FD2B
:1031A0002CC182E00E94B601DACF14BC15BC84B5F4
:1031B000826084BD85B5816085BDE8E9F1E0E49178
:1031C000F0E0EE0FFF1FE857FE4F85919491E7EB7B
:1031D000F1E0E491E0933D0210E0BBCF109280005B
:1031E000109281008091810088608093810080919D
:1031F0008100816080938100E8E9F1E0E491F0E0F2
:10320000EE0FFF1FE857FE4F85919491E7EBF1E039
:10321000E491E0933C029DCF1092900010929100B7
:1032200080919100886080939100809191008160ED
:1032300080939100E8E9F1E0E491F0E0EE0FFF1FE8
:10324000E857FE4F859194919093510280935002DC
:10325000E7EBF1E0E491E09352027BCF1092C000E3
:103260001092C1008091C10088608093C10080915C
:10327000C10081608093C100E8E9F1E0E491F0E0F1
:10328000EE0FFF1FE857FE4F85919491E7EBF1E0B9
:10329000E491E0933B025DCF85B5887F836085BD77
:1032A0002FEF3FEFA9010CE7C114D104E104F104B1
:1032B00009F481C00CE71CAA6EC0113031F5809171
:1032C0008100887F816080938100C114D104E10472
:1032D000F10409F07FC02FEF3FEFA9010FE38FE169
:1032E0008CAB802F9CA990938900809388002093B9
:1032F000420230934302409344025093450280912E
:103300006F00826080936F0078C0133031F5809138
:103310009100887F816080939100C114D104E10401
:10332000F10409F05BC02FEF3FEFA9010FE39FE12C
:103330009CAB802F9CA99093990080939800209338
:103340005302309354024093550250935602809199
:10335000710082608093710050C01430A1F480919C
:10336000C100887F81608093C1002FEF3FEFA901EA
:103370000FE3C114D104E104F10409F464C00FE3C4
:10338000FFE1FCAB08C00FE3C114D104E104F10478
:1033900049F1AFE1ACABA0EDB7E0A70196010E9407
:1033A000901DA50194010E949B1D113009F499CF35
:1033B000FCF4111122C007BD20934602309347024E
:1033C000409348025093490280916E00826080933E
:1033D0006E0013C00FE3BFE1BCABDDCF0FE3EFE145
:1033E000ECABD9CF2FE12CAB2FEF3FEFA901DDCF15
:1033F000133009F49ECF143031F1C701B6010E9499
:10340000460580910001823069F4EAEDF0E0E49134
:103410008FEF80930001E13049F128F1E33061F151
:10342000E43081F160E082E00E94C10480E090E03D
:10343000892B09F428CE0E945303882309F41FCE58
:103440000E9400001CCE0093CF0020933E023093D8
:103450003F02409340025093410280917200806489
:1034600080937200CACF10926E00DCCF80916F0003
:103470008D7F80936F00D6CF809171008D7F809378
:103480007100D0CF809172008F7B80937200CACF81
:10349000EDEEF0E08491E7ECF1E00491E8EAF1E090
:1034A0001491112379F081110E947504E12FF0E04D
:1034B000EE0FFF1FE658FE4FA591B491EC910E233D
:1034C00060E009F461E082E1AFCF62EE74E084E095
:1034D0000E949B0862EE74E085E00E949B0868EC05
:1034E00070E080E090E00E9446056AE586E00E9478
:1034F0000D0860E273E080E090E00E94460564EB16
:1035000086E00E940D0860E971E080E090E00E9492
:10351000460568EE73E084E00E949B0868EE73E065
:1035200085E00E949B0882CFB0E026EA3FEF4FEF94
:103530005FEF0E94901DA30192010E94711DBA01CC
:10354000A9014C545F4F6F4F7F4F6AE472E087E0F0
:10355000ECCD30E050E040E019A28E010F5D1F4F2E
:10356000CA01B9012AE030E040E050E00E949B1D12
:10357000605DD8016E938D0121153105410551051E
:1035800079F7109729F0BD018EED92E00E94DA0CD8
:1035900061EC71E08EED92E00E94DA0C6EEB71E06E
:1035A0008EED92E00E94DA0C41CF0E94FE05009160
:1035B0004C0210914D0220914E0230914F02601B3F
:1035C000710B820B930B653F71408105910508F4E7
:1035D0002DCF0E947C09EEE0F0E0EC0FFD1FFA8396
:1035E000E983FC83EB833E822D8238862F828D8592
:1035F00080788D87E091D103F091D2038081909102
:10360000CB03892B8083E091CD03F091CE03908191
:103610008091CB038095892380838BE090E0019794
:10362000F1F7E091CD03F091CE0380819091CB032F
:10363000892B808383E290E00197F1F7E091CD033D
:10364000F091CE0390818091CB0380958923808374
:10365000E091D103F091D20390818091CB038095CA
:1036600089238083E091CF03F091D00380819091F2
:10367000CC03892309F494C010E000E0AE014F5F51
:103680005F4F65ED71E0CE0109960E94D80F7C0175
:103690000097B1F0DC0114968C91149780788860C3
:1036A00014968C93B80190E080E029E330E040E08C
:1036B00050E00E949B1DF701208331834283538396
:1036C000C0900104D0900204E0900304F090040440
:1036D000AE014F5F5F4F6AED71E0CE0109960E9427
:1036E000D80FFC01892B41F0948190789C609483E1
:1036F000C082D182E282F382C0902904D0902A0451
:10370000E0902B04F0902C04AE014F5F5F4F6FED03
:1037100071E0CE0109960E94D80FFC01892B41F07F
:10372000948190789C609483C082D182E282F382FB
:10373000C0902D04D0902E04E0902F04F09030041F
:10374000AE014F5F5F4F65EE71E0CE0109960E94BA
:10375000D80FFC01892B41F0948190789C60948370
:10376000C082D182E282F3828EED92E09FA78EA783
:1037700019AA18AAB101CE0109960E943B0D6EEB61
:1037800071E08EED92E00E94DA0C0E94FE056093DB
:103790004C0270934D0280934E0290934F0246CE9E
:1037A0000E942105AB01BC018091D3039091D40309
:1037B000B0E0A0E08855994EAF4FBF4F840F951FE2
:1037C000A61FB71F8093D5039093D603A093D7036A
:1037D000B093D803E091CF03F091D0038081909112
:1037E000CC03892381F40E9421050091D503109117
:1037F000D6032091D7033091D8030617170728075F
:10380000390740F739CF0E9421052091D303309129
:10381000D403620F731F811D911D6093D5037093B4
:10382000D6038093D7039093D803E091CF03F09110
:10383000D00380819091CC03892381F00E942105DF
:103840000091D5031091D6032091D7033091D8036E
:10385000061717072807390740F70ECF0E942105E2
:103860000091D3031091D403055011092091D50381
:103870003091D603021B130B060F171FFFCE8132A8
:10388000910509F435CCF80181938F012AA93BA950
:10389000E217F30709F001CC2BCC0E948F1C08F42F
:1038A00081E00895E89409C097FB3EF490958095D7
:1038B000709561957F4F8F4F9F4F9923A9F0F92FF6
:1038C00096E9BB279395F695879577956795B79574
:1038D000F111F8CFFAF4BB0F11F460FF1BC06F5F5A
:1038E0007F4F8F4F9F4F16C0882311F096E911C06C
:1038F000772321F09EE8872F762F05C0662371F08D
:1039000096E8862F70E060E02AF09A95660F771FA0
:10391000881FDAF7880F9695879597F90895990F7C
:103920000008550FAA0BE0E8FEEF16161706E80789
:10393000F907C0F012161306E407F50798F0621BAA
:10394000730B840B950B39F40A2661F0232B242B7F
:10395000252B21F408950A2609F4A140A6958FEF9E
:10396000811D811D08950E94C61C0C94371D0E9464
:10397000291D38F00E94301D20F0952311F00C9481
:10398000201D0C94261D11240C946B1D0E94481DB3
:1039900070F3959FC1F3950F50E0551F629FF001A2
:1039A000729FBB27F00DB11D639FAA27F00DB11DBB
:1039B000AA1F649F6627B00DA11D661F829F222744
:1039C000B00DA11D621F739FB00DA11D621F839FCB
:1039D000A00D611D221F749F3327A00D611D231FA1
:1039E000849F600D211D822F762F6A2F11249F57EF
:1039F00050409AF0F1F088234AF0EE0FFF1FBB1FF2
:103A0000661F771F881F91505040A9F79E3F5105B0
:103A100080F00C94201D0C946B1D5F3FE4F3983EE6
:103A2000D4F3869577956795B795F795E7959F5F5A
:103A3000C1F7FE2B880F911D9695879597F90895EC
:103A400097F99F6780E870E060E008959FEF80EC51
:103A5000089500240A9416161706180609060895F4
:103A600000240A9412161306140605060895092E5A
:103A70000394000C11F4882352F0BB0F40F4BF2BC9
:103A800011F460FF04C06F5F7F4F8F4F9F4F089509
:103A900057FD9058440F551F59F05F3F71F04795FF
:103AA000880F97FB991F61F09F3F79F087950895E4
:103AB000121613061406551FF2CF4695F1DF08C003
:103AC000161617061806991FF1CF86957105610520
:103AD00008940895E894BB2766277727CB0197F9C8
:103AE0000895052E97FB1EF400940E94881D57FD33
:103AF00007D00E949B1D07FC03D04EF40C94881D38
:103B000050954095309521953F4F4F4F5F4F089509
:103B100090958095709561957F4F8F4F9F4F089539
:103B20000E94BD1DA59F900DB49F900DA49F800D78
:103B3000911D11240895A1E21A2EAA1BBB1BFD01A1
:103B40000DC0AA1FBB1FEE1FFF1FA217B307E4077C
:103B5000F50720F0A21BB30BE40BF50B661F771FD4
:103B6000881F991F1A9469F76095709580959095B4
:103B70009B01AC01BD01CF010895A29FB001B39F8D
:103B8000C001A39F700D811D1124911DB29F700D66
:103B9000811D1124911D08955058BB27AA270E940A
:103BA000E41D0C94371D0E94291D38F00E94301D21
:103BB00020F039F49F3F19F426F40C94261D0EF4DE
:103BC000E095E7FB0C94201DE92F0E94481D58F357
:103BD000BA17620773078407950720F079F4A6F5F2
:103BE0000C946A1D0EF4E0950B2EBA2FA02D0B013C
:103BF000B90190010C01CA01A0011124FF27591B32
:103C000099F0593F50F4503E68F11A16F040A22F37
:103C1000232F342F4427585FF3CF469537952795A8
:103C2000A795F0405395C9F77EF41F16BA0B620BA7
:103C3000730B840BBAF09150A1F0FF0FBB1F661FEE
:103C4000771F881FC2F70EC0BA0F621F731F841F31
:103C500048F4879577956795B795F7959E3F08F057
:103C6000B0CF9395880F08F09927EE0F9795879519
:103C700008950E94291D60F080E891E009F49EEF0C
:103C80000E94301D28F040E851E071F45EEF0CC056
:103C90000C94261D0C946A1DE92FE0780E94481DA3
:103CA00040F3092E052AB1F32617370748075907AD
:103CB00038F00E2E07F8E02569F0E025E0640AC030
:103CC000EF6307F8009407FADB01B9019D01DC01FD
:103CD000CA01AD01EF930E94C21E0E94371D0E94CF
:103CE0007C1E5F91552339F02BED3FE049E450FDF8
:103CF00049EC0C94CD1D0895DF93DD27B92FBF77D4
:103D000040E85FE31616170648075B0718F4D92F3B
:103D10000E94781F9F938F937F936F930E94801FC1
:103D2000ECEAF0E00E944C1F0E94371D2F913F915A
:103D30004F915F910E94C61CDD2351F09058A2EA7A
:103D40002AED3FE049EC5FE3D0785D270E94E41D57
:103D5000DF910C94371D0E94BF1E0C94371D0E94EA
:103D6000301D58F00E94291D40F029F45F3F29F0D2
:103D70000C94201D51110C946B1D0C94261D0E9457
:103D8000481D68F39923B1F3552391F3951B550B07
:103D9000BB27AA2762177307840738F09F5F5F4F1E
:103DA000220F331F441FAA1FA9F335D00E2E3AF05D
:103DB000E0E832D091505040E695001CCAF72BD075
:103DC000FE2F29D0660F771F881FBB1F26173707C6
:103DD0004807AB07B0E809F0BB0B802DBF01FF27F8
:103DE00093585F4F3AF09E3F510578F00C94201D98
:103DF0000C946B1D5F3FE4F3983ED4F38695779562
:103E00006795B795F7959F5FC9F7880F911D9695B0
:103E1000879597F90895E1E0660F771F881FBB1F0C
:103E2000621773078407BA0720F0621B730B840BB9
:103E3000BA0BEE1F88F7E09508950E94501D88F098
:103E40009F5798F0B92F9927B751B0F0E1F0660F5E
:103E5000771F881F991F1AF0BA95C9F714C0B1309F
:103E600091F00E946A1DB1E008950C946A1D672FBD
:103E7000782F8827B85F39F0B93FCCF386957795CE
:103E80006795B395D9F73EF49095809570956195B7
:103E90007F4F8F4F9F4F0895DF93CF931F930F93C3
:103EA000FF92EF92DF927B018C01689406C0DA2EBC
:103EB000EF010E94C61CFE01E894A5912591359161
:103EC00045915591A6F3EF010E94E41DFE01970173
:103ED000A801DA9469F7DF90EF90FF900F911F919E
:103EE000CF91DF9108950E948F1C08F48FEF089501
:103EF0009B01AC0160E070E080E89FE30C94AB1E96
:103F00009B01AC010C94B31C97FB072E16F4009494
:103F100007D077FD09D00E949E1F07FC05D03EF414
:103F2000909581959F4F0895709561957F4F089565
:103F3000EE0FFF1F0590F491E02D0994AA1BBB1B07
:103F400051E107C0AA1FBB1FA617B70710F0A61B99
:103F5000B70B881F991F5A95A9F780959095BC01BA
:103F6000CD010895FB01DC018D91019080190110B4
:0A3F7000D9F3990B0895F894FFCFE0
:103F7A00FF01005A00FFFFFFFF00E1000000000000
:103F8A00000000803FCDCCCC3D6F12833A95BFD65E
:103F9A00337D1D9026B3CE010CCDCCCC3D0AD72360
:103FAA003C17B7D13877CC2B329595E6241FB14F01
:103FBA000A000020410000C84200401C4620BCBE46
:103FCA004CCA1B0E5AAEC59D7400C1808100000008
:103FDA00000000008803E9021603D40347032503FF
:103FEA00390300000000F403790515040A045B0490
:103FFA00190437040000000099066C0623074206DC
:10400A0065065206430622225C5C6208660C6E0A4A
:10401A00720D7409006E756C6C00652D00747275F2
:10402A00650066616C7365007265616479000D0AEA
:10403A000020636F6D6D616E64206E6F7420666F11
:10404A00756E642100646973740074656D70007024
:0A405A006974636800726F6C6C00FB
:00000001FF
