:100000001AC100000C94D9120C94AE120C948312F5
:100010000C9458120C942D120C9402120C94D711BB
:100020000C94AC1139C1000037C1000035C100008B
:1000300033C100000C94A2102FC100002DC100009C
:100040002BC100000C948E1327C1000025C10000B5
:1000500023C1000021C100001FC100000C946211E7
:100060001BC100000C942C110C94021115C100004E
:1000700013C1000011C100000FC100000DC100003C
:100080000C94601309C1000007C1000005C1000005
:1000900003C1000001C10000FFC000000C94BC13AC
:1000A000FBC00000F9C000000C943213F5C0000042
:1000B000F3C00000F1C00000EFC000000C94041376
:1000C000EBC00000E9C00000E7C00000E5C0000090
:1000D000E3C00000E1C00000DFC00000DDC00000A0
:1000E000DBC00000084AD73B3BCE016E84BCBFFD9D
:1000F000C12F3D6C74319ABD56833DDA3D00C77FF8
:1001000011BED9E4BB4C3E916BAAAABE0000008090
:100110003F0000000A0B02090C0D0E080703040142
:1001200000000000000000000000000000000000CF
:10013000000000000000000000000000000012119C
:10014000100000000000000000000000000000009F
:100150000000000000000000020000210024002731
:10016000002A002D003000330001010000040107C7
:10017000010A01000020002300260029002C002F86
:100180000032000001000003010601090100002205
:1001900000250028002B002E003100340002010051
:1001A00000050108010B01050505050705080808FC
:1001B00008020202020A0A080804040404010101F8
:1001C0000101010101030303030303030304070700
:1001D000070C0C0C0C0C0C0C0C020202020606069E
:1001E00006060606060B0B0B0B0B0B0B0B01021086
:1001F0002020080810204010204080020102010841
:1002000004020101020408102040808040201008F0
:100210000402018004020180402010080402010849
:1002200004020101020408102040800102040810A9
:1002300020408000FB1411241FBECFEFD1E2DEBFAF
:10024000CDBF00E00CBF12E0A0E0B2E0ECE1F1E4D1
:1002500000E00BBF02C007900D92A63DB107D9F791
:1002600026E0A6EDB2E001C01D92A731B207E1F78A
:1002700011E0CBE1D1E000E006C021970109802F19
:10028000FE010E946720CA31D10780E00807A9F764
:100290000E94C7150C948C20B3CE90914D049111FF
:1002A000FCCF91E090934D0490934C042FEF20935A
:1002B0004B0410924A04260F20934904909348045B
:1002C00090914804880F892B8093480480914704BB
:1002D0008130F9F410924704809148048093BB0068
:1002E0008091BC0083FDF8CF85EC8093BC008091A9
:1002F0004D048130E1F380914A04861710F4609137
:100300004A04A7E2B4E0E7E0F4E080E0861303C02B
:10031000089585EEEACF9D9191938F5FF7CF982F47
:100320002091060481E0213208F043C080914D0401
:100330008111FCCF8091050432E030934D049093FD
:100340004C049FEF90934B0410924A04209349046D
:10035000A5EEB3E0E7E2F4E090E0291331C010929B
:10036000480490914804880F892B80934804809119
:100370004704813049F510924704809148048093E6
:10038000BB008091BC0083FDF8CF85EC8093BC005E
:1003900080914D048230E1F380914B048F3FB1F0A6
:1003A00080914B048032A1F080914B04803391F016
:1003B00084E01092E403109206041092E30308957F
:1003C0003D9131939F5FC9CF85EEE0CF80E0F1CFC3
:1003D00082E0EFCF83E0EDCF1F93CF93DF93162F13
:1003E000CBEAD5E0A881B98191E09093E30398E648
:1003F000909305041092E40310920604ED91FC9191
:1004000011970190F081E02D682FCD011995888119
:100410009981DC01ED91FC910190F081E02D612F3B
:10042000199581E0DF91CF911F9179CFAF92BF9263
:10043000CF92DF92EF92FF920F931F93CF93DF93B0
:100440006C017B018B01040F151FEB015E01AE18DF
:10045000BF08C017D10759F06991D601ED91FC9101
:100460000190F081E02DC6011995892B79F7C5011E
:10047000DF91CF911F910F91FF90EF90DF90CF9080
:10048000BF90AF90089508950895FC01538D448D59
:10049000252F30E0842F90E0821B930B541710F02F
:1004A000CF96089501970895FC01918D828D98173C
:1004B00061F0A28DAE0FBF2FB11D5D968C91928D14
:1004C0009F5F9F73928F90E008958FEF9FEF089545
:1004D000FC01918D828D981731F0828DE80FF11D0E
:1004E000858D90E008958FEF9FEF0895FC01918D29
:1004F000228D892F90E0805C9F4F821B91098F7322
:10050000992708958AE594E0F1DF21E0892B09F429
:1005100020E0822F0895FC01A48DA80FB92FB11DF2
:10052000A35ABF4F2C91848D90E001968F73992729
:10053000848FA689B7892C93A089B1898C91837007
:1005400080648C93938D848D981306C00288F38900
:10055000E02D80818F7D80830895EF92FF920F932D
:100560001F93CF93DF93EC0181E0888F9B8D8C8D5F
:1005700098131AC0E889F989808185FF15C09FB753
:10058000F894EE89FF896083E889F9898081837016
:10059000806480839FBF81E090E0DF91CF911F91C5
:1005A0000F91FF90EF900895F62E0B8D10E00F5FE6
:1005B0001F4F0F731127E02E8C8D8E110BC00FB6BD
:1005C00007FCFACFE889F989808185FFF5CFCE0154
:1005D000A2DFF2CFEB8DEC0FFD2FF11DE35AFF4FA1
:1005E000F0829FB7F8940B8FEA89FB898081806243
:1005F000D0CFCF93DF93EC01888D8823B1F0AA8907
:10060000BB89E889F9898C9185FD03C0808186FDCD
:100610000CC00FB607FCF7CF8C9185FFF2CF80811D
:1006200085FFEDCFCE0177DFEACFDF91CF9108953F
:1006300080E090E0892B21F065DF81110E940000AD
:1006400080E090E0892B49F080E090E0892B29F050
:100650000E94000081110E94000080E090E0892B40
:1006600049F080E090E0892B29F00E940000811180
:100670000E94000080E090E0892B49F080E090E04B
:10068000892B29F00E94000081110C94000008952C
:100690008150823108F05AC0E82FF0E08827EC5AE8
:1006A000FC4F8F4F0C9467207403780366036C0330
:1006B0007003A6037B03810385038B038F039303DE
:1006C00099039D03A603A103A703AB0380918000B8
:1006D0008F77809380000895809180008F7DF9CF7F
:1006E00080918000877FF5CF84B58F7784BD089592
:1006F00084B58F7DFBCF8091B0008F778093B00061
:1007000008958091B0008F7DF9CF809190008F7710
:10071000809390000895809190008F7DF9CF809113
:100720009000877FF5CF8091A0008F778093A00005
:1007300008958091A0008F7DF9CF8091A000877FE0
:10074000F5CF809120018F778093200108958091CB
:1007500020018F7DF9CF80912001877FF5CF1F93F6
:10076000CF93DF93282F30E0F901EE5EFE4F8491A6
:10077000F901E351FE4FD491F901E955FE4FC491BF
:10078000CC23A1F0162F811183DFEC2FF0E0EE0FC8
:10079000FF1FE357FE4FA591B4918FB7F894EC91EA
:1007A000111108C0D095DE23DC938FBFDF91CF916C
:1007B0001F910895DE2BF8CF9091040289130DC08C
:1007C000E8E5F1E0E4919FEF90930402E230D9F084
:1007D00030F4EE2379F0E13081F060E0C0CFE43016
:1007E00049F110F1E530C9F7909173009D7F909326
:1007F0007300F3CF10926E00F0CF90916F009D7F49
:1008000090936F00EACF909170009D7F909370005D
:1008100091E09093B0009091B100987F9460909394
:10082000B1001092B300D9CF909171009D7F909349
:100830007100D3CF909172009D7F90937200CDCFC5
:10084000CF93DF9390E0FC01E351FE4F2491895553
:100850009E4FFC0184918823D1F090E0880F991F6E
:10086000FC01E75AFE4FA591B491FC01E357FE4FFE
:10087000C591D491623071F49FB7F8943C91822F66
:10088000809583238C93E8812E2B28839FBFDF9153
:10089000CF9108958FB7F894EC912E2B2C938FBFA6
:1008A000F6CFCF92DF92EF92FF920F931F93CF93E9
:1008B000DF93EC016B017A01890162E080E0C0DF27
:1008C00062E080E0BDDF87EA91E0FC012491E22F45
:1008D000F0E0EE0FFF1FED58FE4FA591B491BF8BD6
:1008E000AE8B2DEE31E0F90164916A8FFC018491A9
:1008F000E82FF0E0EE0FFF1FED58FE4F45915491A9
:10090000598F488FF90124912B8F1D8E1E8E1F8EBB
:1009100018A28BE39FE10197F1F78C91682381E0A6
:1009200009F480E0FA019081292309F082608C8F1C
:1009300019A2D982C882FB82EA821D830C831F829E
:100940001E82198618861B861A861C861D861E86A0
:100950001F86198A188ADF91CF911F910F91FF90FE
:10096000EF90DF90CF9008953FB7F8948091B30354
:100970009091B403A091B503B091B60326B5A89B9E
:1009800005C02F3F19F00196A11DB11D3FBFBA2F21
:10099000A92F982F8827BC01CD01620F711D811DE1
:1009A000911D42E0660F771F881F991F4A95D1F766
:1009B00008958F929F92AF92BF92CF92DF92EF9263
:1009C000FF926B017C01D0DF4B015C01C114D104AB
:1009D000E104F104B1F0C8DF681979098A099B09BB
:1009E000683E73408105910588F321E0C21AD10861
:1009F000E108F10888EE880E83E0981EA11CB11C66
:100A0000E5CFFF90EF90DF90CF90BF90AF909F9099
:100A10008F9008952FB7F8946091AF037091B00351
:100A20008091B1039091B2032FBF08950895DC0126
:100A3000EC91E03390F511968C91119728E830E015
:100A4000281B310987FD3395220F331F220F331FD7
:100A50006217730784F012968C9128E532E0281B08
:100A6000310987FD3395220F331F220F331F621781
:100A700073070CF49B0122503109220F331F4FB72B
:100A8000F8948E2F90E0FC01EE0FFF1FE80FF91F86
:100A9000E25EFC4F328321834FBF0895CF92DF92F5
:100AA000EF92FF92CF93DF93EC01603282E0780700
:100AB000CCF5653B710514F064EB70E0898128E8A2
:100AC00030E0281B310987FD3395220F331F220F99
:100AD000331F6901330FEE08FF088A8128E532E0F1
:100AE000281B310987FD3395220F331F220F331F37
:100AF000032E000C440B550B2C193D094E095F09C0
:100B0000DB0177FF02C0B0E0A0E00E94831E24EB6F
:100B100030E040E050E00E945D1EC20ED31EE41E95
:100B2000F51EB601CE01DF91CF91FF90EF90DF90DF
:100B3000CF907DCFDF92EF92FF920F931F93CF93D1
:100B4000DF93EC01D62E7A0189018881803308F089
:100B500062C061E08D2D74DE8881282F30E0F901BC
:100B6000EE0FFF1FE20FF31FE25EFC4F9D2D9F7300
:100B70006081607C692B608320E232E02E193F099E
:100B800037FF02C02D5F3F4F359527953595279547
:100B9000298320E639E0201B310B359527953595C3
:100BA00027952A832CE0622F0E944820829FB00163
:100BB000112430E020E0AB01420F531FFA01EE0F89
:100BC000FF1FE40FF51FE25EFC4F908196FD16C0FB
:100BD0002F5F3F4F2C30310571F7813029F510928E
:100BE000800082E080938100109285001092840042
:100BF000B19A80916F00826080936F00E8818E2FA0
:100C000090E0FC01EE0FFF1FE80FF91FE25EFC4FC2
:100C10008081806480838881DF91CF911F910F91C3
:100C2000FF90EF90DF900895823061F41092900071
:100C300080939100109295001092940088BB80934D
:100C40007100DCCF833069F41092A00082E08093C1
:100C5000A1001092A5001092A40089BB809372009D
:100C6000CDCF8111CBCF1092200182E08093210162
:100C700010922501109224018ABB80937300BECF8D
:100C800020E639E040E252E055CFAF92BF92CF92DA
:100C9000DF92EF92FF920F931F93CF93DF936B013D
:100CA0007A01EC01C75EDC4F28813CE0389F80016F
:100CB000399F100D1124A0901D03B12C27FF1FC0D8
:100CC000FB011182108288818F5F8883888198015F
:100CD000280F311D87FD3A95F6012A153B051CF4B6
:100CE00088818C30BCF180819181049680349C494C
:100CF00008F471C0F6018081918104966EC08881EC
:100D00009801280F311D87FD3A952A153B05DCF621
:100D10008881A801480F511D87FD5A95FA01EE0FF1
:100D2000FF1FE40FF51FE25EFC4F808186FFCBCFF3
:100D30008881F801E80FF11D87FDFA95CF01EE0FCC
:100D4000FF1FE80FF91FE25EFC4F808160E08F73A8
:100D500006DDB9CF808191812881A801420F511D04
:100D600027FD5A959A01FA01EE0FFF1FE20FF31FBC
:100D7000E25EFC4F21813281820F931FF701918344
:100D8000808388819801280F311D87FD3A95F901EC
:100D9000EE0FFF1FE20FF31FE25EFC4F808186FF24
:100DA00021C08881080F111D87FD1A95F801EE0FEB
:100DB000FF1FE00FF11FE25EFC4F808161E08F7347
:100DC000DF91CF911F910F91FF90EF90DF90CF9027
:100DD000BF90AF90C4CC80E49CE9F70191838083FD
:100DE0008FEF8883DF91CF911F910F91FF90EF904C
:100DF000DF90CF90BF90AF90089585ED8093BC00B9
:100E00008091BC0084FDFCCF10924D040895209188
:100E1000F602260F3327331F21323105ECF42091DF
:100E20004D04FC0190E080E0243069F082E00895F8
:100E3000A091F6022191AC014A525D4FA40FB52F4B
:100E4000B11D2C930196861798F38091F602680FD6
:100E50006093F60280E0089581E008950895E0919E
:100E6000E2038091E103E81730F4F0E0E95FFB4F23
:100E7000808190E008958FEF9FEF08959091E203B5
:100E80008091E1032FEF3FEF981748F4E92FF0E04E
:100E9000E95FFB4F208130E09F5F9093E203C9013F
:100EA00008958091E1039091E203891B990B0895C5
:100EB000CF92DF92EF92FF920F931F93CF93DF9326
:100EC0007C01CB018A012091E303222389F0EB010D
:100ED0006B01C40ED51ECC15DD0561F06991D701FB
:100EE000ED91FC910190F081E02DC7011995F3CFB0
:100EF000642F8DDFC801DF91CF911F910F91FF907B
:100F0000EF90DF90CF900895CF93DF931F92CDB7EE
:100F1000DEB769832091E3032223F9F020910604D0
:100F2000203258F021E030E0FC013383228390E04E
:100F300080E00F90DF91CF9108958091E403E82F36
:100F4000F0E0EB51FC4F998190838F5F8093E40335
:100F50008093060481E090E0ECCF61E0CE01019641
:100F600056DFF8CF90E080E0089560E0FC018281D8
:100F7000F6CBEF92FF920F931F93CF93DF937C01F9
:100F8000EB01FC010081118161E0802F59DC209789
:100F900021F460E0802FE3DB2BC0CF3FD10511F4BB
:100FA00061E0F8CFF801FF27EE5EFE4FE491E150DB
:100FB000E23108F0B9C0F0E08827EE51F84F8F4FCA
:100FC0000C946720F4070208070811081B0894080E
:100FD00025082D0835083F084908530862086C08A1
:100FE0009408760880088A0884B5806884BDC7BDE7
:100FF000F701D18BC08BDF91CF911F910F91FF90A3
:10100000EF90089584B5806284BDC8BDF1CF809112
:101010008000806880938000D0938900C09388000E
:10102000E7CF80918000806280938000D0938B0016
:10103000C0938A00DDCF809180008860809380001B
:10104000D0938D00C0938C00D3CF8091B000806886
:101050008093B000C093B300CBCF8091B00080628A
:101060008093B000C093B400C3CF8091900080689B
:1010700080939000D0939900C0939800B9CF80914D
:101080009000806280939000D0939B00C0939A0060
:10109000AFCF80919000886080939000D0939D00A6
:1010A000C0939C00A5CF8091A00080688093A00091
:1010B0008091A0008F7B8093A000D093A900C09363
:1010C000A80096CF8091A00080628093A000D0936A
:1010D000AB00C093AA008CCF8091A0008860809361
:1010E000A000D093AD00C093AC0082CF80912001CE
:1010F000806880932001D0932901C093280178CF84
:1011000080912001806280932001D0932B01C093B5
:101110002A016ECF80912001886080932001D093B6
:101120002D01C0932C0164CFC038D1050CF038CF0D
:1011300030CFCF93DF93EC0160E0888110DB70E06B
:1011400060E0CE01DF91CF9114CFDC01ED91FD91F4
:101150008081ED91FD919081ED91FD916C91637095
:101160008E2309F064609F2309F06860E2ECF8E0E8
:10117000E60FF11D659565956D936D917D918D914E
:101180009D91099423C01AC012C016C010C01EC081
:1011900009C014C013C006C019C009C00DC007C0E3
:1011A0000DC014C062507040804090400BC0615030
:1011B00070408040904006C06E5F01C06F5F7F4FFF
:1011C0008F4F9F4F9E938E937E936E930895809141
:1011D0004E0490914F04B9CF8091500490915104E6
:1011E000B4CF8091520490915304AFCF80915404B6
:1011F00090915504AACF8091560490915704A5CFA1
:101200008091580490915904A0CFCF93DF93EC01C3
:1012100088819981461B570BDC01ED91FC9102807E
:10122000F381E02D19952A813B81820F931F9B83C7
:101230008A83DF91CF910895EF92FF921F93CF930E
:10124000DF93CDB7DEB766970FB6F894DEBF0FBE5B
:10125000CDBF9C01CB01FE0177964E2F1F2F5AE088
:10126000E52EF12CB7010E945420805D8293CB01C2
:101270000097C1F7512FBF01C901C7DF66960FB6AE
:10128000F894DEBF0FBECDBFDF91CF911F91FF90CD
:10129000EF900895CF93DF93EC0188819981DC0171
:1012A000ED91FC910190F081E02D19952A813B810F
:1012B000820F931F9B838A83DF91CF9108958F9232
:1012C0009F92AF92BF92CF92DF92EF92FF920F93D5
:1012D0001F93CF93DF93CDB7DEB766970FB6F89421
:1012E000DEBF0FBECDBF7C018E01095E1F4F6801BE
:1012F0008AE0882E912CA12CB12CCB01BA01A5013A
:1013000094010E94891E942F852F605DF8016293DD
:101310008F01A901692F782F4115510561057105CC
:1013200061F7A601BF01C70170DF66960FB6F8949A
:10133000DEBF0FBECDBFDF91CF911F910F91FF9008
:10134000EF90DF90CF90BF90AF909F908F900895D7
:10135000EF92FF920F931F93CF93DF93453B51057D
:1013600098F5FB01208131812417350769F18A0145
:10137000EB017C012417350794F468817981061705
:10138000170714F1C7018ADB65E070E080E090E0A8
:1013900010DB88819981019699838883EECF42176B
:1013A000530794F468817981601771076CF0C70165
:1013B00075DB65E070E080E090E0FBDA8881998180
:1013C000019799838883EECFDF91CF911F910F9181
:1013D000FF90EF900895FC0101900020E9F731970C
:1013E000AF01481B590BBC018AE594E01FC8CF939D
:1013F000DF93EC0188819981FB0101900020E9F7DE
:101400003197AF01461B570BDC01ED91FC91028037
:10141000F381E02D19952A813B81820F931F9B83D5
:101420008A83DF91CF910895FF920F931F93CF93FB
:10143000DF936115710541F460E972E0DF91CF91AE
:101440001F910F91FF90D3CF8B01EC0162E2CE018F
:1014500021DFF80161918F01662351F0E1E8F2E0AC
:10146000F080FF20A1F38181681751F03296F8CF08
:1014700062E2CE01DF91CF911F910F91FF900ACFD1
:101480006CE5CE0107DF6F2DE2CF2F923F924F9296
:101490005F926F927F928F929F92AF92BF92CF9204
:1014A000DF92EF92FF920F931F93CF93DF93CDB70D
:1014B000DEB768970FB6F894DEBF0FBECDBF8C01C4
:1014C0004B01DC0114968C9114978F77863009F4C8
:1014D00056C2E0F4823018F1843008F038C2DB01E3
:1014E0008D919C91F8014281538160817181DC0171
:1014F000ED91FC910280F381E02D1995F401228198
:101500003381820F931F93838283D4C18C3079F10E
:1015100048F4883009F42DC28A3009F41EC260E90B
:1015200072E03AC2803209F4EAC18034C1F76BE557
:10153000C401B0DED8010D911C910115110509F40B
:10154000DAC1B401C801A1DFF8018581882309F45B
:10155000D2C1F8E08F02C0011124080F191F011534
:10156000110509F4C8C16CE2C40194DEE6CFF801AC
:101570004080518062807380A3019201C301B20157
:101580000E94441D8111CBCF20E030E0A901C301AE
:10159000B2010E94441D882379F0A3019201C30186
:1015A000B2010E94BB1E9B01AC01C301B2010E94AB
:1015B000441D882309F4B3CF20E030E0A901C30122
:1015C000B2010E94441D87FF07C06DE2C40162DEC4
:1015D00077FA709477F8709420E836E948E15BE494
:1015E000C301B2010E943A2087FD79C03DE5E32E98
:1015F00032E0F32E4DE2C42E42E0D42E55E4A52E67
:1016000052E0B52E00E210E0312C212CD7015E9182
:101610004E913E912E917D01C301B2010E943A206C
:1016200087FD0DC0F6012489358946895789C30194
:10163000B2010E94A91D2B013C01200E311E1595FF
:101640000795F4E0CF1AD108AE14BF04F9F62FEFD6
:10165000298B20E030E0A901C301B2010E943A20A9
:1016600018160CF043C02CEA35EC47E257E3C301EF
:10167000B2010E94441D1816CCF19989A4E09A0287
:1016800050011124D12CC12CB989BF3F79F17501CA
:10169000EC0CFD1CF701EB5EFD4FA3019201608194
:1016A0007181828193810E943A2018167CF4F7019F
:1016B000EB5BFD4F2081318142815381C301B20137
:1016C0000E94A91D2B013C01201A310A159507958E
:1016D000E989E150E98BF4E0CF1AD108D5CF00E2D7
:1016E00010E085E0898B312C212CB3CFC301B201EE
:1016F0000E94E91F698B7A8B8B8B9C8B6B017C0121
:1017000016E080E492E4AFE0B0E08D8B9E8BAF8B6F
:10171000B88FB12E11509AE0C916D104E104F1043A
:10172000C8F06D897E898F89988D2AE030E040E08D
:1017300050E00E94891E2D8B3E8B4F8B588FC70126
:10174000B6012AE030E040E050E00E94891E6901C5
:101750007A01DFCF69897A898B899C890E94481D2B
:101760009B01AC01C301B2010E94BA1E6B017C0156
:101770006D897E898F89988D0E94481D9B01AC01DF
:10178000C701B6010E94A91D2B013C010E94E91F5F
:101790006B017C010E94481D9B01AC01C301B20199
:1017A0000E94BA1E9B01AC010E94BB1E0E94E91F51
:1017B000C60ED71EE81EF91E8D899E89AF89B88D89
:1017C000C816D906EA06FB0600F189899A89AB8911
:1017D000BC890196A11DB11D898B9A8BAB8BBC8BEB
:1017E0002114310439F10A97A105B10518F19FEFD1
:1017F000291A390AC12CD12C760181E090E0A0E0B1
:10180000B0E0898B9A8BAB8BBC8B8AE0482E512C35
:10181000612C712CC701B601A30192010E94891E9F
:10182000672B682B692B51F41B1444F469017A016E
:10183000BA94F0CFC12CD12C7601E7CF49895A89CF
:101840006B897C89C4013BDDBB2041F12E0191E114
:10185000490E511C7B2C82017A94AFEF7A1679F0F5
:10186000C701B6012AE030E040E050E00E94891E46
:10187000605DF20162932F0169017A01EDCF6B2D5A
:1018800070E0F801E61BF70B31978EE280836095DC
:101890007095600F711FA801C401B7DC37FE23C02B
:1018A00065E972E0C401A3DD662777276219730931
:1018B000C401C2DC68960FB6F894DEBF0FBECDBF80
:1018C000DF91CF911F910F91FF90EF90DF90CF901C
:1018D000BF90AF909F908F907F906F905F904F9050
:1018E0003F902F9008952114310421F365E6C4013F
:1018F000D1DCB101DDCF6DE5C401CCDCDBCF6BE722
:10190000C401C8DCD8010D911C9101151105E9F045
:10191000F80166817781C40187DD6AE3C401BADC1E
:10192000B401C801B2DDD80115968C91882369F005
:10193000B8E08B02C0011124080F191F0115110511
:1019400021F06CE2C401A6DCE0CF6DE7D5CFF80151
:1019500060817181C40168DDADCFCD90DD90ED90E7
:10196000FC906DE2C40196DCB701A601C401A7DCBE
:10197000A1CFF8014081518162817381F7CFF801D5
:1019800080819181A281B38168E972E0892B8A2BE1
:101990008B2B11F46DE972E0C40129DD8BCF2F92FE
:1019A0003F924F925F926F927F928F929F92AF92EF
:1019B000BF92CF92DF92EF92FF92CF93DF9300D04E
:1019C00000D01F921F92CDB7DEB78091AB059091EA
:1019D000AC0521E02093E30328E620930504109250
:1019E000E40310920604DC01ED91FC910190F0817A
:1019F000E02D6BE3199580E00E948F016EE088E690
:101A00000E944D011092E2038093E1038091AB05A7
:101A10009091AC05DC01ED91FC910284F385E02D01
:101A20001995F82E8091AB059091AC05DC01ED91F4
:101A3000FC910284F385E02D199520E0822B9F29EB
:101A40009093AE058093AD058091AB059091AC0568
:101A5000DC01ED91FC910284F385E02D1995F82EBF
:101A60008091AB059091AC05DC01ED91FC91028475
:101A7000F385E02D199520E0822B9F299093B005E6
:101A80008093AF058091AB059091AC05DC01ED91A1
:101A9000FC910284F385E02D1995F82E8091AB0519
:101AA0009091AC05DC01ED91FC910284F385E02D71
:101AB000199520E0822B9F299093B2058093B10560
:101AC0008091AB059091AC05DC01ED91FC91028415
:101AD000F385E02D1995F82E8091AB059091AC051A
:101AE000DC01ED91FC910284F385E02D199520E055
:101AF000822B9F299093B4058093B3058091AB0509
:101B00009091AC05DC01ED91FC910284F385E02D10
:101B10001995F82E8091AB059091AC05DC01ED9103
:101B2000FC910284F385E02D199520E0822B9F29FA
:101B30009093B6058093B5058091AB059091AC0567
:101B4000DC01ED91FC910284F385E02D1995F82ECE
:101B50008091AB059091AC05DC01ED91FC91028484
:101B6000F385E02D199520E0822B9F299093B805ED
:101B70008093B7058091AB059091AC05DC01ED91A8
:101B8000FC910284F385E02D1995F82E8091AB0528
:101B90009091AC05DC01ED91FC910284F385E02D80
:101BA0001995612C7F2C682A792A7092BA05609267
:101BB000B9056091B3057091B405072E000C880B30
:101BC000990B0E944A1D20E030EF41E456E40E9448
:101BD000BB1E20E030E04AEA53E40E94811F60937C
:101BE000C7057093C8058093C9059093CA05609195
:101BF000AD057091AE05072E000C880B990B0E9465
:101C00004A1D20E030E040E858E30E94A91D4B0146
:101C10005C018092CB059092CC05A092CD05B0924C
:101C2000CE056091AF057091B005072E000C880BB2
:101C3000990B0E944A1D20E030E040E858E30E94E2
:101C4000A91D6B017C01C092CF05D092D005E09216
:101C5000D105F092D2056091B1057091B205072EC1
:101C6000000C880B990B0E944A1D20E030E040E8F0
:101C700058E30E94A91D1B012C012092D30530922C
:101C8000D4054092D5055092D60520E030E0A90158
:101C9000C501B4010E943A20A501940118160CF068
:101CA0005058C201B1010E94BB1E9B01AC01C7018B
:101CB000B6010E942E1F20E030E044EB53E40E9466
:101CC000A91D20E030E040E05FE30E94A91D2BED5C
:101CD0003FE049E450E40E94811F6093EF05709358
:101CE000F0058093F1059093F20520E030E0A90122
:101CF000C701B6010E943A20181624F0F7FAF094B2
:101D0000F7F8F094A7019601C201B1010E94BB1E31
:101D10009B01AC01C501B4010E942E1F20E030E000
:101D200044EB53E40E94A91D20E030E040E05FEB6B
:101D30000E94A91D2BED3FE049E450E40E94811F61
:101D40006093F3057093F4058093F5059093F60581
:101D50006091B7057091B805072E000C880B990BA0
:101D60000E944A1D20E030E043E852E40E94811FB7
:101D70006B017C016091B5057091B605072E000CD2
:101D8000880B990B0E944A1D20E030E043E852E4A2
:101D90000E94811F2091BB053091BC054091BD057B
:101DA0005091BE050E94BA1E6093D7057093D80566
:101DB0008093D9059093DA052091BF053091C00535
:101DC0004091C1055091C205C701B6010E94BA1EDB
:101DD0006093DB057093DC058093DD059093DE0551
:101DE000B301770C880B990B0E944A1D20E030E06C
:101DF00043E852E40E94811F2091C3053091C4053D
:101E00004091C5055091C6050E94BA1E6093DF053A
:101E10007093E0058093E1059093E2050E940A0526
:101E2000C0900B06D0900C06E0900D06F0900E06C8
:101E30006C197D098E099F090E94481D2FE632E129
:101E400043E85AE30E94A91D6B017C01C09207067A
:101E5000D0920806E0920906F0920A062091D70572
:101E60003091D8054091D9055091DA050E94A91DFD
:101E70002B013C01AC019B016091E3057091E405ED
:101E80008091E5059091E6050E94BB1E6093E305F5
:101E90007093E4058093E5059093E6052091DB05BA
:101EA0003091DC054091DD055091DE05C701B6019A
:101EB0000E94A91D4B015C01AC019B016091E705EB
:101EC0007091E8058091E9059091EA050E94BB1E9A
:101ED0006093E7057093E8058093E9059093EA0520
:101EE0002091DF053091E0054091E1055091E20538
:101EF000C701B6010E94A91D2091EB053091EC05A8
:101F00004091ED055091EE050E94BB1E6D837E83CE
:101F10008F8398876093EB057093EC058093ED05B4
:101F20009093EE05C0901306D0901406E09015062D
:101F3000F090160680910F0690911006A091110660
:101F4000B091120689839A83AB83BC832091FB05F1
:101F50003091FC054091FD055091FE05C301B20191
:101F60000E94BB1EA70196010E94A91D2B013C01E6
:101F70002091EF053091F0054091F1055091F20567
:101F800069817A818B819C810E94A91D9B01AC0192
:101F9000C301B2010E94BB1E6093FB057093FC0558
:101FA0008093FD059093FE052091FF05309100067A
:101FB0004091010650910206C501B4010E94BB1E6A
:101FC000A70196010E94A91D6B017C012091F305D8
:101FD0003091F4054091F5055091F60569817A81BB
:101FE0008B819C810E94A91D9B01AC01C701B60198
:101FF0000E94BB1E6093FF0570930006809301064C
:10200000909302068D819E81AF81B88580930306EF
:1020100090930406A0930506B09306060E940A0555
:1020200060930B0670930C0680930D0690930E063A
:1020300028960FB6F894DEBF0FBECDBFDF91CF91CB
:10204000FF90EF90DF90CF90BF90AF909F908F90D8
:102050007F906F905F904F903F902F900895CF9218
:10206000DF92EF92FF920F931F93CF93DF93FC01C8
:102070008481982F9F7739F48078806284831182DD
:10208000108213821282848185FD0CC0F0E0E0E0B2
:10209000CF01DF91CF911F910F91FF90EF90DF90D3
:1020A000CF9008957A018B016F01C081D181209773
:1020B00009F16E817F8160177107D1F0011511055B
:1020C00041F06115710529F0C8010E948320882321
:1020D00079F08D81882371F028E08202C0011124FB
:1020E000C80FD91FE4CFF983E883FB83EA8325C0B7
:1020F000FE01CECFE701EC81FD818A819B810896AC
:10210000E817F90718F23897D7011596FC93EE9364
:102110001497309709F4BACFE601AA81BB811097D2
:1021200011F3CF018A1B9B0B23E0959587952A9588
:10213000E1F715968C93FB83EA831582148217834B
:102140000683A6CF1F920F920FB60F9211240BB6E3
:102150000F922F933F934F935F936F937F938F9340
:102160009F93AF93BF93EF93FF938091DD03909183
:10217000DE03A091DF03B091E003892B8A2B8B2B28
:10218000E1F19091DC03E091DA03F091DB038081CF
:10219000892780838091DD039091DE03A091DF0386
:1021A000B091E003181619061A061B069CF48091DC
:1021B000DD039091DE03A091DF03B091E00301976E
:1021C000A109B1098093DD039093DE03A093DF039F
:1021D000B093E003FF91EF91BF91AF919F918F91E9
:1021E0007F916F915F914F913F912F910F900BBE17
:1021F0000F900FBE0F901F901895809104020E94BF
:10220000DC03E8CF1F920F920FB60F9211240BB68A
:102210000F922F933F934F935F936F937F938F937F
:102220009F93AF93BF93EF93FF938AE594E00E944F
:102230008B02FF91EF91BF91AF919F918F917F9111
:102240006F915F914F913F912F910F900BBE0F9027
:102250000FBE0F901F9018951F920F920FB60F92FE
:1022600011240BB60F922F938F939F93EF93FF93AD
:10227000E0916A04F0916B048081E0917004F09128
:10228000710482FD1DC09081809173048F5F8F73F4
:1022900020917404821741F0E0917304F0E0E65A53
:1022A000FB4F958F80937304FF91EF919F918F91D6
:1022B0002F910F900BBE0F900FBE0F901F9018958F
:1022C0008081F2CF1F920F920FB60F9211242F939D
:1022D0003F938F939F93AF93BF938091AF03909160
:1022E000B003A091B103B091B2033091AE0323E0EB
:1022F000230F2D3758F50196A11DB11D2093AE0374
:102300008093AF039093B003A093B103B093B20353
:102310008091B3039091B403A091B503B091B6033B
:102320000196A11DB11D8093B3039093B403A093B4
:10233000B503B093B603BF91AF919F918F913F9139
:102340002F910F900FBE0F901F90189526E8230F26
:102350000296A11DB11DD2CF1F920F920FB60F9200
:1023600011240BB60F922F933F934F935F936F936C
:102370007F938F939F93AF93BF93EF93FF93E091DE
:102380001302F09114021995FF91EF91BF91AF9153
:102390009F918F917F916F915F914F913F912F917D
:1023A0000F900BBE0F900FBE0F901F9018951F92AD
:1023B0000F920FB60F9211240BB60F922F933F93EB
:1023C0004F935F936F937F938F939F93AF93BF933D
:1023D000EF93FF93E0911102F09112021995FF9192
:1023E000EF91BF91AF919F918F917F916F915F918D
:1023F0004F913F912F910F900BBE0F900FBE0F90FA
:102400001F9018951F920F920FB60F9211240BB6C2
:102410000F922F933F934F935F936F937F938F937D
:102420009F93AF93BF93EF93FF93E0910702F091D7
:1024300008021995FF91EF91BF91AF919F918F91F4
:102440007F916F915F914F913F912F910F900BBEB4
:102450000F900FBE0F901F9018951F920F920FB6FE
:102460000F9211240BB60F922F933F934F935F93CC
:102470006F937F938F939F93AF93BF93EF93FF934C
:10248000E0910502F09106021995FF91EF91BF913D
:10249000AF919F918F917F916F915F914F913F91FC
:1024A0002F910F900BBE0F900FBE0F901F9018959D
:1024B0001F920F920FB60F9211240BB60F922F930B
:1024C0003F934F935F936F937F938F939F93AF93BC
:1024D000BF93EF93FF93E0910F02F09110021995D3
:1024E000FF91EF91BF91AF919F918F917F916F91EC
:1024F0005F914F913F912F910F900BBE0F900FBEA8
:102500000F901F9018951F920F920FB60F921124E3
:102510000BB60F922F933F934F935F936F937F93DD
:102520008F939F93AF93BF93EF93FF93E0910D022F
:10253000F0910E021995FF91EF91BF91AF919F918C
:102540008F917F916F915F914F913F912F910F905C
:102550000BBE0F900FBE0F901F9018951F920F92F9
:102560000FB60F9211240BB60F922F933F934F93F8
:102570005F936F937F938F939F93AF93BF93EF93EB
:10258000FF93E0910B02F0910C021995FF91EF91EE
:10259000BF91AF919F918F917F916F915F914F917B
:1025A0003F912F910F900BBE0F900FBE0F901F9079
:1025B00018951F920F920FB60F9211240BB60F921F
:1025C0002F933F934F935F936F937F938F939F933B
:1025D000AF93BF93EF93FF93E0910902F0910A024A
:1025E0001995FF91EF91BF91AF919F918F917F913D
:1025F0006F915F914F913F912F910F900BBE0F9074
:102600000FBE0F901F9018951F920F920FB60F924A
:1026100011240BB60F922F933F934F935F936F93B9
:102620007F938F939F93AF93BF93EF93FF9348E272
:1026300051E064E271E090E080E00E944506FF9185
:10264000EF91BF91AF919F918F917F916F915F912A
:102650004F913F912F910F900BBE0F900FBE0F9097
:102660001F9018951F920F920FB60F9211240BB660
:102670000F922F933F934F935F936F937F938F931B
:102680009F93AF93BF93EF93FF9348EA50E064EAC0
:1026900070E083E090E00E944506FF91EF91BF91CA
:1026A000AF919F918F917F916F915F914F913F91EA
:1026B0002F910F900BBE0F900FBE0F901F9018958B
:1026C0001F920F920FB60F9211240BB60F922F93F9
:1026D0003F934F935F936F937F938F939F93AF93AA
:1026E000BF93EF93FF9348E950E064E970E082E024
:1026F00090E00E944506FF91EF91BF91AF919F91AD
:102700008F917F916F915F914F913F912F910F909A
:102710000BBE0F900FBE0F901F9018951F920F9237
:102720000FB60F9211240BB60F922F933F934F9336
:102730005F936F937F938F939F93AF93BF93EF9329
:10274000FF9348E850E064E870E081E090E00E9488
:102750004506FF91EF91BF91AF919F918F917F912E
:102760006F915F914F913F912F910F900BBE0F9002
:102770000FBE0F901F9018951F920F920FB60F92D9
:1027800011240BB60F922F933F934F935F936F9348
:102790007F938F939F93AF93BF93EF93FF9380911A
:1027A000B900887F803609F44DC008F040C08832F7
:1027B00009F4A9C028F5803109F49DC0C8F4882324
:1027C00009F4FBC0883009F496C0FF91EF91BF91E6
:1027D000AF919F918F917F916F915F914F913F91B9
:1027E0002F910F900BBE0F900FBE0F901F9018955A
:1027F000883109F488C0803241F780934B0414C0BB
:10280000803409F49DC040F48033B9F38833E9F68D
:1028100080934B0485ECB0C0803509F485C08835C1
:1028200009F496C0883489F60E94FD06CECF883917
:1028300009F48CC038F5883729F050F4883611F047
:10284000803719F683E080934D041092180357C027
:10285000883809F47BC0803919F0803809F0B5CF89
:1028600080911803803208F071C0E091180381E074
:102870008E0F809318038091BB00F0E0E850FD4F6D
:1028800080833DC0803B39F0E0F4803A09F479C0A0
:10289000883A09F09ACF84E080934D041092F702B1
:1028A0001092F602E091B903F091BA031995809164
:1028B000F60281110FC081E08093F6021092D602D9
:1028C00009C0803C09F4A6CF883C09F4A3CF883B1B
:1028D00009F07BCFE091F70281E08E0F8093F70241
:1028E000F0E0EA52FD4F80818093BB009091F702A7
:1028F0008091F60229C0809148048093BB0085EC4A
:102900008093BC0062CF90914A048091490498174B
:1029100058F5E0914A0481E08E0F80934A04F0E07C
:10292000E95DFB4F8081E9CFE0914A0481E08E0FA1
:1029300080934A048091BB00F0E0E95DFB4F808307
:1029400090914A04809149049817C8F285E8D8CF3D
:10295000E0914A0481E08E0F80934A048091BB008D
:10296000F0E0E95DFB4F808380914C0481115CCFE6
:1029700081E08093470484EA8093BC0010924D0468
:1029800024CF85EC8093BC0010924D0480911803F5
:10299000803230F4E0911803F0E0E850FD4F1082EF
:1029A0006091180370E0E091B703F091B80388EFED
:1029B00092E019951092180308CF10924B0434CF6F
:1029C000FC0190911D03903398F481E0890F80936E
:1029D0001D039083892F90E0FC01EE0FFF1FE80F8D
:1029E000F91FE25EFC4F88EB9BE0928381830895A0
:1029F0008FEF80830895EAE5F4E01382128288EE77
:102A000093E0A0E0B0E084839583A683B78321E6BA
:102A100032E03183208325EC30E03587248724ECB5
:102A200030E03787268720EC30E0318B208B21EC9B
:102A300030E0338B228B22EC30E0358B248B26EC7C
:102A400030E0378B268B118E128E138E148EEFE9A9
:102A5000F5E01382128284839583A683B78383E78C
:102A600092E091838083F093AC05E093AB058AE01C
:102A700097EDA3EABCE380930F0690931006A09312
:102A80001106B093120688E491EEAAE7BFE38093A3
:102A9000130690931406A0931506B09316068CE9BE
:102AA00095E08EDF89E995E08BDF27E330E04DE1AB
:102AB00050E068E070E087E795E00E94510428E369
:102AC00030E04EE150E069E070E085E595E00E947D
:102AD000510429E330E04FE150E06AE070E083E325
:102AE00095E00E9451042AE330E040E250E06BE0C0
:102AF00070E081E195E00E945104E4E0F2E0E491AD
:102B0000A3E0B5E0EC93E5E0F2E0E4911196EC93FC
:102B100011978EEB91E0FC012491E22FF0E0EE0F93
:102B2000FF1FE357FE4F2591349113963C932E934C
:102B30001297EFEBF1E0E491F0E0EE0FFF1FED589C
:102B4000FE4F2591349115963C932E931497FC01DA
:102B50008491E82FF0E0EE0FFF1FE75AFE4F8591BA
:102B6000949117969C938E9316978DE796E11996FC
:102B70009C938E93189780E095E022DF8DEF94E090
:102B80001FDF8AEF94E01CDF87EF94E019CFCF932B
:102B9000DF93CDB7DEB7EE970FB6F894DEBF0FBE6A
:102BA000CDBF789484B5826084BD84B5816084BDD6
:102BB00085B5826085BD85B5816085BD80916E00DB
:102BC000816080936E00109281008091810082600C
:102BD0008093810080918100816080938100809149
:102BE00080008160809380008091B1008460809338
:102BF000B1008091B00081608093B000809191001D
:102C00008260809391008091910081608093910017
:102C1000809190008160809390008091A1008260FB
:102C20008093A1008091A10081608093A100809198
:102C3000A00081608093A000809121018260809338
:102C400021018091210181608093210180912001E7
:102C500081608093200180917A00846080937A0063
:102C600080917A00826080937A0080917A008160FE
:102C700080937A0080917A00806880937A00109225
:102C8000C100E0916A04F0916B0482E08083E091DE
:102C90006604F09167041082E0916804F091690481
:102CA00080E1808310927204E0916E04F0916F04D1
:102CB00086E08083E0916C04F0916D0480818061F6
:102CC0008083E0916C04F0916D0480818860808342
:102CD000E0916C04F0916D04808180688083E091C4
:102CE0006C04F0916D0480818F7D808361E089E1C7
:102CF0000E94200461E082E00E94200420ED37E081
:102D000048EE53E066E070E080E095E00E949A05AE
:102D100020ED37E048EE53E067E070E08DEF94E09F
:102D20000E949A0564E070E08AEF94E00E944006F9
:102D300065E070E087EF94E00E94400668EE73E083
:102D400080E095E00E94170568EE73E08DEF94E057
:102D50000E94170569E670E087EF94E00E944E0537
:102D600062E070E08CE995E00E94400663E070E06C
:102D700089E995E00E944006609102027091030289
:102D80008CE995E00E944E0560910002709101026D
:102D900089E995E00E944E051092E2031092E1034A
:102DA0001092E4031092060410924D0481E0809387
:102DB0004C041092470461E084E10E94AF0361E09B
:102DC00085E10E94AF038091B9008E7F8093B900A6
:102DD0008091B9008D7F8093B90088E48093B8001A
:102DE00085E48093BC0083E492E09093BA038093DF
:102DF000B90384E492E09093B8038093B70360E052
:102E000089E10E94EC0160E08AE10E94EC0168E047
:102E10008BE10E94EC0160E08CE10E94EC0161E03A
:102E20008BE60E94EC010E94CF0C1092E3051092F9
:102E3000E4051092E5051092E6051092E705109260
:102E4000E8051092E9051092EA058091EF0590914E
:102E5000F005A091F105B091F2058093FB059093E8
:102E6000FC05A093FD05B093FE058091F3059091BC
:102E7000F405A091F505B091F6058093FF059093B8
:102E80000006A0930106B09302060E940A05609313
:102E90000B0670930C0680930D0690930E0668EE59
:102EA00073E080E090E00E94D90408EB1BE0C12CA5
:102EB000D12C760146015701260137018091AB05DF
:102EC0009091AC0521E02093E30338E630930504AC
:102ED0001092E40310920604DC01ED91FC91019044
:102EE000F081E02D63E4199580E00E948F0166E097
:102EF00088E60E944D011092E2038093E1038091E5
:102F0000AB059091AC05DC01ED91FC910284F38559
:102F1000E02D1995382E8091AB059091AC05DC0120
:102F2000ED91FC910284F385E02D19953DAA1CAA30
:102F3000ECA9FDA9E82BF92BFBAFEAAF8091AB051B
:102F40009091AC05DC01ED91FC910284F385E02DBC
:102F50001995382E8091AB059091AC05DC01ED916F
:102F6000FC910284F385E02D19953FAA1EAAEEA9D3
:102F7000FFA9E82BF92BFDAFECAF8091AB05909149
:102F8000AC05DC01ED91FC910284F385E02D1995EF
:102F90008EAF8091AB059091AC05DC01ED91FC9179
:102FA0000284F385E02D19951C01EAADFBADBF014C
:102FB000FF0F880B990B6ED520E030E043E852E418
:102FC000A0D79B01AC01C301B201D5D62B013C01B6
:102FD0002CAD3DADB901330F880B990B5BD520E0CB
:102FE00030E043E852E48DD79B01AC01C501B40148
:102FF000C2D64B015C013EAD39AF18AE68AD79ADBC
:1030000062297329072E000C880B990B43D520E009
:1030100030E043E852E475D79B01AC01C701B6012B
:10302000AAD66B017C010150110909F047CF20E0BD
:1030300030E84BE355E4C301B20163D76093BB05AD
:103040007093BC058093BD059093BE0520E030E8E9
:103050004BE355E4C501B40154D76093BF057093A9
:10306000C0058093C1059093C20520E030E84BE392
:1030700055E4C701B60145D76093C3057093C405F5
:103080008093C5059093C60583EA92E00E94EB0900
:1030900089EA92E00E94EB091E018EE2280E311CA3
:1030A000DE01D196BBABAAAB74EB472E512C612C41
:1030B000712CE8EE8E2EE3E09E2EA12CB12C8AE539
:1030C00094E00E947602892B09F469C38E01025DA7
:1030D0001F4F0E940A0560936204709363048093FB
:1030E0006404909365048AE594E00E94540297FF7B
:1030F000BDC40E940A05C0906204D0906304E090B1
:103100006404F09065046C197D098E099F09C090D4
:103110005E04D0905F04E0906004F09061046C1550
:103120007D058E059F05F8F2AFA50A2F10E02EA5AC
:10313000EFEFE20FEC3008F00DC3F0E08827ED551B
:10314000F74E8F4FC4C7AF18C218D718E818F91830
:103150000A191F1927192D193C1B591B961B87E7A4
:1031600095E00E94B50785E595E00E94B50783E3E9
:1031700095E00E94B50781E195E00E94B5070E94A5
:1031800018039DCF61E0809179050E94AF0361E053
:10319000809157050E94AF0361E0809135050E9440
:1031A000AF0361E0809113050E94AF03E8CF61E0B7
:1031B000809179050E94AF0361E0809113050E9420
:1031C000AF0385E595E00E94B50783E395E0D5CF91
:1031D00087E795E00E94B50781E195E00E94B50779
:1031E00061E0809157050E94AF0361E08091350551
:1031F000DBCF87E795E00E94990881E195E00E9486
:10320000990885E595E00E94990883E395E00E947E
:103210009908B5CFB80187E795E00E94B907B801D2
:1032200081E195E00E94B907B80185E595E00E942B
:10323000B907B80183E395E00E94B907A0CFA801C0
:1032400062E072E08CE995E00E94A80998CFA8019D
:1032500060E072E089E995E0F7CFCA2ED12CF12C1D
:10326000E12C80910402823009F5E8E5F1E0149147
:1032700017FDBCC161E082E00E942004112309F423
:10328000ECC0123009F0FAC08091B100887F8360F1
:103290008093B1002FEF3FEFA90109EFC114D104D2
:1032A000E104F10409F4D8C109EFE6C08F3F09F049
:1032B0009DC182E080930402E8E5F1E01491812F42
:1032C0001F3F09F493C1123009F468C060F4112360
:1032D00079F1113009F444C087FD88C161E082E0D2
:1032E0000E942004CECF143009F499C008F478C0AD
:1032F000153091F710922001109221018091210147
:103300008860809321018091210181608093210157
:10331000E9EAF1E0E491F0E0EE0FFF1FE357FE4F22
:1033200085919491EFEEF1E0E491E093BB03A2CF9D
:1033300014BC15BC84B5826084BD85B5816085BD33
:10334000E9EAF1E0E491F0E0EE0FFF1FE357FE4FF2
:1033500085919491EFEEF1E0E491E093BF038ACF81
:10336000109280001092810080918100886080938B
:10337000810080918100816080938100E9EAF1E021
:10338000E491F0E0EE0FFF1FE357FE4F859194911B
:10339000EFEEF1E0E491E093BE036CCF1092B00049
:1033A0001092B1008091B00082608093B000809153
:1033B000B10081608093B100E9EAF1E0E491F0E0CE
:1033C000EE0FFF1FE357FE4F859194919093DB031F
:1033D0008093DA03EFEEF1E0E491E093DC034ACF6F
:1033E00010929000109291008091910088608093DB
:1033F000910080919100816080939100E9EAF1E071
:10340000E491F0E0EE0FFF1FE357FE4F859194919A
:10341000EFEEF1E0E491E093BD0313E02BCF1092C7
:10342000A0001092A1008091A10088608093A1006B
:103430008091A10081608093A100E9EAF1E0E4912C
:10344000F0E0EE0FFF1FE357FE4F85919491EFEEF2
:10345000F1E0E491E093BC030DCF85B5887F8360F4
:1034600085BD2FEF3FEFA9010CE7C114D104E104A2
:10347000F10409F4E2C00CE71CAAA8C0113031F530
:1034800080918100887F816080938100C114D10484
:10349000E104F10409F0B2C02FEF3FEFA9010FE3FF
:1034A0008FE18CAB802F9CA990938900809388003A
:1034B0002093CC033093CD034093CE035093CF039E
:1034C00080916F00826080936F0090C0133031F55F
:1034D00080919100887F816080939100C114D10414
:1034E000E104F10409F08EC02FEF3FEFA9010FE3D3
:1034F0009FE19CAB802F9CA99093990080939800AA
:103500002093C8033093C9034093CA035093CB035D
:103510008091710082608093710068C0143031F531
:103520008091A100887F81608093A100C114D104A3
:10353000E104F10409F06AC02FEF3FEFA9010FE3A6
:10354000AFE1ACAB802F9CA99093A9008093A80019
:103550002093C4033093C5034093C6035093C7031D
:103560008091720082608093720040C0153031F506
:1035700080912101887F816080932101C114D10451
:10358000E104F10409F046C02FEF3FEFA9010FE37A
:10359000BFE1BCAB802F9CA99093290180932801A7
:1035A0002093C0033093C1034093C2035093C303DD
:1035B0008091730082608093730018C00FE3C11480
:1035C000D104E104F10451F1EFE1ECABA0EDB7E07F
:1035D000A70196018ED3A50194019BD31230E1F18E
:1035E0001CF5112351F1113009F45CCFC701B6016C
:1035F0000E94D90482E00E94DC03C1CD0FE3FFE109
:10360000FCABE4CF0FE32FE12CABE0CF0FE33FE1C6
:103610003CABDCCF0FE38FE18CABD8CF9FE19CAB11
:103620002FEF3FEFA901DACF143009F48BCF0CF460
:1036300061CF153009F4AECFD9CF07BD2093D003A9
:103640003093D1034093D2035093D30380916E0003
:10365000826080936E00CACF0093B3002093DD0395
:103660003093DE034093DF035093E00380917000BA
:10367000826080937000BACFEBE2F1E08491E6E0E3
:10368000F2E00491E0ECF1E01491112379F0811162
:103690000E944803E12FF0E0EE0FFF1FED58FE4FB0
:1036A000A591B491EC910E2360E009F461E089E109
:1036B0007BCD6EE774E080E095E00E9417056EE731
:1036C00074E08DEF94E00E94170568EC70E080E0F4
:1036D00090E00E94D90468E770E08AEF94E00E94CD
:1036E0004E0560E273E080E090E00E94D9046AE554
:1036F00070E08AEF94E00E944E0560E971E080E09E
:1037000090E00E94D9046AE570E08AEF94E00E949C
:103710004E0568EE73E080E095E00E94170568EEC4
:1037200073E08DEF94E00E94170529CDB0E027E902
:103730003FEF4FEF5FEFDDD2A3019201BED2BA019E
:10374000A90147595F4F6F4F7F4F64ED73E087EFDB
:1037500094E07ACD30E050E040E019A28E010F5D98
:103760001F4FCA01B9012AE030E040E050E0D1D259
:10377000605DD8016E938D0121153105410551051C
:1037800081F7109719F0CD010E94EB098CEA92E0C5
:103790000E94EB0989EA92E00E94EB09F0CC0E94BA
:1037A0000A050091D6031091D7032091D8033091D8
:1037B000D903601B710B820B930B653F7140810530
:1037C000910508F4DCCC0E94CF0CEEE0F0E0EC0FA9
:1037D000FD1FFA83E983FC83EB833E822D823886CA
:1037E0002F828D8580788D87E0910905F0910A05FB
:1037F000808190910305892B8083E0910505F091EC
:1038000006059081809103058095892380838BE054
:1038100090E00197F1F7E0910505F09106058081B0
:1038200090910305892B808383E290E00197F1F763
:10383000E0910505F0910605908180910305809542
:1038400089238083E0910905F0910A059081809198
:103850000305809589238083E0910705F091080591
:10386000808190910405892309F491C010E000E063
:10387000AE014F5F5F4F60EC72E0CE0109960E948F
:103880002F107C010097A9F0DC0114968C911497FD
:103890008078886014968C93B80190E080E029E3EA
:1038A00030E040E050E035D2F7012083318342839D
:1038B0005383C090C705D090C805E090C905F0902B
:1038C000CA05AE014F5F5F4F65EC72E0CE0109960D
:1038D0000E942F10FC01892B41F0948190789C600C
:1038E0009483C082D182E282F382C090EF05D090AF
:1038F000F005E090F105F090F205AE014F5F5F4FEB
:103900006AEC72E0CE0109960E942F10FC01892B0F
:1039100041F0948190789C609483C082D182E2824D
:10392000F382C090F305D090F405E090F505F09097
:10393000F605AE014F5F5F4F60ED72E0CE01099674
:103940000E942F10FC01892B41F0948190789C609B
:103950009483C082D182E282F3828AE594E09FA7B9
:103960008EA719AA18AAB101CE0109960E94450A8C
:1039700089EA92E00E94EB090E940A056093D6034F
:103980007093D7038093D8039093D903F8CB0E9408
:10399000B404AB01BC0180910B0590910C05B0E023
:1039A000A0E08855994EAF4FBF4F840F951FA61FBB
:1039B000B71F80930D0590930E05A0930F05B0934C
:1039C0001005E0910705F0910805808190910405AC
:1039D000892381F40E94B40400910D0510910E0515
:1039E00020910F0530911005061717072807390792
:1039F00040F73CCF0E94B40420910B0530910C0598
:103A0000620F731F811D911D60930D0570930E054C
:103A100080930F0590931005E0910705F09108053C
:103A2000808190910405892381F00E94B404009163
:103A30000D0510910E0520910F0530911005061708
:103A400017072807390740F711CF0E94B4040091E7
:103A50000B0510910C050550110920910D053091B1
:103A60000E05021B130B060F171F02CF81329105A3
:103A700009F45ACBF80181938F012AA93BA92E178B
:103A80003F0709F026CB50CB40D008F481E00895E1
:103A9000E89409C097FB3EF49095809570956195E8
:103AA0007F4F8F4F9F4F9923A9F0F92F96E9BB279E
:103AB0009395F695879577956795B795F111F8CF1A
:103AC000FAF4BB0F11F460FF1BC06F5F7F4F8F4F85
:103AD0009F4F16C0882311F096E911C0772321F07B
:103AE0009EE8872F762F05C0662371F096E8862F13
:103AF00070E060E02AF09A95660F771F881FDAF76A
:103B0000880F9695879597F90895990F0008550F96
:103B1000AA0BE0E8FEEF16161706E807F907C0F053
:103B200012161306E407F50798F0621B730B840B5B
:103B3000950B39F40A2661F0232B242B252B21F435
:103B400008950A2609F4A140A6958FEF811D811DD5
:103B500008950BD078C069D028F06ED018F0952366
:103B600009F05AC05FC01124A2C07ED0A0F3959F77
:103B7000D1F3950F50E0551F629FF001729FBB2754
:103B8000F00DB11D639FAA27F00DB11DAA1F649F00
:103B90006627B00DA11D661F829F2227B00DA11DB3
:103BA000621F739FB00DA11D621F839FA00D611D39
:103BB000221F749F3327A00D611D231F849F600D5A
:103BC000211D822F762F6A2F11249F5750408AF093
:103BD000E1F088234AF0EE0FFF1FBB1F661F771F1F
:103BE000881F91505040A9F79E3F510570F014C0B6
:103BF0005EC05F3FECF3983EDCF386957795679562
:103C0000B795F795E7959F5FC1F7FE2B880F911D3C
:103C10009695879597F9089597F99F6780E870E0E2
:103C200060E008959FEF80EC089500240A94161632
:103C3000170618060906089500240A94121613069A
:103C4000140605060895092E0394000C11F4882328
:103C500052F0BB0F40F4BF2B11F460FF04C06F5F44
:103C60007F4F8F4F9F4F089557FD9058440F551F1A
:103C700059F05F3F71F04795880F97FB991F61F0EE
:103C80009F3F79F087950895121613061406551F65
:103C9000F2CF4695F1DF08C0161617061806991FD1
:103CA000F1CF86957105610508940895E894BB27C6
:103CB00066277727CB0197F90895052E97FB16F411
:103CC00000940FD057FD05D024D007FC02D046F455
:103CD00008C050954095309521953F4F4F4F5F4F0D
:103CE000089590958095709561957F4F8F4F9F4F68
:103CF000089531D0A59F900DB49F900DA49F800D85
:103D0000911D11240895B7FFF4CFF3DF821B930BAD
:103D10000895A1E21A2EAA1BBB1BFD010DC0AA1F0C
:103D2000BB1FEE1FFF1FA217B307E407F50720F024
:103D3000A21BB30BE40BF50B661F771F881F991F9F
:103D40001A9469F760957095809590959B01AC01E8
:103D5000BD01CF010895A29FB001B39FC001A39FF1
:103D6000700D811D1124911DB29F700D811D1124B4
:103D7000911D08955058BB27AA270ED064CF55DF58
:103D800030F05ADF20F031F49F3F11F41EF44ACF97
:103D90000EF4E095E7FB40CFE92F66DF80F3BA171A
:103DA000620773078407950718F071F49EF57ECFBC
:103DB0000EF4E0950B2EBA2FA02D0B01B901900146
:103DC0000C01CA01A0011124FF27591B99F0593F8A
:103DD00050F4503E68F11A16F040A22F232F342FD2
:103DE0004427585FF3CF469537952795A795F04020
:103DF0005395C9F77EF41F16BA0B620B730B840B35
:103E0000BAF09150A1F0FF0FBB1F661F771F881FEC
:103E1000C2F70EC0BA0F621F731F841F48F4879544
:103E200077956795B795F7959E3F08F0B3CF939533
:103E3000880F08F09927EE0F979587950895F5DE7E
:103E400058F080E891E009F49EEFF6DE28F040E8B3
:103E500051E059F45EEF09C0E5CE28CFE92FE078B4
:103E600003DF68F3092E052AC1F326173707480731
:103E7000590738F00E2E07F8E02569F0E025E064D8
:103E80000AC0EF6307F8009407FADB01B9019D014E
:103E9000DC01CA01AD01EF9343D0D5DE0AD05F91BA
:103EA000552331F02BED3FE049E450FD49EC63CF61
:103EB0000895DF93DD27B92FBF7740E85FE316163B
:103EC000170648075B0710F4D92FD8D09F938F931C
:103ED0007F936F93DAD0E4EEF0E0A7D0B4DE2F91B9
:103EE0003F914F915F9141DEDD2349F09058A2EA66
:103EF0002AED3FE049EC5FE3D0785D274DDFDF91AD
:103F0000A2CE0CD0A0CE98DE40F08FDE30F021F4AF
:103F10005F3F19F081CE5111CACE84CEA5DE98F351
:103F20009923C9F35523B1F3951B550BBB27AA273A
:103F300062177307840738F09F5F5F4F220F331FAC
:103F4000441FAA1FA9F333D00E2E3AF0E0E830D078
:103F500091505040E695001CCAF729D0FE2F27D07B
:103F6000660F771F881FBB1F261737074807AB0749
:103F7000B0E809F0BB0B802DBF01FF2793585F4FBE
:103F80002AF09E3F510568F047CE91CE5F3FECF39B
:103F9000983EDCF3869577956795B795F7959F5F83
:103FA000C9F7880F911D9695879597F90895E1E0D7
:103FB000660F771F881FBB1F621773078407BA0736
:103FC00020F0621B730B840BBA0BEE1F88F7E09591
:103FD000089552DE88F09F5790F0B92F9927B75176
:103FE000A0F0D1F0660F771F881F991F1AF0BA95BD
:103FF000C9F712C0B13081F059DEB1E0089556CE54
:10400000672F782F8827B85F39F0B93FCCF38695B2
:1040100077956795B395D9F73EF49095809570950F
:1040200061957F4F8F4F9F4F0895DF93CF931F93DD
:104030000F93FF92EF92DF927B018C01689405C091
:10404000DA2EEF0192DDFE01E894A59125913591DC
:1040500045915591AEF3EF019FDEFE019701A80156
:10406000DA9479F7DF90EF90FF900F911F91CF9145
:10407000DF9108954ADD08F48FEF08959B01AC01AC
:1040800060E070E080E89FE33CCF9B01AC0161CD34
:10409000991B79E004C0991F961708F0961B881F9A
:1040A0007A95C9F78095089597FB072E16F400942A
:1040B00006D077FD08D013D007FC05D03EF49095CC
:1040C00081959F4F0895709561957F4F0895EE0FEC
:1040D000FF1F881F8BBF0790F691E02D1994AA1B34
:1040E000BB1B51E107C0AA1FBB1FA617B70710F0E3
:1040F000A61BB70B881F991F5A95A9F78095909515
:10410000BC01CD010895FB01DC018D910190801966
:0C4110000110D9F3990B0895F894FFCF2B
:10411C0001005A00FF16051605160516051605169C
:10412C0005160516050000803FCDCCCC3D6F1283E3
:10413C003A95BFD6337D1D9026B3CE010CCDCCCC99
:10414C003D0AD7233C17B7D13877CC2B329595E65F
:10415C00241FB14F0A000020410000C84200401C3F
:10416C004620BCBE4CCA1B0E5AAEC59D7400000046
:10417C0000AD0216024502F90276025402680200F2
:10418C0000000084075807B2072E0751073E072F7F
:10419C000722225C5C6208660C6E0A720D740900C0
:1041AC006E756C6C00652D00747275650066616CC3
:1041BC007365007265616479000D0A0020636F6D90
:1041CC006D616E64206E6F7420666F756E64210075
:1041DC00646973740074656D700070697463680051
:0641EC00726F6C6C000014
:020000023000CC
:10E000000D9489F10D94B2F10D94B2F10D94B2F129
:10E010000D94B2F10D94B2F10D94B2F10D94B2F1F0
:10E020000D94B2F10D94B2F10D94B2F10D94B2F1E0
:10E030000D94B2F10D94B2F10D94B2F10D94B2F1D0
:10E040000D94B2F10D94B2F10D94B2F10D94B2F1C0
:10E050000D94B2F10D94B2F10D94B2F10D94B2F1B0
:10E060000D94B2F10D94B2F10D94B2F10D94B2F1A0
:10E070000D94B2F10D94B2F10D94B2F10D94B2F190
:10E080000D94B2F10D94B2F10D94B2F10D94B2F180
:10E090000D94B2F10D94B2F10D94B2F10D94B2F170
:10E0A0000D94B2F10D94B2F10D94B2F10D94B2F160
:10E0B0000D94B2F10D94B2F10D94B2F10D94B2F150
:10E0C0000D94B2F10D94B2F10D94B2F10D94B2F140
:10E0D0000D94B2F10D94B2F10D94B2F10D94B2F130
:10E0E0000D94B2F141546D656761323536300041AF
:10E0F000726475696E6F206578706C6F72657220DE
:10E1000073746B3530305632206279204D4C530099
:10E11000426F6F746C6F616465723E004875683F52
:10E1200000436F6D70696C6564206F6E203D200048
:10E130004350552054797065202020203D20005FF9
:10E140005F4156525F415243485F5F3D2000415658
:10E1500052204C696243205665723D20004743437C
:10E160002056657273696F6E203D20004350552024
:10E1700049442020202020203D20004C6F7720663D
:10E18000757365202020203D20004869676820665F
:10E190007573652020203D200045787420667573D6
:10E1A00065202020203D20004C6F636B2066757336
:10E1B000652020203D20004D617220203720323024
:10E1C000313300312E362E3800342E332E350056A2
:10E1D00023202020414444522020206F7020636F70
:10E1E00064652020202020696E73747275637469E1
:10E1F0006F6E2061646472202020496E74657272B3
:10E20000757074006E6F20766563746F7200726A49
:10E210006D702020006A6D70200057686174207056
:10E220006F72743A00506F7274206E6F7420737541
:10E2300070706F72746564004D7573742062652030
:10E2400061206C6574746572002000577269747483
:10E25000696E672045450052656164696E672045B7
:10E26000450045452065727220636E743D00504F35
:10E27000525400303D5A65726F2061646472003FF1
:10E280003D43505520737461747300403D454550C3
:10E29000524F4D207465737400423D426C696E6B41
:10E2A000204C454400453D44756D70204545505215
:10E2B0004F4D00463D44756D7020464C415348001B
:10E2C000483D48656C70004C3D4C69737420492F83
:10E2D0004F20506F72747300513D51756974005234
:10E2E0003D44756D702052414D00563D73686F7707
:10E2F00020696E7465727275707420566563746FF0
:10E30000727300593D506F727420626C696E6B00BD
:10E310002A0011241FBECFEFD1E2DEBFCDBF01E046
:10E320000CBF12E0A0E0B2E0EEE1FDEF03E00BBFB6
:10E3300002C007900D92A030B107D9F712E0A0E01B
:10E34000B2E001C01D92AE30B107E1F70F9460F367
:10E350000D948DFE01E20EBF0FEF0DBF11241FBE05
:10E360000D9460F30D9400F020E030E040ED57E0B4
:10E3700005C0FA013197F1F72F5F3F4F2817390792
:10E38000C0F308959C01260F311DC901A0E0B0E043
:10E390002F5F3F4FABBFFC018791882361F08093D3
:10E3A000C6008091C00086FFFCCF8091C0008064D1
:10E3B0008093C000EACF08958DE08093C6008091DD
:10E3C000C00086FFFCCF8091C00080648093C000B5
:10E3D0008AE08093C6008091C00086FFFCCF8091C8
:10E3E000C00080648093C00008950F94C2F10F9420
:10E3F000DCF10895FC019081992359F09093C600B7
:10E400008091C00086FFFCCF8091C0008064809323
:10E41000C0003196992379F70895282F982F929567
:10E420009F70892F805D8A3308F0895F8093C600D2
:10E430008091C00086FFFCCF8091C00080648093F3
:10E44000C000822F8F70982F905D9A3308F0995FEB
:10E450009093C6008091C00086FFFCCF8091C000E1
:10E4600080648093C00008959C01FB01853691056E
:10E470001CF46330710594F0C90164E670E00F94F8
:10E480002EFE605D7F4F6093C6008091C00086FFC6
:10E49000FCCF8091C00080648093C0002B30310598
:10E4A00014F43297B4F0C90164E670E00F942EFEC4
:10E4B0006AE070E00F942EFE605D7F4F6093C600AF
:10E4C0008091C00086FFFCCF8091C0008064809363
:10E4D000C000C9016AE070E00F942EFEC0968093E0
:10E4E000C6008091C00086FFFCCF8091C000806490
:10E4F0008093C00008951F93182F8EE692EE60E07F
:10E500000F94C2F11093C6008091C00086FFFCCF2B
:10E510008091C00080648093C0000F94DCF11F9153
:10E5200008952F923F924F925F926F927F928F92B7
:10E530009F92AF92BF92CF92DF92EF92FF920F9392
:10E540001F93DF93CF93CDB7DEB762970FB6F894E2
:10E55000DEBF0FBECDBF382E622ECA01DB015C01CB
:10E560006D01772420E2222E2E010894411C511CBB
:10E570008BC081E0A81680E0B80681E0C80680E084
:10E58000D80628F0C601AA27BB270F940DF2BB2797
:10E59000AD2D9C2D8B2D0F940DF28A2D0F940DF225
:10E5A0002092C6008091C00086FFFCCF8091C00001
:10E5B00080648093C0009DE29093C6008091C0006B
:10E5C00086FFFCCF8091C00080648093C0002092C1
:10E5D000C6008091C00086FFFCCF8091C00080649F
:10E5E0008093C00019828601750188249924A1E0D6
:10E5F0003A1651F03A1620F0B2E03B1661F409C029
:10E600000BBFF701779007C0C7010F9477FE782EF4
:10E6100002C0F7017080872D0F940DF22092C60082
:10E620008091C00086FFFCCF8091C0008064809301
:10E63000C000872D8052F401EF70F0708F3520F408
:10E64000E40DF51D708204C0E40DF51D8EE280839B
:10E650000894E11CF11C011D111D0894811C911CE2
:10E6600090E18916910409F0C2CF80E190E0A0E02A
:10E67000B0E0A80EB91ECA1EDB1E198AC2010F9493
:10E68000FAF10F94DCF16A94662009F072CF629679
:10E690000FB6F894DEBF0FBECDBFCF91DF911F91B3
:10E6A0000F91FF90EF90DF90CF90BF90AF909F9031
:10E6B0008F907F906F905F904F903F902F90089534
:10E6C0002F923F924F925F926F927F928F929F9282
:10E6D000AF92BF92CF92DF92EF92FF920F931F9370
:10E6E000DF93CF93CDB7DEB7CD53D1400FB6F894BB
:10E6F000DEBF0FBECDBF01E20EBF0FEF0DBF94B75F
:10E70000F894A89514BE80916000886180936000A1
:10E7100010926000789493FF05C0E0910002F091A0
:10E7200001021995279A2F9A8091C00082608093E8
:10E73000C00080E18093C40088E18093C1000000A4
:10E74000EE24FF24870144E0A42EB12CCC24DD2448
:10E7500024C0C5010197F1F70894E11CF11C011DCB
:10E76000111D21E2E2162EE4F20620E0020720E06D
:10E77000120718F031E0C32ED12CC801B70127ECE5
:10E780003BE140E050E00F9441FE611571058105C9
:10E79000910519F485B1805885B98091C00087FD35
:10E7A00003C0C114D104A9F2A6014F5F5F4FC25E3E
:10E7B000DE4F59834883CE51D140C25EDE4F8881FF
:10E7C0009981CE51D140019711F00D9410FEC05D9A
:10E7D000DE4F19821882C053D14060E0C15DDE4F28
:10E7E0001882CF52D14088249924C35DDE4F19820C
:10E7F0001882CD52D140C05EDE4F188219821A8233
:10E800001B82C052D140CE5CDE4F188219821A8220
:10E810001B82C253D140EE24FF2487010BBFF701B6
:10E8200007911691C45CDE4F19830883CC53D14005
:10E830000D940BFEC25EDE4F28813981CE51D1404E
:10E840002130310509F52091C600C25EDE4F1982E4
:10E850001882CE51D14022C02F5F3F4F4F4F5F4FA4
:10E86000213082E138078AE7480780E0580780F0C6
:10E87000C45CDE4FE881F981CC53D140EF5FFF4F9C
:10E8800019F0EE27FF27099420E030E040E050E047
:10E890008091C00087FFE0CF2091C600C35DDE4FAE
:10E8A00048815981CD52D1404F5F5F4FC35DDE4FEC
:10E8B00059834883CD52D140213209F063C64A3092
:10E8C000510508F05FC60894811C911C53E0851621
:10E8D000910409F059C600E010E018C081E280936D
:10E8E000C6008091C00086FFFCCF8091C00080648C
:10E8F0008093C0002F5F3F4F2931310579F70F9486
:10E90000DCF10F5F1F4F0530110519F020E030E0FA
:10E91000E5CF10920A0210920B0210920C02109294
:10E920000D02109206021092070210920802109235
:10E930000902109202021092030210920402109235
:10E9400005028FEE90EE60E00F94F5F180E191EE1C
:10E9500060E00F94C2F18091C00087FFFCCF9091DE
:10E96000C600903608F09F759032B8F09093C600BC
:10E970008091C00086FFFCCF8091C00080648093AE
:10E98000C000A0E2A093C6008091C00086FFFCCF2B
:10E990008091C00080648093C000983409F4D7C18E
:10E9A0009934B8F4923409F459C1933458F490333B
:10E9B00019F1903308F4E3C59F33A1F1903409F0C5
:10E9C000DEC5BDC0953409F470C1963409F0D7C5D1
:10E9D00098C1923509F42BC2933538F49C3409F46C
:10E9E000F5C1913509F0CBC518C2963509F445C279
:10E9F000993509F0C4C567C483E792EE62E00F94CD
:10EA0000F5F110920602109207021092080210927D
:10EA1000090210920A0210920B0210920C0210923C
:10EA20000D0213C18FE792EE62E00F94F5F18FEEC5
:10EA300090EE60E00F94F5F181E291EE60E00F94CA
:10EA4000C2F187EB91EE60E00F94F5F180E391EE77
:10EA500060E00F94C2F184EE90EE60E00F94F5F167
:10EA60008FE391EE60E00F94C2F186E090E061E008
:10EA700070E00F9434F20F94DCF18DE591EE60E0DC
:10EA80000F94C2F189EC91EE60E00F94F5F18EE401
:10EA900091EE60E00F94C2F183EC91EE60E00F9490
:10EAA000F5F18CE691EE60E00F94C2F18EE10F94E7
:10EAB0000DF288E90F940DF281E00F940DF20F949E
:10EAC000DCF18BE791EE60E00F94C2F119E0E0E039
:10EAD000F0E010935700E4918E2F0F940DF20F94F5
:10EAE000DCF18AE891EE60E00F94C2F1E3E0F0E03F
:10EAF00010935700E4918E2F0F940DF20F94DCF1D8
:10EB000089E991EE60E00F94C2F1E2E0F0E0109349
:10EB10005700E4918E2F0F940DF20F94DCF188EAE8
:10EB200091EE60E00F94C2F1E1E0F0E01093570045
:10EB30001491812F0F940DF20F94DCF107CF8BE825
:10EB400092EE62E00F94F5F18BE492EE60E00F94A8
:10EB5000F5F10F94DCF100E010E019C0C8016F2D51
:10EB60000F947FFEFF2031F489E492EE60E00F9471
:10EB7000C2F10BC0F092C6008091C00086FFFCCFAE
:10EB80008091C00080648093C0000F5F1F4FC80158
:10EB900081519F41A0E0B0E0ABBFFC01F790BAE229
:10EBA000FB1621F0E2E000301E07C1F60F94DCF105
:10EBB0000F94DCF187E592EE60E00F94F5F10F948D
:10EBC000DCF1CC24DD2400E010E01EC0C8010F946D
:10EBD00077FEF82E882331F489E492EE60E00F94FA
:10EBE000C2F10BC08093C6008091C00086FFFCCFAD
:10EBF0008091C00080648093C000FE1419F00894D6
:10EC0000C11CD11C0F5F1F4FC80181519F41A0E063
:10EC1000B0E0ABBFFC01E790FAE2EF1621F022E092
:10EC20000030120799F60F94DCF10F94DCF182E6C4
:10EC300092EE60E00F94C2F1C60161E070E00F94C3
:10EC400034F20F94DCF10F94DCF110920202109276
:10EC50000302109204021092050278CE89E992EE26
:10EC600062E00F94F5F1279A2F9A16C02F9880E052
:10EC700090E0E0EDF7E03197F1F7019684369105E9
:10EC8000C1F72F9A80E090E0E0EDF7E03197F1F7DF
:10EC9000019684369105C1F78091C00087FFE6CFC9
:10ECA0008091C00087FFFCCF64C485EA92EE62E0E9
:10ECB0000F94F5F140910202509103026091040219
:10ECC0007091050281E020E10F9491F2809102029F
:10ECD00090910302A0910402B091050280509F4FD1
:10ECE000AF4FBF4F8093020290930302A0930402A0
:10ECF000B093050280509041A040B04008F426CE69
:10ED0000A4CF83EB92EE62E00F94F5F140910602FE
:10ED100050910702609108027091090280E020E1A1
:10ED20000F9491F28091060290910702A09108023F
:10ED3000B091090280509F4FAF4FBF4F80930602A2
:10ED400090930702A0930802B0930902FFCD80ECD4
:10ED500092EE62E00F94F5F183E792EE60E00F949B
:10ED6000F5F18FE792EE60E00F94F5F18BE892EE0B
:10ED700060E00F94F5F189E992EE60E00F94F5F10F
:10ED800085EA92EE60E00F94F5F183EB92EE60E09D
:10ED90000F94F5F180EC92EE60E00F94F5F187ECC2
:10EDA00092EE60E00F94F5F188ED92EE60E00F9442
:10EDB000F5F18FED92EE60E00F94F5F18AEE92EEB0
:10EDC00060E00F94F5F183E093EEBDCD87EC92EE19
:10EDD00062E00F94F5F181E40F947BF282E40F94EA
:10EDE0007BF283E40F947BF284E40F947BF285E45E
:10EDF0000F947BF286E40F947BF287E40F947BF20E
:10EE000088E40F947BF28AE40F947BF28BE40F94F6
:10EE10007BF28CE40F947BF299CD88ED92EE62E068
:10EE20000F94F5F1772473948824992409C48FED05
:10EE300092EE62E00F94F5F140910A0250910B02BC
:10EE400060910C0270910D0282E020E10F9491F22A
:10EE500080910A0290910B02A0910C02B0910D02D8
:10EE600080509F4FAF4FBF4F80930A0290930B0289
:10EE7000A0930C02B0930D0269CD8AEE92EE62E08F
:10EE80000F94F5F184EE90EE60E00F94F5F18FECC5
:10EE900091EE60E00F94F5F1662477244301CC5D98
:10EEA000DE4F19821882C452D140D401C301B695F5
:10EEB000A79597958795CA5DDE4F88839983AA8326
:10EEC000BB83C652D140CC5DDE4FA881B981C4520C
:10EED000D1401196CC5DDE4FB983A883C452D14096
:10EEE000CD0162E070E00F9434F2B0E2B093C6005E
:10EEF0008091C00086FFFCCF8091C0008064809329
:10EF0000C000EDE2E093C6008091C00086FFFCCF18
:10EF10008091C00080648093C000F0E2F093C6004E
:10EF20008091C00086FFFCCF8091C00080648093F8
:10EF3000C000CA5DDE4FE880F9800A811B81C6529D
:10EF4000D140BB27A12F902F8F2D0F940DF2CA5DBA
:10EF5000DE4F8881C652D1400F940DF2B0E2FB2EF5
:10EF6000F092C6008091C00086FFFCCF8091C00067
:10EF700080648093C0000DE30093C6008091C000C0
:10EF800086FFFCCF8091C00080648093C00010E2B7
:10EF90001093C6008091C00086FFFCCF8091C00016
:10EFA00080648093C0008BBEF3012791C65DDE4F65
:10EFB0002883CA52D140A22EBB24CC24DD2408943D
:10EFC000611C711C811C911C8BBEF3018791282E42
:10EFD0003324442455240894611C711C811C911C09
:10EFE0008BBEF3013791C55DDE4F3883CB52D140E4
:10EFF0000894611C711C811C911C8BBEF30147910C
:10F00000C45DDE4F4883CC52D140ADEFEA2EAFEF66
:10F01000FA2EAFEF0A2FAFEF1A2F6E0C7F1C801E57
:10F02000911E142D032DF22CEE24EA0CFB1C0C1D5A
:10F030001D1D0F940DF220E22093C6008091C000A8
:10F0400086FFFCCF8091C00080648093C000C65DC5
:10F05000DE4F8881CA52D1400F940DF230E23093D6
:10F06000C6008091C00086FFFCCF8091C000806404
:10F070008093C000C45DDE4F8881CC52D1400F9494
:10F080000DF240E24093C6008091C00086FFFCCFA5
:10F090008091C00080648093C000C55DDE4F888190
:10F0A000CB52D1400F940DF250E25093C6008091A4
:10F0B000C00086FFFCCF8091C00080648093C000B8
:10F0C0008FEFE8168FEFF80680E0080780E018075A
:10F0D00031F484E092EE60E00F94C2F1DFC0D80119
:10F0E000C7018070907CA070B0708050904CA040A0
:10F0F000B040D1F52FEF3FE340E050E0E222F322B1
:10F1000004231523CA5DDE4FA880B980CA80DB8046
:10F11000C652D140AE0CBF1CC01ED11EAA0CBB1CD7
:10F12000CC1CDD1C8EE092EE60E00F94C2F1BB2798
:10F13000A12F902F8F2D0F940DF28E2D0F940DF285
:10F1400030E23093C6008091C00086FFFCCF8091F2
:10F15000C00080648093C0004EE34093C60080915D
:10F16000C00086FFFCCF87C08EE09EEFA0E0B0E03D
:10F17000E822F9220A231B239CE0E91694E9F90608
:10F1800090E0090790E0190709F088C0C45DDE4FE0
:10F19000A881CC52D140EA2EFF2400E010E0102FCD
:10F1A0000F2DFE2CEE24C55DDE4FB881CB52D14031
:10F1B000EB0EF11C011D111DD601C501817090706F
:10F1C000A070B070DC0199278827E80EF91E0A1F8D
:10F1D0001B1F20EF30E040E050E0A222B322C42207
:10F1E000D52241E1AA0CBB1CCC1CDD1C4A95D1F7F1
:10F1F000EA0CFB1C0C1D1D1D81E090E0A0E0B0E0BE
:10F20000282239224A225B2235E1220C331C441C7D
:10F21000551C3A95D1F7E20CF31C041D151D57013E
:10F220006801AA0CBB1CCC1CDD1C85E192EE60E0E1
:10F230000F94C2F1C801AA27BB270F940DF2BB2778
:10F24000A12F902F8F2D0F940DF28E2D0F940DF274
:10F2500090E29093C6008091C00086FFFCCF809121
:10F26000C00080648093C000AEE3A093C60080918C
:10F27000C00086FFFCCF8091C00080648093C000F6
:10F28000C601AA27BB270F940DF2BB27AD2D9C2DDD
:10F290008B2D0F940DF28A2D0F940DF20F94DCF14B
:10F2A000CC5DDE4FE881F981C452D140F99709F471
:10F2B0004DCBF4E0EF2EF12C012D112D6E0C7F1CA7
:10F2C000801E911EF2CD83E093EE62E00F94F5F183
:10F2D0008AE192EE60E00F94C2F18091C00087FF56
:10F2E000FCCF1091C6001F751093C6008091C0001E
:10F2F00086FFFCCF8091C00080648093C0000F9493
:10F30000DCF1812F81548A3108F036C1163409F4BA
:10F3100095C0173490F4133409F44EC0143430F40B
:10F320001134F1F0123409F01DC130C0143409F465
:10F3300059C0153409F016C16BC01A3409F4C4C0A1
:10F340001B3438F4173409F48FC0183409F00AC19B
:10F35000A1C01B3409F4D2C01C3409F003C1E8C0B9
:10F360008FEF81B90DC082B1809582B980E090E0C5
:10F37000E0EDF7E03197F1F70196883C9105C1F790
:10F380008091C00087FFEFCF12B8EFC08FEF84B934
:10F390000DC085B1809585B980E090E0E0EDF7E0A3
:10F3A0003197F1F70196883C9105C1F78091C00033
:10F3B00087FFEFCF15B8D9C08FEF87B90DC088B1DF
:10F3C000809588B980E090E0E0EDF7E03197F1F7C3
:10F3D0000196883C9105C1F78091C00087FFEFCF6F
:10F3E00018B8C3C08FEF8AB90DC08BB180958BB9A7
:10F3F00080E090E0E0EDF7E03197F1F70196883C8E
:10F400009105C1F78091C00087FFEFCF1BB8ADC059
:10F410008FEF8DB90DC08EB180958EB980E090E0F0
:10F42000E0EDF7E03197F1F70196883C9105C1F7DF
:10F430008091C00087FFEFCF1EB897C08FEF80BBD1
:10F440000DC081B3809581BB80E090E0E0EDF7E0F6
:10F450003197F1F70196883C9105C1F78091C00082
:10F4600087FFEFCF11BA81C08FEF83BB0DC084B38C
:10F47000809584BB80E090E0E0EDF7E03197F1F714
:10F480000196883C9105C1F78091C00087FFEFCFBE
:10F4900014BA6BC08FEF809301010FC080910201FD
:10F4A00080958093020180E090E0E0EDF7E03197F5
:10F4B000F1F70196883C9105C1F78091C00087FF64
:10F4C000EDCF1092020151C08FEF809304010FC065
:10F4D0008091050180958093050180E090E0E0ED4A
:10F4E000F7E03197F1F70196883C9105C1F78091DB
:10F4F000C00087FFEDCF1092050137C08FEF8093DA
:10F5000007010FC08091080180958093080180E079
:10F5100090E0E0EDF7E03197F1F70196883C910536
:10F52000C1F78091C00087FFEDCF109208011DC088
:10F530008FEF80930A010FC080910B01809580931B
:10F540000B0180E090E0E0EDF7E03197F1F70196F4
:10F55000883C9105C1F78091C00087FFEDCF1092E4
:10F560000B0103C085E292EEEEC98091C00087FFD7
:10F57000FCCF8091C600EAC988E392EEE4C98CE131
:10F5800091EEE1C988249924933011F1943028F444
:10F59000913089F09230B8F408C0953061F195301F
:10F5A000F0F0963009F048C043C02B3109F042C951
:10F5B00091E06BE13FC96227C15DDE4F2883CF52E6
:10F5C000D14092E037C9B22FA0E0622793E032C960
:10F5D000822F90E0A82BB92B622794E02BC92E3004
:10F5E00009F039C3622795E0C05DDE4F19821882A9
:10F5F000C053D1401FC9E1E0F0E0EC0FFD1FC05D3A
:10F60000DE4F08811981C053D140E00FF11F2083E4
:10F610000F5F1F4FC05DDE4F19830883C053D14079
:10F6200062270A171B0709F005C9D80196E002C92D
:10F63000261709F010C303C0973009F0FBC87724E0
:10F640009981933109F412C19431C8F4963009F4C8
:10F65000D8C0973050F4923009F406C1933009F4C1
:10F660006DC0913009F059C253C0913109F477C08F
:10F67000923108F0BBC0903109F04FC2F5C098310B
:10F6800009F487C0993150F4953109F4EFC09531F0
:10F6900008F4C6C1963109F040C2C2C19A3109F4DA
:10F6A0006CC09A3108F491C09B3109F45BC09D3164
:10F6B00009F033C29D81903359F48F81882311F46E
:10F6C0009EE11CC0813011F091E018C098E916C08D
:10F6D000892F807591F0903539F4E0E0F0E089E011
:10F6E0008093570094910AC0983539F4E3E0F0E034
:10F6F00089E080935700949101C090E01A821B82A8
:10F700008D818C831D829E831F8227E030E009C299
:10F710001A8288E08B8381E48C8386E58D8382E581
:10F720008E8389E48F8383E5888780E589878FE5E9
:10F730008A8782E38B872BE030E0F3C18A818139AD
:10F7400041F0823941F0803911F48FE005C080E04A
:10F7500003C082E001C08AE01A828B8344C0772410
:10F76000739482C08D81882311F48EE12CC0813086
:10F7700011F081E028C088E926C01A82E1E0F0E0BB
:10F7800089E08093570084918B831C8224E030E0D1
:10F79000C8C18B81803589F48C81883039F4E2E0EE
:10F7A000F0E089E08093570084910DC0E0E0F0E044
:10F7B00089E080935700849106C0E3E0F0E089E09F
:10F7C0008093570084911A82DFCF8D81836C99E0FA
:10F7D000E1E0F0E0082E90935700E89507B600FCB2
:10F7E000FDCF1A821B8223E030E09BC180EC8A832C
:10F7F000CE5CDE4F188219821A821B82C253D1401E
:10F800008EC18A8190E0A0E0B0E0582F44273327D2
:10F8100022278B8190E0A0E0B0E0DC0199278827C7
:10F82000282B392B4A2B5B2B8D8190E0A0E0B0E098
:10F83000282B392B4A2B5B2B8C8190E0A0E0B0E089
:10F84000BA2FA92F982F8827282B392B4A2B5B2BCF
:10F85000220F331F441F551FC05EDE4F288339839C
:10F860004A835B83C052D1401A8259C13A81C95C34
:10F87000DE4F3883C753D140CA5CDE4F1882C6536F
:10F88000D1408B81C82EDD24CA5CDE4F488159816E
:10F89000C653D140C42AD52A933109F082C0CE5C28
:10F8A000DE4F88819981AA81BB81C253D1408050AB
:10F8B000904CA340B04030F583E0CE5CDE4FE88052
:10F8C000F9800A811B81C253D140F70100935B008C
:10F8D00080935700E89507B600FCFDCFCE5CDE4F65
