:100000001AC1000049C1000047C1000045C10000FD
:1000100043C1000041C100003FC100003DC10000DC
:100020003BC1000039C1000037C1000035C10000EC
:1000300033C100000C94C20F2FC100002DC100007D
:100040002BC100000C94561127C1000025C10000EF
:1000500023C1000021C100001FC100000C948210C8
:100060001BC100000C944C100C94221015C1000010
:1000700013C1000011C100000FC100000DC100003C
:100080000C94281109C1000007C1000005C100003F
:1000900003C1000001C10000FFC000000C948411E6
:1000A000FBC00000F9C000000C94FA10F5C000007D
:1000B000F3C00000F1C00000EFC000000C94CC10B1
:1000C000EBC00000E9C00000E7C00000E5C0000090
:1000D000E3C00000E1C00000DFC00000DDC00000A0
:1000E000DBC00000084AD73B3BCE016E84BCBFFD9D
:1000F000C12F3D6C74319ABD56833DDA3D00C77FF8
:1001000011BED9E4BB4C3E916BAAAABE0000008090
:100110003F0000000A0B02090C0D0E080703040142
:1001200000000000000000000000000000000000CF
:10013000000000000000000000000000000012119C
:10014000100000000000000000000000000000009F
:100150000000000000000000020000210024002731
:10016000002A002D003000330001010000040107C7
:10017000010A01000020002300260029002C002F86
:100180000032000001000003010601090100002205
:1001900000250028002B002E003100340002010051
:1001A00000050108010B01050505050705080808FC
:1001B00008020202020A0A080804040404010101F8
:1001C0000101010101030303030303030304070700
:1001D000070C0C0C0C0C0C0C0C020202020606069E
:1001E00006060606060B0B0B0B0B0B0B0B01021086
:1001F0002020080810204010204080020102010841
:1002000004020101020408102040808040201008F0
:100210000402018004020180402010080402010849
:1002200004020101020408102040800102040810A9
:1002300020408000C31211241FBECFEFD1E2DEBFE9
:10024000CDBF00E00CBF12E0A0E0B2E0EAE0FCE3CA
:1002500000E00BBF02C007900D92A83CB107D9F790
:1002600025E0A8ECB2E001C01D92A537B207E1F786
:1002700011E0CBE1D1E000E006C021970109802F19
:10028000FE010E94DE1DCA31D10780E00807A9F7F0
:100290000E9467130C94031EB3CE90913F049111FA
:1002A000FCCF91E090933F0490933E042FEF209376
:1002B0003D0410923C04260F20933B0490933A0493
:1002C00090913A04880F892B80933A0480913904E5
:1002D0008130F9F41092390480913A048093BB0084
:1002E0008091BC0083FDF8CF85EC8093BC008091A9
:1002F0003F048130E1F380913C04861710F4609153
:100300003C04A9E1B4E0E9EFF3E080E0861303C028
:10031000089585EEEACF9D9191938F5FF7CF982F47
:100320002091F80381E0213208F043C080913F041E
:100330008111FCCF8091F70332E030933F0490931A
:100340003E049FEF90933D0410923C0420933B04A5
:10035000A7EDB3E0E9E1F4E090E0291331C0109299
:100360003A0490913A04880F892B80933A04809143
:100370003904813049F51092390480913A04809310
:10038000BB008091BC0083FDF8CF85EC8093BC005E
:1003900080913F048230E1F380913D048F3FB1F0C2
:1003A00080913D048032A1F080913D04803391F032
:1003B00084E01092D6031092F8031092D5030895AA
:1003C0003D9131939F5FC9CF85EEE0CF80E0F1CFC3
:1003D00082E0EFCF83E0EDCF1F93CF93DF93162F13
:1003E000C9E0D5E0A881B98191E09093D50398E662
:1003F0009093F7031092D6031092F803ED91FC91BD
:1004000011970190F081E02D682FCD011995888119
:100410009981DC01ED91FC910190F081E02D612F3B
:10042000199581E0DF91CF911F9179CF90E0FC0188
:10043000E351FE4F249189559E4FFC0184918823FE
:1004400099F090E0880F991FFC01E75AFE4FA591A3
:10045000B491FC01E357FE4F859194918FB7F894C6
:10046000EC91E22BEC938FBF0895AF92BF92CF92A5
:10047000DF92EF92FF920F931F93CF93DF936C0164
:100480007B018B01040F151FEB015E01AE18BF0845
:10049000C017D10759F06991D601ED91FC910190F7
:1004A000F081E02DC6011995892B79F7C501DF91FF
:1004B000CF911F910F91FF90EF90DF90CF90BF9061
:1004C000AF90089508950895FC01538D448D252F14
:1004D00030E0842F90E0821B930B541710F0CF96DE
:1004E000089501970895FC01918D828D981761F010
:1004F000A28DAE0FBF2FB11D5D968C91928D9F5F27
:100500009F73928F90E008958FEF9FEF0895FC0105
:10051000918D828D981731F0828DE80FF11D858DB8
:1005200090E008958FEF9FEF0895FC01918D228D4B
:10053000892F90E0805C9F4F821B91098F739927D0
:10054000089580E494E0F1DF21E0892B09F420E0B4
:10055000822F0895FC01A48DA80FB92FB11DA35AB5
:10056000BF4F2C91848D90E001968F739927848FD3
:10057000A689B7892C93A089B1898C9183708064F6
:100580008C93938D848D981306C00288F389E02D97
:1005900080818F7D80830895EF92FF920F931F9348
:1005A000CF93DF93EC0181E0888F9B8D8C8D981326
:1005B0001AC0E889F989808185FF15C09FB7F89432
:1005C000EE89FF896083E889F9898081837080647E
:1005D00080839FBF81E090E0DF91CF911F910F91C9
:1005E000FF90EF900895F62E0B8D10E00F5F1F4FD8
:1005F0000F731127E02E8C8D8E110BC00FB607FCE8
:10060000FACFE889F989808185FFF5CFCE01A2DF95
:10061000F2CFEB8DEC0FFD2FF11DE35AFF4FF0826F
:100620009FB7F8940B8FEA89FB8980818062D0CFD5
:10063000CF93DF93EC01888D8823B1F0AA89BB8921
:10064000E889F9898C9185FD03C0808186FD0CC005
:100650000FB607FCF7CF8C9185FFF2CF808185FF25
:10066000EDCFCE0177DFEACFDF91CF91089580E023
:1006700090E0892B21F065DF81110E94000080E06D
:1006800090E0892B49F080E090E0892B29F00E94CE
:10069000000081110E94000080E090E0892B49F069
:1006A00080E090E0892B29F00E94000081110E94D7
:1006B000000080E090E0892B49F080E090E0892BF9
:1006C00029F00E94000081110C94000008958150CF
:1006D000823108F05AC0E82FF0E08827ED58FC4F2F
:1006E0008F4F0C94DE1D9303970385038B038F03B9
:1006F000C5039A03A003A403AA03AE03B203B8037D
:10070000BC03C503C003C603CA03809180008F7772
:10071000809380000895809180008F7DF9CF809133
:100720008000877FF5CF84B58F7784BD089584B529
:100730008F7DFBCF8091B0008F778093B0000895BC
:100740008091B0008F7DF9CF809190008F7780935A
:1007500090000895809190008F7DF9CF8091900056
:10076000877FF5CF8091A0008F778093A0000895B8
:100770008091A0008F7DF9CF8091A000877FF5CF79
:10078000809120018F77809320010895809120012E
:100790008F7DF9CF80912001877FF5CF1F93CF9375
:1007A000DF93282F30E0F901EE5EFE4F8491F901CE
:1007B000E351FE4FD491F901E955FE4FC491CC238A
:1007C000A1F0162F811183DFEC2FF0E0EE0FFF1F59
:1007D000E357FE4FA591B4918FB7F894EC911111A6
:1007E00008C0D095DE23DC938FBFDF91CF911F919E
:1007F0000895DE2BF8CF9091060289130DC0E8E52D
:10080000F1E0E4919FEF90930602E230D9F030F4EA
:10081000EE2379F0E13081F060E0C0CFE43049F1BF
:1008200010F1E530C9F7909173009D7F90937300AC
:10083000F3CF10926E00F0CF90916F009D7F909358
:100840006F00EACF909170009D7F9093700091E0CF
:100850009093B0009091B100987F94609093B10014
:100860001092B300D9CF909171009D7F9093710049
:10087000D3CF909172009D7F90937200CDCF1F9344
:10088000CF93DF93182FEB01D1DD209731F460E097
:10089000812FDF91CF911F9181CFCF3FD10511F4EF
:1008A00061E0F6CFE12FF0E0EE5EFE4FE491E15023
:1008B000E23108F0B3C0F0E08827EE59FB4F8F4FCC
:1008C0000C94DE1D74047C0481048B0495040E05D5
:1008D0009F04A704AF04B904C304CD04DC04E604F8
:1008E0000E05F004FA04040584B5806884BDC7BD14
:1008F000DF91CF911F91089584B5806284BDC8BDFA
:10090000F7CF80918000806880938000D093890029
:10091000C0938800EDCF809180008062809380003A
:10092000D0938B00C0938A00E3CF809180008860D1
:1009300080938000D0938D00C0938C00D9CF80919C
:10094000B00080688093B000C093B300D1CF809195
:10095000B00080628093B000C093B400C9CF809192
:100960009000806880939000D0939900C093980085
:10097000BFCF80919000806280939000D0939B00C5
:10098000C0939A00B5CF80919000886080939000CA
:10099000D0939D00C0939C00ABCF8091A000806855
:1009A0008093A0008091A0008F7B8093A000D093C3
:1009B000A900C093A8009CCF8091A0008062809382
:1009C000A000D093AB00C093AA0092CF8091A0006A
:1009D00088608093A000D093AD00C093AC0088CF16
:1009E00080912001806880932001D0932901C093D9
:1009F00028017ECF80912001806280932001D093D6
:100A00002B01C0932A0174CF8091200188608093CC
:100A10002001D0932D01C0932C016ACFC038D1059D
:100A20000CF03ECF34CF3FB7F8948091A50390915E
:100A3000A603A091A703B091A80326B5A89B05C063
:100A40002F3F19F00196A11DB11D3FBFBA2FA92F4D
:100A5000982F8827BC01CD01620F711D811D911D4A
:100A600042E0660F771F881F991F4A95D1F70895B6
:100A70008F929F92AF92BF92CF92DF92EF92FF92AE
:100A80006B017C01D0DF4B015C01C114D104E10496
:100A9000F104B1F0C8DF681979098A099B09683E39
:100AA00073408105910588F321E0C21AD108E1085D
:100AB000F10888EE880E83E0981EA11CB11CE5CFDA
:100AC000FF90EF90DF90CF90BF90AF909F908F906E
:100AD00008952FB7F8946091A1037091A2038091BB
:100AE000A3039091A4032FBF0895DC01EC91E033A0
:100AF00090F511968C91119728E830E0281B310968
:100B000087FD3395220F331F220F331F62177307A0
:100B100084F012968C9128E532E0281B310987FD7C
:100B20003395220F331F220F331F621773070CF404
:100B30009B0122503109220F331F4FB7F8948E2F9B
:100B400090E0FC01EE0FFF1FE80FF91FE05FFC4F84
:100B5000328321834FBF0895CF92DF92EF92FF92AD
:100B6000CF93DF93EC01603282E07807CCF5653BF0
:100B7000710514F064EB70E0898128E830E0281BEF
:100B8000310987FD3395220F331F220F331F69016F
:100B9000330FEE08FF088A8128E532E0281B31096F
:100BA00087FD3395220F331F220F331F032E000CB6
:100BB000440B550B2C193D094E095F09DB0177FFEA
:100BC00002C0B0E0A0E00E94FA1B24EB30E040E05D
:100BD00050E00E94D41BC20ED31EE41EF51EB601C7
:100BE000CE01DF91CF91FF90EF90DF90CF907DCF3E
:100BF000DF92EF92FF920F931F93CF93DF93EC015D
:100C0000D62E7A0189018881803308F061C0862F51
:100C10000DDC8881282F30E0F901EE0FFF1FE20F75
:100C2000F31FE05FFC4F9D2D9F736081607C692BFB
:100C3000608320E232E02E193F0937FF02C02D5FAA
:100C40003F4F3595279535952795298320E639E03F
:100C5000201B310B35952795359527952A832CE058
:100C6000622F0E94BF1D829FB001112430E020E05E
:100C7000AB01420F531FFA01EE0FFF1FE40FF51FE8
:100C8000E05FFC4F908196FD16C02F5F3F4F2C30E8
:100C9000310571F7813029F51092800082E0809350
:100CA00081001092850010928400B19A80916F00AB
:100CB000826080936F00E8818E2F90E0FC01EE0F40
:100CC000FF1FE80FF91FE05FFC4F80818064808385
:100CD0008881DF91CF911F910F91FF90EF90DF906E
:100CE0000895823061F410929000809391001092E8
:100CF00095001092940088BB80937100DCCF833004
:100D000069F41092A00082E08093A1001092A500E7
:100D10001092A40089BB80937200CDCF8111CBCFFC
:100D20001092200182E080932101109225011092FF
:100D300024018ABB80937300BECF20E639E040E2F5
:100D400052E056CFAF92BF92CF92DF92EF92FF92D6
:100D50000F931F93CF93DF936B017A01EC01C55F73
:100D6000DC4F28813CE0389F8001399F100D112411
:100D7000A0900F03B12C27FF1FC0FB01118210822E
:100D800088818F5F888388819801280F311D87FDB6
:100D90003A95F6012A153B051CF488818C30BCF18C
:100DA00080819181049680349C4908F471C0F601D9
:100DB0008081918104966EC088819801280F311D31
:100DC00087FD3A952A153B05DCF68881A801480F76
:100DD000511D87FD5A95FA01EE0FFF1FE40FF51F15
:100DE000E05FFC4F808186FFCBCF8881F801E80F60
:100DF000F11D87FDFA95CF01EE0FFF1FE80FF91FD8
:100E0000E05FFC4F808160E08F73C8DCB9CF8081E8
:100E100091812881A801420F511D27FD5A959A0101
:100E2000FA01EE0FFF1FE20FF31FE05FFC4F21817D
:100E30003281820F931FF70191838083888198010B
:100E4000280F311D87FD3A95F901EE0FFF1FE20FC4
:100E5000F31FE05FFC4F808186FF21C08881080F6F
:100E6000111D87FD1A95F801EE0FFF1FE00FF11F0E
:100E7000E05FFC4F808161E08F73DF91CF911F9124
:100E80000F91FF90EF90DF90CF90BF90AF9086CC06
:100E900080E49CE9F701918380838FEF8883DF9161
:100EA000CF911F910F91FF90EF90DF90CF90BF9067
:100EB000AF90089585ED8093BC008091BC0084FDC7
:100EC000FCCF10923F0408952091E802260F3327AB
:100ED000331F21323105ECF420913F04FC0190E0F6
:100EE00080E0243069F082E00895A091E802219129
:100EF000AC0148535D4FA40FB52FB11D2C93019643
:100F0000861798F38091E802680F6093E80280E00A
:100F1000089581E008950895E091D4038091D3036A
:100F2000E81730F4F0E0E750FC4F808190E008953E
:100F30008FEF9FEF08959091D4038091D3032FEF0B
:100F40003FEF981748F4E92FF0E0E750FC4F20817D
:100F500030E09F5F9093D403C90108958091D3033B
:100F60009091D403891B990B0895CF92DF92EF9251
:100F7000FF920F931F93CF93DF937C01CB018A01E4
:100F80002091D503222389F0EB016B01C40ED51EFD
:100F9000CC15DD0561F06991D701ED91FC910190CF
:100FA000F081E02DC7011995F3CF642F8DDFC801C3
:100FB000DF91CF911F910F91FF90EF90DF90CF9035
:100FC0000895CF93DF931F92CDB7DEB76983209149
:100FD000D5032223F9F02091F803203258F021E0C4
:100FE00030E0FC013383228390E080E00F90DF91BA
:100FF000CF9108958091D603E82FF0E0E952FC4F9D
:10100000998190838F5F8093D6038093F80381E06A
:1010100090E0ECCF61E0CE01019656DFF8CF90E092
:1010200080E00895CF93DF93EC0188819981461B7E
:10103000570BDC01ED91FC910280F381E02D1995B5
:101040002A813B81820F931F9B838A83DF91CF91FB
:101050000895EF92FF921F93CF93DF93CDB7DEB742
:1010600066970FB6F894DEBF0FBECDBF9C01CB01D3
:10107000FE0177964E2F1F2F5AE0E52EF12CB70177
:101080000E94CB1D805D8293CB010097C1F7512F49
:10109000BF01C901C7DF66960FB6F894DEBF0FBE69
:1010A000CDBFDF91CF911F91FF90EF900895CF9327
:1010B000DF93EC0188819981DC01ED91FC91019035
:1010C000F081E02D19952A813B81820F931F9B832C
:1010D0008A83DF91CF9108958F929F92AF92BF92B2
:1010E000CF92DF92EF92FF920F931F93CF93DF93F4
:1010F000CDB7DEB766970FB6F894DEBF0FBECDBF93
:101100007C018E01095E1F4F68018AE0882E912CB8
:10111000A12CB12CCB01BA01A50194010E94001CA5
:10112000942F852F605DF80162938F01A901692FCB
:10113000782F411551056105710561F7A601BF01C1
:10114000C70170DF66960FB6F894DEBF0FBECDBF45
:10115000DF91CF911F910F91FF90EF90DF90CF9093
:10116000BF90AF909F908F900895CF93C62FBC01F2
:101170008DE285DB6C2F8AE2CF9110CBCF93C62F07
:10118000BC018CE27CDB61E06C2789E2CF9106CB6D
:10119000EF92FF920F931F93CF93DF93453B51053F
:1011A00098F5FB01208131812417350769F18A0107
:1011B000EB017C012417350794F4688179810617C7
:1011C000170714F1C701C8DC65E070E080E090E02B
:1011D0004FDC88819981019699838883EECF4217ED
:1011E000530794F468817981601771076CF0C70127
:1011F000B3DC65E070E080E090E03ADC88819981C2
:10120000019799838883EECFDF91CF911F910F9142
:10121000FF90EF900895FC0101900020E9F73197CD
:10122000AF01481B590BBC0180E494E01EC9CF9369
:10123000DF93EC0188819981FB0101900020E9F79F
:101240003197AF01461B570BDC01ED91FC910280F9
:10125000F381E02D19952A813B81820F931F9B8397
:101260008A83DF91CF910895FF920F931F93CF93BD
:10127000DF936115710541F462E872E0DF91CF916F
:101280001F910F91FF90D3CF8B01EC0162E2CE0151
:101290000EDFF80161918F01662351F0E3E7F2E080
:1012A000F080FF20A1F38181681751F03296F8CFCA
:1012B00062E2CE01DF91CF911F910F91FF90F7CEA7
:1012C0006CE5CE01F4DE6F2DE2CF2F923F924F926C
:1012D0005F926F927F928F929F92AF92BF92CF92C6
:1012E000DF92EF92FF920F931F93CF93DF93CDB7CF
:1012F000DEB768970FB6F894DEBF0FBECDBF8C0186
:101300004B01DC0114968C9114978F77863009F489
:1013100056C2E0F4823018F1843008F038C2DB01A4
:101320008D919C91F8014281538160817181DC0132
:10133000ED91FC910280F381E02D1995F401228159
:101340003381820F931F93838283D4C18C3079F1D0
:1013500048F4883009F42DC28A3009F41EC262E8CC
:1013600072E03AC2803209F4EAC18034C1F76BE519
:10137000C4019DDED8010D911C910115110509F4E0
:10138000DAC1B401C801A1DFF8018581882309F41D
:10139000D2C1F8E08F02C0011124080F191F0115F6
:1013A000110509F4C8C16CE2C40181DEE6CFF80181
:1013B0004080518062807380A3019201C301B20119
:1013C0000E94BB1A8111CBCF20E030E0A901C301FC
:1013D000B2010E94BB1A882379F0A3019201C301D4
:1013E000B2010E94321C9B01AC01C301B2010E94F8
:1013F000BB1A882309F4B3CF20E030E0A901C30170
:10140000B2010E94BB1A87FF07C06DE2C4014FDE24
:1014100077FA709477F8709420E836E948E15BE455
:10142000C301B2010E94B11D87FD79C03FE4E32EE4
:1014300032E0F32E4FE1C42E42E0D42E57E3A52E26
:1014400052E0B52E00E210E0312C212CD7015E9144
:101450004E913E912E917D01C301B2010E94B11DBA
:1014600087FD0DC0F6012489358946895789C30156
:10147000B2010E94201B2B013C01200E311E15954C
:101480000795F4E0CF1AD108AE14BF04F9F62FEF98
:10149000298B20E030E0A901C301B2010E94B11DF7
:1014A00018160CF043C02CEA35EC47E257E3C301B1
:1014B000B2010E94BB1A1816CCF19989A4E09A02D5
:1014C00050011124D12CC12CB989BF3F79F175018C
:1014D000EC0CFD1CF701E95FFD4FA3019201608157
:1014E0007181828193810E94B11D18167CF4F701ED
:1014F000E95CFD4F2081318142815381C301B201FA
:101500000E94201B2B013C01201A310A15950795DA
:10151000E989E150E98BF4E0CF1AD108D5CF00E298
:1015200010E085E0898B312C212CB3CFC301B201AF
:101530000E94601D698B7A8B8B8B9C8B6B017C016D
:1015400016E080E492E4AFE0B0E08D8B9E8BAF8B31
:10155000B88FB12E11509AE0C916D104E104F104FC
:10156000C8F06D897E898F89988D2AE030E040E04F
:1015700050E00E94001C2D8B3E8B4F8B588FC70173
:10158000B6012AE030E040E050E00E94001C690112
:101590007A01DFCF69897A898B899C890E94BF1A79
:1015A0009B01AC01C301B2010E94311C6B017C01A3
:1015B0006D897E898F89988D0E94BF1A9B01AC012D
:1015C000C701B6010E94201B2B013C010E94601D37
:1015D0006B017C010E94BF1A9B01AC01C301B201E7
:1015E0000E94311C9B01AC010E94321C0E94601DB4
:1015F000C60ED71EE81EF91E8D899E89AF89B88D4B
:10160000C816D906EA06FB0600F189899A89AB89D2
:10161000BC890196A11DB11D898B9A8BAB8BBC8BAC
:101620002114310439F10A97A105B10518F19FEF92
:10163000291A390AC12CD12C760181E090E0A0E072
:10164000B0E0898B9A8BAB8BBC8B8AE0482E512CF7
:10165000612C712CC701B601A30192010E94001CEC
:10166000672B682B692B51F41B1444F469017A0130
:10167000BA94F0CFC12CD12C7601E7CF49895A8991
:101680006B897C89C40128DDBB2041F12E0191E1E9
:10169000490E511C7B2C82017A94AFEF7A1679F0B7
:1016A000C701B6012AE030E040E050E00E94001C93
:1016B000605DF20162932F0169017A01EDCF6B2D1C
:1016C00070E0F801E61BF70B31978EE2808360959E
:1016D0007095600F711FA801C401A4DC37FE23C000
:1016E00067E872E0C401A3DD6627772762197309F2
:1016F000C401AFDC68960FB6F894DEBF0FBECDBF55
:10170000DF91CF911F910F91FF90EF90DF90CF90DD
:10171000BF90AF909F908F907F906F905F904F9011
:101720003F902F9008952114310421F365E6C40100
:10173000BEDCB101DDCF6DE5C401B9DCDBCF6BE709
:10174000C401B5DCD8010D911C9101151105E9F01A
:10175000F80166817781C40187DD6AE3C401A7DCF3
:10176000B401C801B2DDD80115968C91882369F0C7
:10177000B8E08B02C0011124080F191F01151105D3
:1017800021F06CE2C40193DCE0CF6DE7D5CFF80126
:1017900060817181C40168DDADCFCD90DD90ED90A9
:1017A000FC906DE2C40183DCB701A601C40194DCA6
:1017B000A1CFF8014081518162817381F7CFF80197
:1017C00080819181A281B3816AE872E0892B8A2BA2
:1017D0008B2B11F46FE872E0C40129DD8BCF2F92BF
:1017E0003F924F925F926F927F928F929F92AF92B1
:1017F000BF92CF92DF92EF92FF92CF93DF9300D010
:1018000000D01F921F92CDB7DEB78091090590914D
:101810000A0521E02093D50328E62093F7031092D0
:10182000D6031092F803DC01ED91FC910190F08158
:10183000E02D6BE3199580E00E948F016EE088E651
:101840000E944D011092D4038093D3038091090527
:1018500090910A05DC01ED91FC910284F385E02D65
:101860001995F82E8091090590910A05DC01ED91FA
:10187000FC910284F385E02D199520E0822B9F29AD
:1018800090930C0580930B058091090590910A05B2
:10189000DC01ED91FC910284F385E02D1995F82E81
:1018A0008091090590910A05DC01ED91FC9102847B
:1018B000F385E02D199520E0822B9F2990930E054A
:1018C00080930D058091090590910A05DC01ED9149
:1018D000FC910284F385E02D1995F82E809109057D
:1018E00090910A05DC01ED91FC910284F385E02DD5
:1018F000199520E0822B9F299093100580930F0566
:101900008091090590910A05DC01ED91FC9102841A
:10191000F385E02D1995F82E8091090590910A051F
:10192000DC01ED91FC910284F385E02D199520E016
:10193000822B9F29909312058093110580910905B0
:1019400090910A05DC01ED91FC910284F385E02D74
:101950001995F82E8091090590910A05DC01ED9109
:10196000FC910284F385E02D199520E0822B9F29BC
:1019700090931405809313058091090590910A05B1
:10198000DC01ED91FC910284F385E02D1995F82E90
:101990008091090590910A05DC01ED91FC9102848A
:1019A000F385E02D199520E0822B9F299093160551
:1019B000809315058091090590910A05DC01ED9150
:1019C000FC910284F385E02D1995F82E809109058C
:1019D00090910A05DC01ED91FC910284F385E02DE4
:1019E0001995612C7F2C682A792A709218056092CB
:1019F00017056091110570911205072E000C880BD8
:101A0000990B0E94C11A20E030EF41E456E40E9495
:101A1000321C20E030E04AEA53E40E94F81C609354
:101A200025057093260580932705909328056091DE
:101A30000B0570910C05072E000C880B990B0E946A
:101A4000C11A20E030E040E858E30E94201B4B011F
:101A50005C018092290590922A05A0922B05B092F4
:101A60002C0560910D0570910E05072E000C880B5A
:101A7000990B0E94C11A20E030E040E858E30E9430
:101A8000201B6B017C01C0922D05D0922E05E092A7
:101A90002F05F092300560910F0570911005072E0B
:101AA000000C880B990B0E94C11A20E030E040E83E
:101AB00058E30E94201B1B012C012092310530921B
:101AC0003205409233055092340520E030E0A90100
:101AD000C501B4010E94B11DA501940118160CF0B6
:101AE0005058C201B1010E94321C9B01AC01C701D8
:101AF000B6010E94A51C20E030E044EB53E40E94B4
:101B0000201B20E030E040E05FE30E94201B2BED33
:101B10003FE049E450E40E94F81C60934D05709347
:101B20004E0580934F059093500520E030E0A901C9
:101B3000C701B6010E94B11D181624F0F7FAF094FF
:101B4000F7F8F094A7019601C201B1010E94321C7E
:101B50009B01AC01C501B4010E94A51C20E030E04E
:101B600044EB53E40E94201B20E030E040E05FEBB8
:101B70000E94201B2BED3FE049E450E40E94F81C3A
:101B800060935105709352058093530590935405CB
:101B90006091150570911605072E000C880B990BA6
:101BA0000E94C11A20E030E043E852E40E94F81C91
:101BB0006B017C016091130570911405072E000CD8
:101BC000880B990B0E94C11A20E030E043E852E4F0
:101BD0000E94F81C2091190530911A0540911B05AF
:101BE00050911C050E94311C609335057093360599
:101BF000809337059093380520911D0530911E057F
:101C000040911F0550912005C701B6010E94311C6B
:101C10006093390570933A0580933B0590933C059A
:101C2000B301770C880B990B0E94C11A20E030E0B9
:101C300043E852E40E94F81C2091210530912205CE
:101C400040912305509124050E94311C60933D056D
:101C500070933E0580933F05909340050E9469056F
:101C6000C0906905D0906A05E0906B05F0906C0516
:101C70006C197D098E099F090E94BF1A2FE632E177
:101C800043E85AE30E94201B6B017C01C09265056A
:101C9000D0926605E0926705F092680520913505BF
:101CA0003091360540913705509138050E94201B30
:101CB0002B013C01AC019B016091410570914205F3
:101CC00080914305909144050E94321C6093410528
:101CD0007093420580934305909344052091390504
:101CE00030913A0540913B0550913C05C701B60142
:101CF0000E94201B4B015C01AC019B0160914505DA
:101D00007091460580914705909148050E94321CCC
:101D10006093450570934605809347059093480569
:101D200020913D0530913E0540913F055091400581
:101D3000C701B6010E94201B2091490530914A0538
:101D400040914B0550914C050E94321C6D837E835F
:101D50008F8398876093490570934A0580934B055C
:101D600090934C05C0907105D0907205E09073057A
:101D7000F090740580916D0590916E05A0916F05AE
:101D8000B091700589839A83AB83BC8320915905F8
:101D900030915A0540915B0550915C05C301B20139
:101DA0000E94321CA70196010E94201B2B013C01BE
:101DB00020914D0530914E0540914F0550915005B1
:101DC00069817A818B819C810E94201B9B01AC01DF
:101DD000C301B2010E94321C6093590570935A05E9
:101DE00080935B0590935C0520915D0530915E05C5
:101DF00040915F0550916005C501B4010E94321CFD
:101E0000A70196010E94201B6B017C0120915105C6
:101E100030915205409153055091540569817A8162
:101E20008B819C810E94201B9B01AC01C701B601E4
:101E30000E94321C60935D0570935E0580935F0580
:101E4000909360058D819E81AF81B88580936105F7
:101E500090936205A0936305B09364050E946905A1
:101E60006093690570936A0580936B0590936C0588
:101E700028960FB6F894DEBF0FBECDBFDF91CF918D
:101E8000FF90EF90DF90CF90BF90AF909F908F909A
:101E90007F906F905F904F903F902F900895CF92DA
:101EA000DF92EF92FF920F931F93CF93DF93FC018A
:101EB0008481982F9F7739F480788062848311829F
:101EC000108213821282848185FD0CC0F0E0E0E074
:101ED000CF01DF91CF911F910F91FF90EF90DF9095
:101EE000CF9008957A018B016F01C081D181209735
:101EF00009F16E817F8160177107D1F0011511051D
:101F000041F06115710529F0C8010E94FA1D88236E
:101F100079F08D81882371F028E08202C0011124BC
:101F2000C80FD91FE4CFF983E883FB83EA8325C078
:101F3000FE01CECFE701EC81FD818A819B8108966D
:101F4000E817F90718F23897D7011596FC93EE9326
:101F50001497309709F4BACFE601AA81BB81109794
:101F600011F3CF018A1B9B0B23E0959587952A954A
:101F7000E1F715968C93FB83EA831582148217830D
:101F80000683A6CF1F920F920FB60F9211240BB6A5
:101F90000F922F933F934F935F936F937F938F9302
:101FA0009F93AF93BF93EF93FF938091CF03909153
:101FB000D003A091D103B091D203892B8A2B8B2B14
:101FC000E1F19091CE03E091CC03F091CD038081BB
:101FD000892780838091CF039091D003A091D10372
:101FE000B091D203181619061A061B069CF48091AC
:101FF000CF039091D003A091D103B091D203019768
:10200000A109B1098093CF039093D003A093D1038A
:10201000B093D203FF91EF91BF91AF919F918F91B8
:102020007F916F915F914F913F912F910F900BBED8
:102030000F900FBE0F901F901895809106020E947E
:10204000FB03E8CF1F920F920FB60F9211240BB62D
:102050000F922F933F934F935F936F937F938F9341
:102060009F93AF93BF93EF93FF9380E494E00E941C
:10207000AA02FF91EF91BF91AF919F918F917F91B4
:102080006F915F914F913F912F910F900BBE0F90E9
:102090000FBE0F901F9018951F920F920FB60F92C0
:1020A00011240BB60F922F938F939F93EF93FF936F
:1020B000E0915004F09151048081E0915604F09138
:1020C000570482FD1DC09081809159048F5F8F73EA
:1020D00020915A04821741F0E0915904F0E0E05C4D
:1020E000FB4F958F80935904FF91EF919F918F91B2
:1020F0002F910F900BBE0F900FBE0F901F90189551
:102100008081F2CF1F920F920FB60F9211242F935E
:102110003F938F939F93AF93BF938091A10390912F
:10212000A203A091A303B091A4033091A00323E0E4
:10213000230F2D3758F50196A11DB11D2093A00343
:102140008093A1039093A203A093A303B093A4034D
:102150008091A5039091A603A091A703B091A80335
:102160000196A11DB11D8093A5039093A603A09392
:10217000A703B093A803BF91AF919F918F913F9117
:102180002F910F900FBE0F901F90189526E8230FE8
:102190000296A11DB11DD2CF1F920F920FB60F92C2
:1021A00011240BB60F922F933F934F935F936F932E
:1021B0007F938F939F93AF93BF93EF93FF9348E2E7
:1021C00051E064E271E090E080E00E94A206FF919D
:1021D000EF91BF91AF919F918F917F916F915F919F
:1021E0004F913F912F910F900BBE0F900FBE0F900C
:1021F0001F9018951F920F920FB60F9211240BB6D5
:102200000F922F933F934F935F936F937F938F938F
:102210009F93AF93BF93EF93FF9348EA50E064EA34
:1022200070E083E090E00E94A206FF91EF91BF91E1
:10223000AF919F918F917F916F915F914F913F915E
:102240002F910F900BBE0F900FBE0F901F901895FF
:102250001F920F920FB60F9211240BB60F922F936D
:102260003F934F935F936F937F938F939F93AF931E
:10227000BF93EF93FF9348E950E064E970E082E098
:1022800090E00E94A206FF91EF91BF91AF919F91C4
:102290008F917F916F915F914F913F912F910F900F
:1022A0000BBE0F900FBE0F901F9018951F920F92AC
:1022B0000FB60F9211240BB60F922F933F934F93AB
:1022C0005F936F937F938F939F93AF93BF93EF939E
:1022D000FF9348E850E064E870E081E090E00E94FD
:1022E000A206FF91EF91BF91AF919F918F917F9146
:1022F0006F915F914F913F912F910F900BBE0F9077
:102300000FBE0F901F9018951F920F920FB60F924D
:1023100011240BB60F922F933F934F935F936F93BC
:102320007F938F939F93AF93BF93EF93FF9380918E
:10233000B900887F803609F44DC008F040C088326B
:1023400009F4A9C028F5803109F49DC0C8F4882398
:1023500009F4FBC0883009F496C0FF91EF91BF915A
:10236000AF919F918F917F916F915F914F913F912D
:102370002F910F900BBE0F900FBE0F901F901895CE
:10238000883109F488C0803241F780933D0414C03D
:10239000803409F49DC040F48033B9F38833E9F602
:1023A00080933D0485ECB0C0803509F485C0883544
:1023B00009F496C0883489F60E945A07CECF88392E
:1023C00009F48CC038F5883729F050F4883611F0BC
:1023D000803719F683E080933F0410920A0357C0B8
:1023E000883809F47BC0803919F0803809F0B5CFFE
:1023F00080910A03803208F071C0E0910A0381E005
:102400008E0F80930A038091BB00F0E0E651FD4FF0
:1024100080833DC0803B39F0E0F4803A09F479C014
:10242000883A09F09ACF84E080933F041092E90241
:102430001092E802E091AB03F091AC031995809102
:10244000E80281110FC081E08093E8021092C80277
:1024500009C0803C09F4A6CF883C09F4A3CF883B8F
:1024600009F07BCFE091E90281E08E0F8093E902D1
:10247000F0E0E853FD4F80818093BB009091E9022A
:102480008091E80229C080913A048093BB0085ECDA
:102490008093BC0062CF90913C0480913B049817DC
:1024A00058F5E0913C0481E08E0F80933C04F0E00D
:1024B000E75EFB4F8081E9CFE0913C0481E08E0F25
:1024C00080933C048091BB00F0E0E75EFB4F80838B
:1024D00090913C0480913B049817C8F285E8D8CFCE
:1024E000E0913C0481E08E0F80933C048091BB001E
:1024F000F0E0E75EFB4F808380913E0481115CCF6A
:1025000081E08093390484EA8093BC0010923F04F8
:1025100024CF85EC8093BC0010923F0480910A0385
:10252000803230F4E0910A03F0E0E651FD4F108272
:1025300060910A0370E0E091A903F091AA038AEE8A
:1025400092E0199510920A0308CF10923D0434CFFF
:10255000FC0190910F03903398F481E0890F8093F0
:102560000F039083892F90E0FC01EE0FFF1FE80F0F
:10257000F91FE05FFC4F88EB9BE092838183089515
:102580008FEF80830895E0E4F4E01382128288EEF6
:1025900093E0A0E0B0E084839583A683B78323E52E
:1025A00032E03183208325EC30E03587248724EC2A
:1025B00030E03787268720EC30E0318B208B21EC10
:1025C00030E0338B228B22EC30E0358B248B26ECF1
:1025D00030E0378B268B118E128E138E148EEDEF1A
:1025E000F4E01382128284839583A683B78385E601
:1025F00092E091838083F0930A05E09309058AE0D5
:1026000097EDA3EABCE380936D0590936E05A093CC
:102610006F05B093700588E491EEAAE7BFE380935D
:10262000710590937205A0937305B09374058AEFBA
:1026300094E08EDF87EF94E08BDFE9EFF1E0E49147
:10264000A9EEB4E0EC93E8EFF1E0E4911196EC939D
:10265000119783EB91E0FC012491E22FF0E0EE0F63
:10266000FF1FE357FE4F2591349113963C932E9311
:102670001297E2EBF1E0E491F0E0EE0FFF1FED586E
:10268000FE4F2591349115963C932E931497FC019F
:102690008491E82FF0E0EE0FFF1FE75AFE4F85917F
:1026A000949117969C938E9316978DE796E11996C1
:1026B0009C938E93189786EE94E04ADF83EE94E025
:1026C00047DF80EE94E044DF8DED94E041CFCF937F
:1026D000DF93CDB7DEB7EE970FB6F894DEBF0FBE2F
:1026E000CDBF789484B5826084BD84B5816084BD9B
:1026F00085B5826085BD85B5816085BD80916E00A0
:10270000816080936E0010928100809181008260D0
:10271000809381008091810081608093810080910D
:1027200080008160809380008091B10084608093FC
:10273000B1008091B00081608093B00080919100E1
:1027400082608093910080919100816080939100DC
:10275000809190008160809390008091A1008260C0
:102760008093A1008091A10081608093A10080915D
:10277000A00081608093A0008091210182608093FD
:1027800021018091210181608093210180912001AC
:1027900081608093200180917A00846080937A0028
:1027A00080917A00826080937A0080917A008160C3
:1027B00080937A0080917A00806880937A001092EA
:1027C000C100E0915004F091510482E08083E091D7
:1027D0004C04F0914D041082E0914E04F0914F04AE
:1027E00080E1808310925804E0915404F0915504E4
:1027F00086E08083E0915204F091530480818061EF
:102800008083E0915204F09153048081886080833A
:10281000E0915204F0915304808180688083E091BC
:102820005204F091530480818F7D80838DE00E945B
:10283000160289E20E9416028CE20E9416028AE2C7
:102840000E9416028DE20E94160282E00E94160289
:1028500020ED37E048EE53E066E070E086EE94E06D
:102860000E94F80520ED37E048EE53E067E070E0A5
:1028700083EE94E00E94F80564E070E080EE94E05E
:102880000E949D0665E070E08DED94E00E949D063B
:1028900068EE73E086EE94E00E94750568EE73E0E2
:1028A00083EE94E00E94750569E670E08DED94E09A
:1028B0000E94AC0569E070E08AEF94E00E949D06FA
:1028C0006AE070E087EF94E00E949D06609102024A
:1028D000709103028AEF94E00E94AC0560910002BF
:1028E0007091010287EF94E00E94AC051092D4032E
:1028F0001092D3031092D6031092F80310923F0463
:1029000081E080933E041092390461E084E10E94EA
:10291000CE0361E085E10E94CE038091B9008E7FF5
:102920008093B9008091B9008D7F8093B90088E4CD
:102930008093B80085E48093BC0082E692E0909397
:10294000AC038093AB0383E692E09093AA03809359
:10295000A90360E089E10E94EC0160E08AE10E9445
:10296000EC0168E08BE10E94EC0160E08CE10E94E8
:10297000EC0161E08BE60E94EC010E94EF0B1092EB
:1029800041051092420510924305109244051092A1
:102990004505109246051092470510924805809112
:1029A0004D0590914E05A0914F05B0915005809333
:1029B000590590935A05A0935B05B0935C058091EF
:1029C000510590915205A0915305B0915405809303
:1029D0005D0590935E05A0935F05B09360050E942E
:1029E00069056093690570936A0580936B05909300
:1029F0006C0568EE73E080E090E00E94380508EB1B
:102A00001BE0C12CD12C760146015701260137016C
:102A10008091090590910A0521E02093D50338E6BD
:102A20003093F7031092D6031092F803DC01ED9176
:102A3000FC910190F081E02D63E4199580E00E9403
:102A40008F0166E088E60E944D011092D4038093C6
:102A5000D3038091090590910A05DC01ED91FC9169
:102A60000284F385E02D1995382E80910905909107
:102A70000A05DC01ED91FC910284F385E02D1995A6
:102A80003DAA1CAAECA9FDA9E82BF92BFBAFEAAFE4
:102A90008091090590910A05DC01ED91FC91028479
:102AA000F385E02D1995382E8091090590910A053E
:102AB000DC01ED91FC910284F385E02D19953FAA8C
:102AC0001EAAEEA9FFA9E82BF92BFDAFECAF809170
:102AD000090590910A05DC01ED91FC910284F385D2
:102AE000E02D19958EAF8091090590910A05DC01C2
:102AF000ED91FC910284F385E02D19951C01EAAD5E
:102B0000FBADBF01FF0F880B990B3BD520E030E0F8
:102B100043E852E46DD79B01AC01C301B201A2D6D8
:102B20002B013C012CAD3DADB901330F880B990B46
:102B300028D520E030E043E852E45AD79B01AC01AD
:102B4000C501B4018FD64B015C013EAD39AF18AE63
:102B500068AD79AD62297329072E000C880B990B9B
:102B600010D520E030E043E852E442D79B01AC01AD
:102B7000C701B60177D66B017C010150110909F03C
:102B800047CF20E030E84BE355E4C301B20130D732
:102B90006093190570931A0580931B0590931C058B
:102BA00020E030E84BE355E4C501B40121D7609340
:102BB0001D0570931E0580931F059093200520E04E
:102BC00030E84BE355E4C701B60112D76093210505
:102BD00070932205809323059093240585E992E064
:102BE0000E940B098BE992E00E940B091E018EE204
:102BF000280E311CDE01D196BBABAAABF4EB4F2EF5
:102C0000512C612C712CA8EE8A2EA3E09A2EA12CB7
:102C1000B12C80E494E00E949502892B09F436C31C
:102C20008E01025D1F4F0E946905609348047093F6
:102C3000490480934A0490934B0480E494E00E94FA
:102C4000730297FF8AC40E946905C0904804D0901F
:102C50004904E0904A04F0904B046C197D098E09F8
:102C60009F09C0904404D0904504E0904604F09041
:102C700047046C157D058E059F05F8F2AFA54A2F18
:102C800050E02EA5EFEFE20FEC3008F0DAC2F0E0F2
:102C90008827E35BF94E8F4F91C75916631672165A
:102CA0007E168A16931698169F16A416B118D01879
:102CB0000D19009104021091050261E0C8010E9403
:102CC000BE0861E009C0009104021091050260E0B5
:102CD000C8010E94BE0860E0C8010E94B5080E94B9
:102CE000370397CF009104021091050217FF02C02D
:102CF0000F5F1F4F1595079561E0EACF0091040221
:102D00001091050217FF02C00F5F1F4F1595079521
:102D100060E0D4CF61E090E080E00E94BE0861E016
:102D200090E080E0DACF5093050240930402D7CFC1
:102D300062E072E08AEF94E00E94C808D0CF60E0C1
:102D400072E087EF94E0F8CFCA2ED12CF12CE12C61
:102D500080910602823001F5E8E5F1E0149117FD5B
:102D6000BAC182E00E941602112309F4EBC01230AE
:102D700009F0F9C08091B100887F83608093B10031
:102D80002FEF3FEFA90109EFC114D104E104F104D1
:102D900009F4D7C109EFE5C08F3F09F09CC182E07B
:102DA00080930602E8E5F1E01491812F1F3F09F4BA
:102DB00092C1123009F467C058F4112371F1113037
:102DC00009F443C087FD87C182E00E941602CFCF7D
:102DD000143009F499C008F478C0153099F71092AE
:102DE00020011092210180912101886080932101AE
:102DF00080912101816080932101E9EAF1E0E49171
:102E0000F0E0EE0FFF1FE357FE4F85919491EFEE38
:102E1000F1E0E491E093AD03A4CF14BC15BC84B5FC
:102E2000826084BD85B5816085BDE9EAF1E0E49109
:102E3000F0E0EE0FFF1FE357FE4F85919491EFEE08
:102E4000F1E0E491E093B1038CCF109280001092F6
:102E50008100809181008860809381008091810051
:102E6000816080938100E9EAF1E0E491F0E0EE0F07
:102E7000FF1FE357FE4F85919491EFEEF1E0E4914F
:102E8000E093B0036ECF1092B0001092B100809129
:102E9000B00082608093B0008091B1008160809327
:102EA000B100E9EAF1E0E491F0E0EE0FFF1FE35733
:102EB000FE4F859194919093CD038093CC03EFEED8
:102EC000F1E0E491E093CE034CCF10929000109289
:102ED0009100809191008860809391008091910091
:102EE000816080939100E9EAF1E0E491F0E0EE0F77
:102EF000FF1FE357FE4F85919491EFEEF1E0E491CF
:102F0000E093AF0313E02DCF1092A0001092A10028
:102F10008091A10088608093A1008091A1008160D0
:102F20008093A100E9EAF1E0E491F0E0EE0FFF1FE9
:102F3000E357FE4F85919491EFEEF1E0E491E09339
:102F4000AE030FCF85B5887F836085BD2FEF3FEF40
:102F5000A9010CE7C114D104E104F10409F4E2C0B1
:102F60000CE71CAAA8C0113031F580918100887F40
:102F7000816080938100C114D104E104F10409F05F
:102F8000B2C02FEF3FEFA9010FE38FE18CAB802F91
:102F90009CA990938900809388002093BE0330936E
:102FA000BF034093C0035093C10380916F008260C0
:102FB00080936F0090C0133031F580919100887F2D
:102FC000816080939100C114D104E104F10409F0FF
:102FD0008EC02FEF3FEFA9010FE39FE19CAB802F45
:102FE0009CA990939900809398002093BA03309302
:102FF000BB034093BC035093BD038091710082607A
:103000008093710068C0143031F58091A100887FF1
:1030100081608093A100C114D104E104F10409F09E
:103020006AC02FEF3FEFA9010FE3AFE1ACAB802FF8
:103030009CA99093A9008093A8002093B603309395
:10304000B7034093B8035093B90380917200826034
:103050008093720040C0153031F580912101887F46
:10306000816080932101C114D104E104F10409F0CD
:1030700046C02FEF3FEFA9010FE3BFE1BCAB802FAC
:103080009CA990932901809328012093B203309347
:10309000B3034093B4035093B503809173008260EF
:1030A0008093730018C00FE3C114D104E104F1044C
:1030B00051F1EFE1ECABA0EDB7E0A701960190D3A1
:1030C000A50194019DD31230E1F11CF5112351F1BA
:1030D000113009F45CCFC701B6010E94380582E0C7
:1030E0000E94FB03FCCD0FE3FFE1FCABE4CF0FE359
:1030F0002FE12CABE0CF0FE33FE13CABDCCF0FE3A4
:103100008FE18CABD8CF9FE19CAB2FEF3FEFA901B4
:10311000DACF143009F48BCF0CF461CF153009F4F9
:10312000AECFD9CF07BD2093C2033093C3034093E2
:10313000C4035093C50380916E00826080936E003B
:10314000CACF0093B3002093CF033093D0034093B2
:10315000D1035093D20380917000826080937000FD
:10316000BACFEFE1F1E08491EAEFF1E00491E4EB12
:10317000F1E01491112379F081110E946703E12F8E
:10318000F0E0EE0FFF1FED58FE4FA591B491EC91CA
:103190000E2360E009F461E08DE00E94CE039FCD34
:1031A0006EE774E086EE94E00E9475056EE774E0C9
:1031B00083EE94E00E94750568EC70E080E090E09A
:1031C0000E94380568E770E080EE94E00E94AC054C
:1031D00060E273E080E090E00E9438056AE570E00C
:1031E00080EE94E00E94AC0560E971E080E090E040
:1031F0000E9438056AE570E080EE94E00E94AC051C
:1032000068EE73E086EE94E00E94750568EE73E068
:1032100083EE94E00E94750562CDB0E027E93FEFB0
:103220004FEF5FEFDDD2A3019201BED2BA01A90137
:1032300047595F4F6F4F7F4F66EC73E08DED94E021
:103240007BCD30E050E040E019A28E010F5D1F4FB2
:10325000CA01B9012AE030E040E050E0D1D2605D1F
:10326000D8016E938D01211531054105510581F776
:10327000109719F0CD010E940B098EE992E00E948F
:103280000B098BE992E00E940B0929CD0E94690588
:103290000091C8031091C9032091CA033091CB0358
:1032A000601B710B820B930B653F7140810591058B
:1032B00008F415CD0E94EF0BEEE0F0E0EC0FFD1FDF
:1032C000FA83E983FC83EB833E822D8238862F824A
:1032D0008D8580788D87E091EF04F091F0048081F6
:1032E0009091E904892B8083E091EB04F091EC0448
:1032F00090818091E9048095892380838BE090E020
:103300000197F1F7E091EB04F091EC04808190914A
:10331000E904892B808383E290E00197F1F7E09143
:10332000EB04F091EC0490818091E904809589236D
:103330008083E091EF04F091F00490818091E904A2
:10334000809589238083E091ED04F091EE048081E3
:103350009091EA04892309F491C010E000E0AE01E5
:103360004F5F5F4F62EB72E0CE0109960E944F0FF4
:103370007C010097A9F0DC0114968C911497807859
:10338000886014968C93B80190E080E029E330E0E7
:1033900040E050E035D2F7012083318342835383EC
:1033A000C0902505D0902605E0902705F0902805CF
:1033B000AE014F5F5F4F67EB72E0CE0109960E944E
:1033C0004F0FFC01892B41F0948190789C6094838D
:1033D000C082D182E282F382C0904D05D0904E052A
:1033E000E0904F05F0905005AE014F5F5F4F6CEBE2
:1033F00072E0CE0109960E944F0FFC01892B41F02B
:10340000948190789C609483C082D182E282F3821E
:10341000C0905105D0905205E0905305F0905405AE
:10342000AE014F5F5F4F62EC72E0CE0109960E94E1
:103430004F0FFC01892B41F0948190789C6094831C
:10344000C082D182E282F38280E494E09FA78EA7BB
:1034500019AA18AAB101CE0109960E9465098BE943
:1034600092E00E940B090E9469056093C803709363
:10347000C9038093CA039093CB0331CC0E941305F8
:10348000AB01BC018091F1049091F204B0E0A0E0A6
:103490008855994EAF4FBF4F840F951FA61FB71F7A
:1034A0008093F3049093F404A093F504B093F6048E
:1034B000E091ED04F091EE0480819091EA0489237B
:1034C00081F40E9413050091F3041091F4042091FB
:1034D000F5043091F604061717072807390740F757
:1034E0003CCF0E9413052091F1043091F204620F49
:1034F000731F811D911D6093F3047093F4048093F6
:10350000F5049093F604E091ED04F091EE048081CF
:103510009091EA04892381F00E9413050091F3043D
:103520001091F4042091F5043091F6040617170762
:103530002807390740F711CF0E9413050091F104C5
:103540001091F204055011092091F3043091F40414
:10355000021B130B060F171F02CF8132910509F4CE
:103560008DCBF80181938F012AA93BA92E173F0724
:1035700009F059CB83CB40D008F481E00895E8945A
:1035800009C097FB3EF490958095709561957F4FAB
:103590008F4F9F4F9923A9F0F92F96E9BB27939559
:1035A000F695879577956795B795F111F8CFFAF469
:1035B000BB0F11F460FF1BC06F5F7F4F8F4F9F4F9A
:1035C00016C0882311F096E911C0772321F09EE8F8
:1035D000872F762F05C0662371F096E8862F70E05E
:1035E00060E02AF09A95660F771F881FDAF7880F38
:1035F0009695879597F90895990F0008550FAA0B8E
:10360000E0E8FEEF16161706E807F907C0F01216F5
:103610001306E407F50798F0621B730B840B950BF8
:1036200039F40A2661F0232B242B252B21F408954D
:103630000A2609F4A140A6958FEF811D811D0895EA
:103640000BD078C069D028F06ED018F0952309F01F
:103650005AC05FC01124A2C07ED0A0F3959FD1F3C1
:10366000950F50E0551F629FF001729FBB27F00D30
:10367000B11D639FAA27F00DB11DAA1F649F662785
:10368000B00DA11D661F829F2227B00DA11D621FD4
:10369000739FB00DA11D621F839FA00D611D221F8E
:1036A000749F3327A00D611D231F849F600D211D72
:1036B000822F762F6A2F11249F5750408AF0E1F015
:1036C00088234AF0EE0FFF1FBB1F661F771F881F5E
:1036D00091505040A9F79E3F510570F014C05EC054
:1036E0005F3FECF3983EDCF3869577956795B79549
:1036F000F795E7959F5FC1F7FE2B880F911D969573
:10370000879597F9089597F99F6780E870E060E0E2
:1037100008959FEF80EC089500240A94161617066A
:1037200018060906089500240A94121613061406B2
:1037300005060895092E0394000C11F4882352F015
:10374000BB0F40F4BF2B11F460FF04C06F5F7F4FCD
:103750008F4F9F4F089557FD9058440F551F59F0B4
:103760005F3F71F04795880F97FB991F61F09F3F6E
:1037700079F087950895121613061406551FF2CF97
:103780004695F1DF08C0161617061806991FF1CFE7
:1037900086957105610508940895E894BB2766270E
:1037A0007727CB0197F90895052E97FB16F400941F
:1037B0000FD057FD05D024D007FC02D046F408C036
:1037C00050954095309521953F4F4F4F5F4F08954D
:1037D00090958095709561957F4F8F4F9F4F08957D
:1037E00031D0A59F900DB49F900DA49F800D911D89
:1037F00011240895B7FFF4CFF3DF821B930B0895D4
:10380000A1E21A2EAA1BBB1BFD010DC0AA1FBB1FE4
:10381000EE1FFF1FA217B307E407F50720F0A21B56
:10382000B30BE40BF50B661F771F881F991F1A94C3
:1038300069F760957095809590959B01AC01BD01ED
:10384000CF010895A29FB001B39FC001A39F700D47
:10385000811D1124911DB29F700D811D1124911D98
:1038600008955058BB27AA270ED064CF55DF30F0FB
:103870005ADF20F031F49F3F11F41EF44ACF0EF4CA
:10388000E095E7FB40CFE92F66DF80F3BA176207C8
:1038900073078407950718F071F49EF57ECF0EF438
:1038A000E0950B2EBA2FA02D0B01B90190010C0150
:1038B000CA01A0011124FF27591B99F0593F50F468
:1038C000503E68F11A16F040A22F232F342F4427C0
:1038D000585FF3CF469537952795A795F0405395B8
:1038E000C9F77EF41F16BA0B620B730B840BBAF088
:1038F0009150A1F0FF0FBB1F661F771F881FC2F7F3
:103900000EC0BA0F621F731F841F48F48795779506
:103910006795B795F7959E3F08F0B3CF9395880FBD
:1039200008F09927EE0F979587950895F5DE58F0E2
:1039300080E891E009F49EEFF6DE28F040E851E0DF
:1039400059F45EEF09C0E5CE28CFE92FE07803DF18
:1039500068F3092E052AC1F32617370748075907C8
:1039600038F00E2E07F8E02569F0E025E0640AC083
:10397000EF6307F8009407FADB01B9019D01DC0150
:10398000CA01AD01EF9343D0D5DE0AD05F91552334
:1039900031F02BED3FE049E450FD49EC63CF089551
:1039A000DF93DD27B92FBF7740E85FE316161706D0
:1039B00048075B0710F4D92FD8D09F938F937F933C
:1039C0006F93DAD0E4EEF0E0A7D0B4DE2F913F9110
:1039D0004F915F9141DEDD2349F09058A2EA2AED34
:1039E0003FE049EC5FE3D0785D274DDFDF91A2CE69
:1039F0000CD0A0CE98DE40F08FDE30F021F45F3F97
:103A000019F081CE5111CACE84CEA5DE98F3992348
:103A1000C9F35523B1F3951B550BBB27AA27621792
:103A20007307840738F09F5F5F4F220F331F441FD7
:103A3000AA1FA9F333D00E2E3AF0E0E830D091500F
:103A40005040E695001CCAF729D0FE2F27D0660FFC
:103A5000771F881FBB1F261737074807AB07B0E83B
:103A600009F0BB0B802DBF01FF2793585F4F2AF051
:103A70009E3F510568F047CE91CE5F3FECF3983EF4
:103A8000DCF3869577956795B795F7959F5FC9F7AE
:103A9000880F911D9695879597F90895E1E0660F37
:103AA000771F881FBB1F621773078407BA0720F0B0
:103AB000621B730B840BBA0BEE1F88F7E095089519
:103AC00052DE88F09F5790F0B92F9927B751A0F098
:103AD000D1F0660F771F881F991F1AF0BA95C9F7A2
:103AE00012C0B13081F059DEB1E0089556CE672F93
:103AF000782F8827B85F39F0B93FCCF38695779552
:103B00006795B395D9F73EF490958095709561953A
:103B10007F4F8F4F9F4F0895DF93CF931F930F9346
:103B2000FF92EF92DF927B018C01689405C0DA2E40
:103B3000EF0192DDFE01E894A59125913591459123
:103B40005591AEF3EF019FDEFE019701A801DA94D3
:103B500079F7DF90EF90FF900F911F91CF91DF9158
:103B600008954ADD08F48FEF08959B01AC0160E0F1
:103B700070E080E89FE33CCF9B01AC0161CD991BD5
:103B800079E004C0991F961708F0961B881F7A9554
:103B9000C9F78095089597FB072E16F4009406D078
:103BA00077FD08D013D007FC05D03EF490958195A1
:103BB0009F4F0895709561957F4F0895EE0FFF1FF9
:103BC000881F8BBF0790F691E02D1994AA1BBB1B91
:103BD00051E107C0AA1FBB1FA617B70710F0A61B0D
:103BE000B70B881F991F5A95A9F780959095BC012E
:103BF000CD010895FB01DC018D9101908019011028
:0A3C0000D9F3990B0895F894FFCF53
:103C0A0001005A009600FF0000803FCDCCCC3D6FEA
:103C1A0012833A95BFD6337D1D9026B3CE010CCDC3
:103C2A00CCCC3D0AD7233C17B7D13877CC2B329569
:103C3A0095E6241FB14F0A000020410000C8420047
:103C4A00401C4620BCBE4CCA1B0E5AAEC59D740011
:103C5A00000000CC02350264021803950273028741
:103C6A000200000000E107B5070F088B07AE079BAB
:103C7A00078C0722225C5C6208660C6E0A720D745D
:103C8A0009006E756C6C00652D00747275650066AE
:103C9A00616C7365007265616479000D0A002063C6
:103CAA006F6D6D616E64206E6F7420666F756E64E1
:103CBA002100646973740074656D700070697463BF
:083CCA006800726F6C6C0000D1
:00000001FF
