:100000000C9462000C948A000C948A000C948A0070
:100010000C948A000C948A000C948A000C948A0038
:100020000C948A000C948A000C948A000C948A0028
:100030000C948A000C948A000C948A000C948A0018
:100040000C94FF020C948A000C94CD020C94A7022D
:100050000C948A000C948A000C948A000C948A00F8
:100060000C948A000C948A000000000024002700F1
:100070002A000000000023002600290000000000E4
:10008000250028002B0004040404040404040202D4
:100090000202020203030303030301020408102007
:1000A0004080010204081020010204081020000012
:1000B0000008000201000003040700000000000027
:1000C0000000490311241FBECFEFD8E0DEBFCDBF33
:1000D00022E0A0E4B1E001C01D92A633B207E1F72F
:1000E00011E0A0E0B1E0E0E8FBE002C005900D9275
:1000F000A034B107D9F710E0C2E6D0E004C02197E0
:10010000FE010E94B305C136D107C9F70E948803DA
:100110000C94BE050C940000E1E5F1E0A089B189E2
:1001200082E08C93A485B5851C92A685B7858FEC5B
:100130008C93108EA489B58986E08C93A289B389AB
:100140008C9180618C93A289B3898C9188608C9307
:10015000A289B3898C9180688C930288F389E02D01
:1001600080818F7D80830895CF92DF92EF92FF92FE
:100170000F931F93CF93DF936C017A018B01C0E043
:10018000D0E0CE15DF0589F0D8016D918D01D60143
:10019000ED91FC910190F081E02DC6010995892B2C
:1001A00011F47E0102C02196ECCFC701DF91CF91FF
:1001B0001F910F91FF90EF90DF90CF9008950895D9
:1001C00080E090E00895FC01538D448D252F30E0B0
:1001D000842F90E0821B930B541710F0CF96089554
:1001E00001970895FC01918D828D981761F0828DA1
:1001F000DF01A80FB11D5D968C91928D9F5F9F735B
:10020000928F90E008958FEF9FEF0895FC01918DFC
:10021000828D981731F0828DE80FF11D858D90E069
:1002200008958FEF9FEF0895FC01918D228D892F06
:1002300090E0805C9F4F821B91098F7399270895EE
:1002400081E591E00E94140121E0892B09F420E06E
:10025000822F0895FC01848DDF01A80FB11DA35AE0
:10026000BF4F2C91848D90E001968F739927848FD6
:10027000A689B7892C93A089B1898C9180648C93CD
:10028000938D848D981306C00288F389E02D8081B8
:100290008F7D80830895EF92FF920F931F93CF93EA
:1002A000DF93EC0181E0888F9B8D8C8D981305C0C6
:1002B000E889F989808185FD24C0F62E0B8D10E038
:1002C0000F5F1F4F0F731127E02E8C8DE8120CC0AB
:1002D0000FB607FCFACFE889F989808185FFF5CF51
:1002E000CE010E942A01F1CF8B8DFE01E80FF11D96
:1002F000E35AFF4FF0820B8FEA89FB89808180628D
:1003000007C0EE89FF896083E889F989808180646C
:10031000808381E090E0DF91CF911F910F91FF905A
:10032000EF900895CF93DF93EC01888D8823C9F077
:10033000EA89FB89808185FD05C0A889B9898C91EE
:1003400086FD0FC00FB607FCF5CF808185FFF2CF89
:10035000A889B9898C9185FFEDCFCE010E942A0131
:10036000E7CFDF91CF91089580E090E0892B29F0CD
:100370000E94200181110C9400000895833081F0C7
:1003800028F4813099F08230A1F008958730A9F0E7
:100390008830B9F08430D1F4809180008F7D03C023
:1003A000809180008F7780938000089584B58F7747
:1003B00002C084B58F7D84BD08958091B0008F7791
:1003C00003C08091B0008F7D8093B00008951F938B
:1003D000CF93DF93EBEBF0E09491E7EAF0E0D49178
:1003E000E3E9F0E0C491CC23D9F0182F992319F058
:1003F000892F0E94BE01EC2FF0E0EE0FFF1FE458A2
:10040000FF4FA591B4918FB7F894111105C09C913D
:10041000ED2FE095E92302C0EC91ED2BEC938FBF1B
:10042000DF91CF911F9108952FB7F8946091450106
:100430007091460180914701909148012FBF089526
:100440008F929F92AF92BF92CF92DF92EF92FF92E4
:100450006B017C010E9414024B015C01C60ED71E89
:10046000E81EF91E0E941402681579058A059B058D
:1004700028F0C616D706E806F906A0F7FF90EF9019
:10048000DF90CF90BF90AF909F908F9008950E9483
:10049000B9056115710579F0FB0101900020E9F7BC
:1004A0003197AF01461B570BDC01ED91FC910280A7
:1004B000F381E02D099480E090E008954F925F92DF
:1004C0006F927F92EF92FF920F931F93CF93DF93E0
:1004D000CDB7DEB7A1970FB6F894DEBF0FBECDBF84
:1004E0007C01FA01CB0119A2223008F42AE08E0126
:1004F0000F5D1F4F422E512C612C712CBF01A301A7
:1005000092010E949105F901CA01015011096A3056
:1005100014F4605D01C0695CD8016C93232B242B1B
:10052000252B61F7B801C7010E944902A1960FB6B9
:10053000F894DEBF0FBECDBFDF91CF911F910F9119
:10054000FF90EF907F906F905F904F9008951F9273
:100550000F920FB60F9211242F933F934F935F93F7
:100560006F937F938F939F93AF93BF93EF93FF937B
:1005700081E591E00E942A01FF91EF91BF91AF9137
:100580009F918F917F916F915F914F913F912F91AB
:100590000F900FBE0F901F9018951F920F920FB6DD
:1005A0000F9211242F938F939F93EF93FF93E091DA
:1005B0006101F09162018081E0916701F091680131
:1005C00082FD12C0908180916A018F5F8F732091AC
:1005D0006B01821751F0E0916A01F0E0EF5AFE4F93
:1005E000958F80936A0101C08081FF91EF919F9167
:1005F0008F912F910F900FBE0F901F9018951F9203
:100600000F920FB60F9211242F933F938F939F93C6
:10061000AF93BF938091450190914601A09147010E
:10062000B09148013091440123E0230F2D3720F48D
:100630000196A11DB11D05C026E8230F0296A11D3C
:10064000B11D209344018093450190934601A093EE
:100650004701B09348018091400190914101A091E0
:100660004201B09143010196A11DB11D809340014B
:1006700090934101A0934201B0934301BF91AF9188
:100680009F918F913F912F910F900FBE0F901F90D0
:100690001895E1E5F1E01382128288EE93E0A0E084
:1006A000B0E084839583A683B78384E091E091834F
:1006B000808385EC90E09587848784EC90E0978731
:1006C000868780EC90E0918B808B81EC90E0938B1F
:1006D000828B82EC90E0958B848B86EC90E0978BFC
:1006E000868B118E128E138E148EEEEEF1E0168232
:1006F0001782108611861286138614861586168632
:100700001786108A118A128A138A148A158A089504
:10071000789484B5826084BD84B5816084BD85B5DC
:10072000826085BD85B5816085BD80916E008160E8
:1007300080936E001092810080918100826080938E
:100740008100809181008160809381008091800090
:100750008160809380008091B10084608093B100BB
:100760008091B00081608093B00080917A008460B5
:1007700080937A0080917A00826080937A008091E1
:100780007A00816080937A0080917A0080688093FB
:100790007A001092C100109232021092330210922D
:1007A0003402109235021092F0011092F101109271
:1007B000F2011092F30168EB7BE080E090E00E9490
:1007C000200281E591E090933102809330020E94F3
:1007D0008C000E9414026093F0017093F1018093E9
:1007E000F2019093F30162E171E080913002909107
:1007F00031020E9449026AE070E080E090E00E94CD
:10080000200281E0809304020E948C00C7EAD0E0BD
:10081000FE01249103E910E0F8018491882399F006
:1008200090E0880F991FFC01E859FF4FA591B49102
:1008300084589F4FFC01459154918FB7F8949C9137
:10084000292B2C938FBF34EF832E99249394A12CC2
:10085000B12C4BEBE42E40E0F42E0E941402672BE7
:10086000682B692B41F40E941402623071058105E6
:10087000910508F40BC10E94140260934D0170931E
:100880004E0180934F019093500140904901509048
:100890004A0160904B0170904C0164157505860506
:1008A000970540F46093490170934A0180934B018E
:1008B00090934C014090490150904A0160904B0147
:1008C00070904C019B01AC01241935094609570968
:1008D00029013A013AEF431651046104710408F406
:1008E000D5C06093490170934A0180934B01909366
:1008F0004C018092FC019092FD01A092FE01B09209
:10090000FF01109200021092010210920202109256
:1009100003028091F4019091F501A091F601B0914C
:10092000F7018093F8019093F901A093FA01B09335
:10093000FB010E9414026093F4017093F50180930F
:10094000F6019093F7010E9414026093F0017093F6
:10095000F1018093F2019093F3010E9414022B01A4
:100960003C0164E271E080913002909131020E947A
:1009700049022AE041E050E060E070E080913002FE
:10098000909131020E945E026BE271E08091300230
:10099000909131020E9449022AE0B301A2018091A4
:1009A0003002909131020E945E026DE271E080910E
:1009B0003002909131020E9449028091F40190919D
:1009C000F501A091F601B091F701B301A201481B16
:1009D000590B6A0B7B0B2AE0809130029091310217
:1009E0000E945E026DE271E08091300290913102CE
:1009F0000E9449024091F4015091F5016091F60185
:100A00007091F7018091F8019091F901A091FA019C
:100A1000B091FB01481B590B6A0B7B0B2AE08091BC
:100A20003002909131020E945E026FE271E080918B
:100A30003002909131020E9449020E941402AB01DF
:100A4000BC012AE080913002909131020E945E0246
:100A5000609030027090310261E371E0C3010E9446
:100A6000490261E271E0C3010E94490265E070E061
:100A700080E090E00E9420020E9414026093F40142
:100A80007093F5018093F6019093F70181E591E071
:100A90000E941401892B09F441C081E591E00E9474
:100AA000F200D82EE0915101F09152010190F081B5
:100AB000E02D682F81E591E0099561E271E081E523
:100AC00091E00E9449024CE6D41228C0F7018491BB
:100AD000FE017490F801D490DD2089F081110E940C
:100AE000BE018D2D90E0880F991F8E589F4FFC01FD
:100AF000A591B4918C91782211F080E001C081E041
:100B00000E94E70168E371E081E591E00E944902FB
:100B100061E271E081E591E00E9449020E94B40126
:100B20009CCEA1E21A2EAA1BBB1BFD010DC0AA1F61
:100B3000BB1FEE1FFF1FA217B307E407F50720F046
:100B4000A21BB30BE40BF50B661F771F881F991FC1
:100B50001A9469F760957095809590959B01AC010A
:100B6000BD01CF010895EE0FFF1F0590F491E02D18
:100B7000099481E090E0F8940C94BE05F894FFCFBE
:100B8000000000004B01B400E30092011401F200E8
:100B90000601564D4450565F317C315F564D4450EE
:100BA000560D0A00564D4450455F003A323A007CDB
:100BB000005F564D44504500726563697665640078
:00000001FF
